
Firmware_Start.elf:     file format elf32-avr

Sections:
Idx Name          Size      VMA       LMA       File off  Algn
  0 .data         000000de  00800100  00002a44  00002ad8  2**0
                  CONTENTS, ALLOC, LOAD, DATA
  1 .text         00002a44  00000000  00000000  00000094  2**1
                  CONTENTS, ALLOC, LOAD, READONLY, CODE
  2 .bss          0000002a  008001de  008001de  00002bb6  2**0
                  ALLOC
  3 .comment      0000005c  00000000  00000000  00002bb6  2**0
                  CONTENTS, READONLY
  4 .note.gnu.avr.deviceinfo 00000040  00000000  00000000  00002c14  2**2
                  CONTENTS, READONLY
  5 .debug_aranges 000000d0  00000000  00000000  00002c54  2**0
                  CONTENTS, READONLY, DEBUGGING
  6 .debug_info   0000174b  00000000  00000000  00002d24  2**0
                  CONTENTS, READONLY, DEBUGGING
  7 .debug_abbrev 00000d25  00000000  00000000  0000446f  2**0
                  CONTENTS, READONLY, DEBUGGING
  8 .debug_line   00000af5  00000000  00000000  00005194  2**0
                  CONTENTS, READONLY, DEBUGGING
  9 .debug_frame  00000424  00000000  00000000  00005c8c  2**2
                  CONTENTS, READONLY, DEBUGGING
 10 .debug_str    0000075c  00000000  00000000  000060b0  2**0
                  CONTENTS, READONLY, DEBUGGING
 11 .debug_loc    00000d4e  00000000  00000000  0000680c  2**0
                  CONTENTS, READONLY, DEBUGGING
 12 .debug_ranges 000000b0  00000000  00000000  0000755a  2**0
                  CONTENTS, READONLY, DEBUGGING

Disassembly of section .text:

00000000 <__vectors>:
       0:	0c 94 f9 00 	jmp	0x1f2	; 0x1f2 <__ctors_end>
       4:	0c 94 16 01 	jmp	0x22c	; 0x22c <__bad_interrupt>
       8:	0c 94 16 01 	jmp	0x22c	; 0x22c <__bad_interrupt>
       c:	0c 94 19 06 	jmp	0xc32	; 0xc32 <__vector_3>
      10:	0c 94 16 01 	jmp	0x22c	; 0x22c <__bad_interrupt>
      14:	0c 94 16 01 	jmp	0x22c	; 0x22c <__bad_interrupt>
      18:	0c 94 16 01 	jmp	0x22c	; 0x22c <__bad_interrupt>
      1c:	0c 94 16 01 	jmp	0x22c	; 0x22c <__bad_interrupt>
      20:	0c 94 16 01 	jmp	0x22c	; 0x22c <__bad_interrupt>
      24:	0c 94 16 01 	jmp	0x22c	; 0x22c <__bad_interrupt>
      28:	0c 94 16 01 	jmp	0x22c	; 0x22c <__bad_interrupt>
      2c:	0c 94 16 01 	jmp	0x22c	; 0x22c <__bad_interrupt>
      30:	0c 94 16 01 	jmp	0x22c	; 0x22c <__bad_interrupt>
      34:	0c 94 16 01 	jmp	0x22c	; 0x22c <__bad_interrupt>
      38:	0c 94 d3 07 	jmp	0xfa6	; 0xfa6 <__vector_14>
      3c:	0c 94 16 01 	jmp	0x22c	; 0x22c <__bad_interrupt>
      40:	0c 94 16 01 	jmp	0x22c	; 0x22c <__bad_interrupt>
      44:	0c 94 16 01 	jmp	0x22c	; 0x22c <__bad_interrupt>
      48:	0c 94 e5 05 	jmp	0xbca	; 0xbca <__vector_18>
      4c:	0c 94 16 01 	jmp	0x22c	; 0x22c <__bad_interrupt>
      50:	0c 94 16 01 	jmp	0x22c	; 0x22c <__bad_interrupt>
      54:	0c 94 16 01 	jmp	0x22c	; 0x22c <__bad_interrupt>
      58:	0c 94 16 01 	jmp	0x22c	; 0x22c <__bad_interrupt>
      5c:	0c 94 16 01 	jmp	0x22c	; 0x22c <__bad_interrupt>
      60:	0c 94 16 01 	jmp	0x22c	; 0x22c <__bad_interrupt>
      64:	0c 94 16 01 	jmp	0x22c	; 0x22c <__bad_interrupt>
      68:	0c 94 16 01 	jmp	0x22c	; 0x22c <__bad_interrupt>
      6c:	0c 94 16 01 	jmp	0x22c	; 0x22c <__bad_interrupt>
      70:	0c 94 16 01 	jmp	0x22c	; 0x22c <__bad_interrupt>
      74:	0c 94 16 01 	jmp	0x22c	; 0x22c <__bad_interrupt>
      78:	0c 94 16 01 	jmp	0x22c	; 0x22c <__bad_interrupt>
      7c:	0c 94 16 01 	jmp	0x22c	; 0x22c <__bad_interrupt>
      80:	0c 94 16 01 	jmp	0x22c	; 0x22c <__bad_interrupt>
      84:	0c 94 16 01 	jmp	0x22c	; 0x22c <__bad_interrupt>
      88:	0c 94 16 01 	jmp	0x22c	; 0x22c <__bad_interrupt>
      8c:	0c 94 16 01 	jmp	0x22c	; 0x22c <__bad_interrupt>
      90:	0c 94 16 01 	jmp	0x22c	; 0x22c <__bad_interrupt>
      94:	0c 94 16 01 	jmp	0x22c	; 0x22c <__bad_interrupt>
      98:	0c 94 16 01 	jmp	0x22c	; 0x22c <__bad_interrupt>
      9c:	0c 94 16 01 	jmp	0x22c	; 0x22c <__bad_interrupt>
      a0:	0c 94 16 01 	jmp	0x22c	; 0x22c <__bad_interrupt>
      a4:	0c 94 16 01 	jmp	0x22c	; 0x22c <__bad_interrupt>
      a8:	0c 94 16 01 	jmp	0x22c	; 0x22c <__bad_interrupt>
      ac:	0c 94 16 01 	jmp	0x22c	; 0x22c <__bad_interrupt>
      b0:	0c 94 16 01 	jmp	0x22c	; 0x22c <__bad_interrupt>

000000b4 <__trampolines_end>:
      b4:	6e 61       	ori	r22, 0x1E	; 30
      b6:	6e 00       	.word	0x006e	; ????

000000b8 <__c.2240>:
      b8:	69 6e 66 00 00 40 7a 10 f3 5a 00 a0 72 4e 18 09     inf..@z..Z..rN..
      c8:	00 10 a5 d4 e8 00 00 e8 76 48 17 00 00 e4 0b 54     ........vH.....T
      d8:	02 00 00 ca 9a 3b 00 00 00 e1 f5 05 00 00 80 96     .....;..........
      e8:	98 00 00 00 40 42 0f 00 00 00 a0 86 01 00 00 00     ....@B..........
      f8:	10 27 00 00 00 00 e8 03 00 00 00 00 64 00 00 00     .'..........d...
     108:	00 00 0a 00 00 00 00 00 01 00 00 00 00 00 2c 76     ..............,v
     118:	d8 88 dc 67 4f 08 23 df c1 df ae 59 e1 b1 b7 96     ...gO.#....Y....
     128:	e5 e3 e4 53 c6 3a e6 51 99 76 96 e8 e6 c2 84 26     ...S.:.Q.v.....&
     138:	eb 89 8c 9b 62 ed 40 7c 6f fc ef bc 9c 9f 40 f2     ....b.@|o.....@.
     148:	ba a5 6f a5 f4 90 05 5a 2a f7 5c 93 6b 6c f9 67     ..o....Z*.\.kl.g
     158:	6d c1 1b fc e0 e4 0d 47 fe f5 20 e6 b5 00 d0 ed     m......G.. .....
     168:	90 2e 03 00 94 35 77 05 00 80 84 1e 08 00 00 20     .....5w........ 
     178:	4e 0a 00 00 00 c8 0c 33 33 33 33 0f 98 6e 12 83     N......3333..n..
     188:	11 41 ef 8d 21 14 89 3b e6 55 16 cf fe e6 db 18     .A..!..;.U......
     198:	d1 84 4b 38 1b f7 7c 1d 90 1d a4 bb e4 24 20 32     ..K8..|......$ 2
     1a8:	84 72 5e 22 81 00 c9 f1 24 ec a1 e5 3d 27           .r^"....$...='

000001b6 <pstr_nan>:
     1b6:	4e 41 4e                                            NAN

000001b9 <pstr_inity>:
     1b9:	49 4e 49 54 59                                      INITY

000001be <pstr_inf>:
     1be:	49 4e 46                                            INF

000001c1 <pwr_m10>:
     1c1:	cd cc cc 3d 0a d7 23 3c 17 b7 d1 38 77 cc 2b 32     ...=..#<...8w.+2
     1d1:	95 95 e6 24 1f b1 4f 0a                             ...$..O.

000001d9 <pwr_p10>:
     1d9:	00 00 20 41 00 00 c8 42 00 40 1c 46 20 bc be 4c     .. A...B.@.F ..L
     1e9:	ca 1b 0e 5a ae c5 9d 74 00                          ...Z...t.

000001f2 <__ctors_end>:
     1f2:	11 24       	eor	r1, r1
     1f4:	1f be       	out	0x3f, r1	; 63
     1f6:	cf ef       	ldi	r28, 0xFF	; 255
     1f8:	d8 e0       	ldi	r29, 0x08	; 8
     1fa:	de bf       	out	0x3e, r29	; 62
     1fc:	cd bf       	out	0x3d, r28	; 61

000001fe <__do_copy_data>:
     1fe:	11 e0       	ldi	r17, 0x01	; 1
     200:	a0 e0       	ldi	r26, 0x00	; 0
     202:	b1 e0       	ldi	r27, 0x01	; 1
     204:	e4 e4       	ldi	r30, 0x44	; 68
     206:	fa e2       	ldi	r31, 0x2A	; 42
     208:	02 c0       	rjmp	.+4      	; 0x20e <__do_copy_data+0x10>
     20a:	05 90       	lpm	r0, Z+
     20c:	0d 92       	st	X+, r0
     20e:	ae 3d       	cpi	r26, 0xDE	; 222
     210:	b1 07       	cpc	r27, r17
     212:	d9 f7       	brne	.-10     	; 0x20a <__do_copy_data+0xc>

00000214 <__do_clear_bss>:
     214:	22 e0       	ldi	r18, 0x02	; 2
     216:	ae ed       	ldi	r26, 0xDE	; 222
     218:	b1 e0       	ldi	r27, 0x01	; 1
     21a:	01 c0       	rjmp	.+2      	; 0x21e <.do_clear_bss_start>

0000021c <.do_clear_bss_loop>:
     21c:	1d 92       	st	X+, r1

0000021e <.do_clear_bss_start>:
     21e:	a8 30       	cpi	r26, 0x08	; 8
     220:	b2 07       	cpc	r27, r18
     222:	e1 f7       	brne	.-8      	; 0x21c <.do_clear_bss_loop>
     224:	0e 94 18 04 	call	0x830	; 0x830 <main>
     228:	0c 94 20 15 	jmp	0x2a40	; 0x2a40 <_exit>

0000022c <__bad_interrupt>:
     22c:	0c 94 00 00 	jmp	0	; 0x0 <__vectors>

00000230 <USART0SendByte>:
volatile Data* data;

void USART0SendByte(char cdata)
{
	//wait while previous byte is completed
	while(!(UCSR0A &(1<<UDRE0))){};
     230:	e0 ec       	ldi	r30, 0xC0	; 192
     232:	f0 e0       	ldi	r31, 0x00	; 0
     234:	90 81       	ld	r25, Z
     236:	95 ff       	sbrs	r25, 5
     238:	fd cf       	rjmp	.-6      	; 0x234 <USART0SendByte+0x4>
	// Transmit data
	UDR0 = cdata;
     23a:	80 93 c6 00 	sts	0x00C6, r24	; 0x8000c6 <__TEXT_REGION_LENGTH__+0x7e00c6>
     23e:	08 95       	ret

00000240 <USART0Init>:
}

void USART0Init(void)
{
	// Set baud rate
	UBRR0H = (uint8_t)(UBRR_VALUE>>8);
     240:	10 92 c5 00 	sts	0x00C5, r1	; 0x8000c5 <__TEXT_REGION_LENGTH__+0x7e00c5>
	UBRR0L = (uint8_t)UBRR_VALUE;
     244:	83 e3       	ldi	r24, 0x33	; 51
     246:	80 93 c4 00 	sts	0x00C4, r24	; 0x8000c4 <__TEXT_REGION_LENGTH__+0x7e00c4>
	// Set frame format to 8 data bits, no parity, 1 stop bit
	UCSR0C |= (1<<UCSZ01)|(1<<UCSZ00);
     24a:	e2 ec       	ldi	r30, 0xC2	; 194
     24c:	f0 e0       	ldi	r31, 0x00	; 0
     24e:	80 81       	ld	r24, Z
     250:	86 60       	ori	r24, 0x06	; 6
     252:	80 83       	st	Z, r24
	//enable transmission and reception
	UCSR0B |= (1<<RXEN0)|(1<<TXEN0)|(1<<RXCIE0);
     254:	e1 ec       	ldi	r30, 0xC1	; 193
     256:	f0 e0       	ldi	r31, 0x00	; 0
     258:	80 81       	ld	r24, Z
     25a:	88 69       	ori	r24, 0x98	; 152
     25c:	80 83       	st	Z, r24
	
	DDRC = 0x38; // makes 5,4,3 outputs and 0,1,2 inputs
     25e:	88 e3       	ldi	r24, 0x38	; 56
     260:	87 b9       	out	0x07, r24	; 7
	DDRD |= (1 << 1);
     262:	51 9a       	sbi	0x0a, 1	; 10
	DDRD &= ~1;
     264:	50 98       	cbi	0x0a, 0	; 10
     266:	08 95       	ret

00000268 <USART0ReceiveByte>:

char USART0ReceiveByte()
{
	// Wait for byte to be received
	//loop_until_bit_is_set(UCSR0A, RXC0);
	while(!(UCSR0A&(1<<RXC0))){};
     268:	e0 ec       	ldi	r30, 0xC0	; 192
     26a:	f0 e0       	ldi	r31, 0x00	; 0
     26c:	80 81       	ld	r24, Z
     26e:	88 23       	and	r24, r24
     270:	ec f7       	brge	.-6      	; 0x26c <USART0ReceiveByte+0x4>
	// Return received data
	return UDR0;
     272:	80 91 c6 00 	lds	r24, 0x00C6	; 0x8000c6 <__TEXT_REGION_LENGTH__+0x7e00c6>
}
     276:	08 95       	ret

00000278 <GetADCValue>:

uint16_t GetADCValue(uint8_t channel) {
	ADMUX = ((ADMUX & 0xF0) | channel);
     278:	ec e7       	ldi	r30, 0x7C	; 124
     27a:	f0 e0       	ldi	r31, 0x00	; 0
     27c:	90 81       	ld	r25, Z
     27e:	90 7f       	andi	r25, 0xF0	; 240
     280:	89 2b       	or	r24, r25
     282:	80 83       	st	Z, r24
	ADMUX |= ((1<<REFS0) | (1<<REFS1));
     284:	80 81       	ld	r24, Z
     286:	80 6c       	ori	r24, 0xC0	; 192
     288:	80 83       	st	Z, r24
	ADCSRA |= (1 << ADSC);
     28a:	ea e7       	ldi	r30, 0x7A	; 122
     28c:	f0 e0       	ldi	r31, 0x00	; 0
     28e:	80 81       	ld	r24, Z
     290:	80 64       	ori	r24, 0x40	; 64
     292:	80 83       	st	Z, r24
	while (ADCSRA & (1 << ADSC));
     294:	80 81       	ld	r24, Z
     296:	86 fd       	sbrc	r24, 6
     298:	fd cf       	rjmp	.-6      	; 0x294 <GetADCValue+0x1c>
	return ADC;
     29a:	80 91 78 00 	lds	r24, 0x0078	; 0x800078 <__TEXT_REGION_LENGTH__+0x7e0078>
     29e:	90 91 79 00 	lds	r25, 0x0079	; 0x800079 <__TEXT_REGION_LENGTH__+0x7e0079>
}
     2a2:	08 95       	ret

000002a4 <nmea_parse>:

void nmea_parse(char *start, int skips, char* result) {
     2a4:	cf 92       	push	r12
     2a6:	df 92       	push	r13
     2a8:	ef 92       	push	r14
     2aa:	ff 92       	push	r15
     2ac:	0f 93       	push	r16
     2ae:	1f 93       	push	r17
     2b0:	cf 93       	push	r28
     2b2:	df 93       	push	r29
     2b4:	ec 01       	movw	r28, r24
     2b6:	7b 01       	movw	r14, r22
     2b8:	6a 01       	movw	r12, r20
	char* ptr = start;
	for(int i = 0; i < skips; i++) {
     2ba:	16 16       	cp	r1, r22
     2bc:	17 06       	cpc	r1, r23
     2be:	7c f4       	brge	.+30     	; 0x2de <nmea_parse+0x3a>
     2c0:	00 e0       	ldi	r16, 0x00	; 0
     2c2:	10 e0       	ldi	r17, 0x00	; 0
		ptr += strcspn(ptr, ",") + 1;
     2c4:	68 e3       	ldi	r22, 0x38	; 56
     2c6:	71 e0       	ldi	r23, 0x01	; 1
     2c8:	ce 01       	movw	r24, r28
     2ca:	0e 94 5d 12 	call	0x24ba	; 0x24ba <strcspn>
     2ce:	01 96       	adiw	r24, 0x01	; 1
     2d0:	c8 0f       	add	r28, r24
     2d2:	d9 1f       	adc	r29, r25
	return ADC;
}

void nmea_parse(char *start, int skips, char* result) {
	char* ptr = start;
	for(int i = 0; i < skips; i++) {
     2d4:	0f 5f       	subi	r16, 0xFF	; 255
     2d6:	1f 4f       	sbci	r17, 0xFF	; 255
     2d8:	0e 15       	cp	r16, r14
     2da:	1f 05       	cpc	r17, r15
     2dc:	99 f7       	brne	.-26     	; 0x2c4 <nmea_parse+0x20>
		ptr += strcspn(ptr, ",") + 1;
	}
	strncpy(result, ptr, strcspn(ptr, ","));
     2de:	68 e3       	ldi	r22, 0x38	; 56
     2e0:	71 e0       	ldi	r23, 0x01	; 1
     2e2:	ce 01       	movw	r24, r28
     2e4:	0e 94 5d 12 	call	0x24ba	; 0x24ba <strcspn>
     2e8:	ac 01       	movw	r20, r24
     2ea:	be 01       	movw	r22, r28
     2ec:	c6 01       	movw	r24, r12
     2ee:	0e 94 6c 12 	call	0x24d8	; 0x24d8 <strncpy>
	result[strcspn(ptr, ",")] = '\0';
     2f2:	68 e3       	ldi	r22, 0x38	; 56
     2f4:	71 e0       	ldi	r23, 0x01	; 1
     2f6:	ce 01       	movw	r24, r28
     2f8:	0e 94 5d 12 	call	0x24ba	; 0x24ba <strcspn>
     2fc:	8c 0d       	add	r24, r12
     2fe:	9d 1d       	adc	r25, r13
     300:	fc 01       	movw	r30, r24
     302:	10 82       	st	Z, r1
}
     304:	df 91       	pop	r29
     306:	cf 91       	pop	r28
     308:	1f 91       	pop	r17
     30a:	0f 91       	pop	r16
     30c:	ff 90       	pop	r15
     30e:	ef 90       	pop	r14
     310:	df 90       	pop	r13
     312:	cf 90       	pop	r12
     314:	08 95       	ret

00000316 <receive_gps>:

void receive_gps() {
     316:	cf 92       	push	r12
     318:	df 92       	push	r13
     31a:	ef 92       	push	r14
     31c:	ff 92       	push	r15
     31e:	0f 93       	push	r16
     320:	1f 93       	push	r17
     322:	cf 93       	push	r28
     324:	df 93       	push	r29
	int i = 0;
	char *received = malloc(102);
     326:	86 e6       	ldi	r24, 0x66	; 102
     328:	90 e0       	ldi	r25, 0x00	; 0
     32a:	0e 94 5c 0e 	call	0x1cb8	; 0x1cb8 <malloc>
     32e:	7c 01       	movw	r14, r24
     330:	8c 01       	movw	r16, r24
	strncpy(result, ptr, strcspn(ptr, ","));
	result[strcspn(ptr, ",")] = '\0';
}

void receive_gps() {
	int i = 0;
     332:	c0 e0       	ldi	r28, 0x00	; 0
     334:	d0 e0       	ldi	r29, 0x00	; 0
	char *received = malloc(102);
	//receiving from GPS module.
	while((received[i++] = USART0ReceiveByte()) != '\n') {
		//reallocating if NMEA sentences are too long for received buffer.
		if(!(i % 50) && i >= 100) {
     336:	0f 2e       	mov	r0, r31
     338:	f2 e3       	ldi	r31, 0x32	; 50
     33a:	cf 2e       	mov	r12, r31
     33c:	d1 2c       	mov	r13, r1
     33e:	f0 2d       	mov	r31, r0

void receive_gps() {
	int i = 0;
	char *received = malloc(102);
	//receiving from GPS module.
	while((received[i++] = USART0ReceiveByte()) != '\n') {
     340:	0f c0       	rjmp	.+30     	; 0x360 <receive_gps+0x4a>
		//reallocating if NMEA sentences are too long for received buffer.
		if(!(i % 50) && i >= 100) {
     342:	ce 01       	movw	r24, r28
     344:	b6 01       	movw	r22, r12
     346:	0e 94 bc 0d 	call	0x1b78	; 0x1b78 <__divmodhi4>
     34a:	89 2b       	or	r24, r25
     34c:	49 f4       	brne	.+18     	; 0x360 <receive_gps+0x4a>
     34e:	c4 36       	cpi	r28, 0x64	; 100
     350:	d1 05       	cpc	r29, r1
     352:	34 f0       	brlt	.+12     	; 0x360 <receive_gps+0x4a>
     354:	be 01       	movw	r22, r28
     356:	6d 5c       	subi	r22, 0xCD	; 205
     358:	7f 4f       	sbci	r23, 0xFF	; 255
			realloc(received, i + 51);
     35a:	c7 01       	movw	r24, r14
     35c:	0e 94 89 0f 	call	0x1f12	; 0x1f12 <realloc>

void receive_gps() {
	int i = 0;
	char *received = malloc(102);
	//receiving from GPS module.
	while((received[i++] = USART0ReceiveByte()) != '\n') {
     360:	21 96       	adiw	r28, 0x01	; 1
     362:	0e 94 34 01 	call	0x268	; 0x268 <USART0ReceiveByte>
     366:	f8 01       	movw	r30, r16
     368:	81 93       	st	Z+, r24
     36a:	8f 01       	movw	r16, r30
     36c:	8a 30       	cpi	r24, 0x0A	; 10
     36e:	49 f7       	brne	.-46     	; 0x342 <receive_gps+0x2c>
		//reallocating if NMEA sentences are too long for received buffer.
		if(!(i % 50) && i >= 100) {
			realloc(received, i + 51);
		}
	}
	received[i] = '\0';
     370:	ce 0d       	add	r28, r14
     372:	df 1d       	adc	r29, r15
     374:	18 82       	st	Y, r1
	nmea_parse(received, 9, data->date);
     376:	e0 91 f5 01 	lds	r30, 0x01F5	; 0x8001f5 <data>
     37a:	f0 91 f6 01 	lds	r31, 0x01F6	; 0x8001f6 <data+0x1>
     37e:	42 81       	ldd	r20, Z+2	; 0x02
     380:	53 81       	ldd	r21, Z+3	; 0x03
     382:	69 e0       	ldi	r22, 0x09	; 9
     384:	70 e0       	ldi	r23, 0x00	; 0
     386:	c7 01       	movw	r24, r14
     388:	0e 94 52 01 	call	0x2a4	; 0x2a4 <nmea_parse>
	nmea_parse(received, 1, data->time);
     38c:	e0 91 f5 01 	lds	r30, 0x01F5	; 0x8001f5 <data>
     390:	f0 91 f6 01 	lds	r31, 0x01F6	; 0x8001f6 <data+0x1>
     394:	40 81       	ld	r20, Z
     396:	51 81       	ldd	r21, Z+1	; 0x01
     398:	61 e0       	ldi	r22, 0x01	; 1
     39a:	70 e0       	ldi	r23, 0x00	; 0
     39c:	c7 01       	movw	r24, r14
     39e:	0e 94 52 01 	call	0x2a4	; 0x2a4 <nmea_parse>
	for(int i = 0; i < 2; i++) {
		nmea_parse(received, 3+2*i, data->coords[i].coord);
     3a2:	e0 91 f5 01 	lds	r30, 0x01F5	; 0x8001f5 <data>
     3a6:	f0 91 f6 01 	lds	r31, 0x01F6	; 0x8001f6 <data+0x1>
     3aa:	44 85       	ldd	r20, Z+12	; 0x0c
     3ac:	55 85       	ldd	r21, Z+13	; 0x0d
     3ae:	63 e0       	ldi	r22, 0x03	; 3
     3b0:	70 e0       	ldi	r23, 0x00	; 0
     3b2:	c7 01       	movw	r24, r14
     3b4:	0e 94 52 01 	call	0x2a4	; 0x2a4 <nmea_parse>
		nmea_parse(received, 4+2*i, data->coords[i].bearing);	
     3b8:	e0 91 f5 01 	lds	r30, 0x01F5	; 0x8001f5 <data>
     3bc:	f0 91 f6 01 	lds	r31, 0x01F6	; 0x8001f6 <data+0x1>
     3c0:	46 85       	ldd	r20, Z+14	; 0x0e
     3c2:	57 85       	ldd	r21, Z+15	; 0x0f
     3c4:	64 e0       	ldi	r22, 0x04	; 4
     3c6:	70 e0       	ldi	r23, 0x00	; 0
     3c8:	c7 01       	movw	r24, r14
     3ca:	0e 94 52 01 	call	0x2a4	; 0x2a4 <nmea_parse>
	}
	received[i] = '\0';
	nmea_parse(received, 9, data->date);
	nmea_parse(received, 1, data->time);
	for(int i = 0; i < 2; i++) {
		nmea_parse(received, 3+2*i, data->coords[i].coord);
     3ce:	e0 91 f5 01 	lds	r30, 0x01F5	; 0x8001f5 <data>
     3d2:	f0 91 f6 01 	lds	r31, 0x01F6	; 0x8001f6 <data+0x1>
     3d6:	40 89       	ldd	r20, Z+16	; 0x10
     3d8:	51 89       	ldd	r21, Z+17	; 0x11
     3da:	65 e0       	ldi	r22, 0x05	; 5
     3dc:	70 e0       	ldi	r23, 0x00	; 0
     3de:	c7 01       	movw	r24, r14
     3e0:	0e 94 52 01 	call	0x2a4	; 0x2a4 <nmea_parse>
		nmea_parse(received, 4+2*i, data->coords[i].bearing);	
     3e4:	e0 91 f5 01 	lds	r30, 0x01F5	; 0x8001f5 <data>
     3e8:	f0 91 f6 01 	lds	r31, 0x01F6	; 0x8001f6 <data+0x1>
     3ec:	42 89       	ldd	r20, Z+18	; 0x12
     3ee:	53 89       	ldd	r21, Z+19	; 0x13
     3f0:	66 e0       	ldi	r22, 0x06	; 6
     3f2:	70 e0       	ldi	r23, 0x00	; 0
     3f4:	c7 01       	movw	r24, r14
     3f6:	0e 94 52 01 	call	0x2a4	; 0x2a4 <nmea_parse>
	}
	free(received);
     3fa:	c7 01       	movw	r24, r14
     3fc:	0e 94 f1 0e 	call	0x1de2	; 0x1de2 <free>
}
     400:	df 91       	pop	r29
     402:	cf 91       	pop	r28
     404:	1f 91       	pop	r17
     406:	0f 91       	pop	r16
     408:	ff 90       	pop	r15
     40a:	ef 90       	pop	r14
     40c:	df 90       	pop	r13
     40e:	cf 90       	pop	r12
     410:	08 95       	ret

00000412 <EEPROM_write>:

void EEPROM_write(unsigned int uiAddress, unsigned char ucData)
{
	/* Wait for completion of previous write */
	while(EECR & (1<<EEPE));
     412:	f9 99       	sbic	0x1f, 1	; 31
     414:	fe cf       	rjmp	.-4      	; 0x412 <EEPROM_write>
	/* Set up address and Data Registers */
	EEAR = uiAddress;
     416:	92 bd       	out	0x22, r25	; 34
     418:	81 bd       	out	0x21, r24	; 33
	EEDR = ucData;
     41a:	60 bd       	out	0x20, r22	; 32
	/* Write logical one to EEMPE */
	EECR |= (1<<EEMPE);
     41c:	fa 9a       	sbi	0x1f, 2	; 31
	/* Start eeprom write by setting EEPE */
	EECR |= (1<<EEPE);
     41e:	f9 9a       	sbi	0x1f, 1	; 31
     420:	08 95       	ret

00000422 <EEPROM_read>:
}

char EEPROM_read(unsigned int uiAddress)
{
	/* Wait for completion of previous write */
	while(EECR & (1<<EEPE));
     422:	f9 99       	sbic	0x1f, 1	; 31
     424:	fe cf       	rjmp	.-4      	; 0x422 <EEPROM_read>
	/* Set up address register */
	EEAR = uiAddress;
     426:	92 bd       	out	0x22, r25	; 34
     428:	81 bd       	out	0x21, r24	; 33
	/* Start eeprom read by writing EERE */
	EECR |= (1<<EERE);
     42a:	f8 9a       	sbi	0x1f, 0	; 31
	/* Return data from Data Register */
	return EEDR;
     42c:	80 b5       	in	r24, 0x20	; 32
}
     42e:	08 95       	ret

00000430 <mem_cpy>:

void mem_cpy(char* text) {
     430:	df 92       	push	r13
     432:	ef 92       	push	r14
     434:	ff 92       	push	r15
     436:	0f 93       	push	r16
     438:	1f 93       	push	r17
     43a:	cf 93       	push	r28
     43c:	df 93       	push	r29
	if(saved++ > 19) {
     43e:	20 91 f9 01 	lds	r18, 0x01F9	; 0x8001f9 <saved>
     442:	30 91 fa 01 	lds	r19, 0x01FA	; 0x8001fa <saved+0x1>
     446:	24 31       	cpi	r18, 0x14	; 20
     448:	31 05       	cpc	r19, r1
     44a:	3c f4       	brge	.+14     	; 0x45a <mem_cpy+0x2a>
     44c:	2f 5f       	subi	r18, 0xFF	; 255
     44e:	3f 4f       	sbci	r19, 0xFF	; 255
     450:	30 93 fa 01 	sts	0x01FA, r19	; 0x8001fa <saved+0x1>
     454:	20 93 f9 01 	sts	0x01F9, r18	; 0x8001f9 <saved>
     458:	06 c0       	rjmp	.+12     	; 0x466 <mem_cpy+0x36>
		saved = 10;
     45a:	2a e0       	ldi	r18, 0x0A	; 10
     45c:	30 e0       	ldi	r19, 0x00	; 0
     45e:	30 93 fa 01 	sts	0x01FA, r19	; 0x8001fa <saved+0x1>
     462:	20 93 f9 01 	sts	0x01F9, r18	; 0x8001f9 <saved>
	}
	int i = 0;
	for(; text[i] != '\0'; i++) {
     466:	fc 01       	movw	r30, r24
     468:	20 81       	ld	r18, Z
     46a:	22 23       	and	r18, r18
     46c:	39 f1       	breq	.+78     	; 0x4bc <mem_cpy+0x8c>
     46e:	8c 01       	movw	r16, r24
     470:	0f 5f       	subi	r16, 0xFF	; 255
     472:	1f 4f       	sbci	r17, 0xFF	; 255
     474:	c0 e0       	ldi	r28, 0x00	; 0
     476:	d0 e0       	ldi	r29, 0x00	; 0
		EEPROM_write(i + 50*(saved % 10), text[i]);
     478:	0f 2e       	mov	r0, r31
     47a:	fa e0       	ldi	r31, 0x0A	; 10
     47c:	ef 2e       	mov	r14, r31
     47e:	f1 2c       	mov	r15, r1
     480:	f0 2d       	mov	r31, r0
     482:	0f 2e       	mov	r0, r31
     484:	f2 e3       	ldi	r31, 0x32	; 50
     486:	df 2e       	mov	r13, r31
     488:	f0 2d       	mov	r31, r0
     48a:	80 91 f9 01 	lds	r24, 0x01F9	; 0x8001f9 <saved>
     48e:	90 91 fa 01 	lds	r25, 0x01FA	; 0x8001fa <saved+0x1>
     492:	b7 01       	movw	r22, r14
     494:	0e 94 bc 0d 	call	0x1b78	; 0x1b78 <__divmodhi4>
     498:	d8 9e       	mul	r13, r24
     49a:	a0 01       	movw	r20, r0
     49c:	d9 9e       	mul	r13, r25
     49e:	50 0d       	add	r21, r0
     4a0:	11 24       	eor	r1, r1
     4a2:	62 2f       	mov	r22, r18
     4a4:	ca 01       	movw	r24, r20
     4a6:	8c 0f       	add	r24, r28
     4a8:	9d 1f       	adc	r25, r29
     4aa:	0e 94 09 02 	call	0x412	; 0x412 <EEPROM_write>
void mem_cpy(char* text) {
	if(saved++ > 19) {
		saved = 10;
	}
	int i = 0;
	for(; text[i] != '\0'; i++) {
     4ae:	21 96       	adiw	r28, 0x01	; 1
     4b0:	f8 01       	movw	r30, r16
     4b2:	21 91       	ld	r18, Z+
     4b4:	8f 01       	movw	r16, r30
     4b6:	21 11       	cpse	r18, r1
     4b8:	e8 cf       	rjmp	.-48     	; 0x48a <mem_cpy+0x5a>
     4ba:	02 c0       	rjmp	.+4      	; 0x4c0 <mem_cpy+0x90>
     4bc:	c0 e0       	ldi	r28, 0x00	; 0
     4be:	d0 e0       	ldi	r29, 0x00	; 0
		EEPROM_write(i + 50*(saved % 10), text[i]);
	}
	EEPROM_write(i + 50*(saved % 10),'\0');
     4c0:	80 91 f9 01 	lds	r24, 0x01F9	; 0x8001f9 <saved>
     4c4:	90 91 fa 01 	lds	r25, 0x01FA	; 0x8001fa <saved+0x1>
     4c8:	0a e0       	ldi	r16, 0x0A	; 10
     4ca:	10 e0       	ldi	r17, 0x00	; 0
     4cc:	b8 01       	movw	r22, r16
     4ce:	0e 94 bc 0d 	call	0x1b78	; 0x1b78 <__divmodhi4>
     4d2:	42 e3       	ldi	r20, 0x32	; 50
     4d4:	48 9f       	mul	r20, r24
     4d6:	90 01       	movw	r18, r0
     4d8:	49 9f       	mul	r20, r25
     4da:	30 0d       	add	r19, r0
     4dc:	11 24       	eor	r1, r1
     4de:	60 e0       	ldi	r22, 0x00	; 0
     4e0:	c9 01       	movw	r24, r18
     4e2:	8c 0f       	add	r24, r28
     4e4:	9d 1f       	adc	r25, r29
     4e6:	0e 94 09 02 	call	0x412	; 0x412 <EEPROM_write>
	EEPROM_write(0x1FF, (saved % 10));
     4ea:	80 91 f9 01 	lds	r24, 0x01F9	; 0x8001f9 <saved>
     4ee:	90 91 fa 01 	lds	r25, 0x01FA	; 0x8001fa <saved+0x1>
     4f2:	b8 01       	movw	r22, r16
     4f4:	0e 94 bc 0d 	call	0x1b78	; 0x1b78 <__divmodhi4>
     4f8:	68 2f       	mov	r22, r24
     4fa:	8f ef       	ldi	r24, 0xFF	; 255
     4fc:	91 e0       	ldi	r25, 0x01	; 1
     4fe:	0e 94 09 02 	call	0x412	; 0x412 <EEPROM_write>
}
     502:	df 91       	pop	r29
     504:	cf 91       	pop	r28
     506:	1f 91       	pop	r17
     508:	0f 91       	pop	r16
     50a:	ff 90       	pop	r15
     50c:	ef 90       	pop	r14
     50e:	df 90       	pop	r13
     510:	08 95       	ret

00000512 <mem_read>:

void mem_read(int index, char *result) {
     512:	cf 92       	push	r12
     514:	df 92       	push	r13
     516:	ef 92       	push	r14
     518:	ff 92       	push	r15
     51a:	0f 93       	push	r16
     51c:	1f 93       	push	r17
     51e:	cf 93       	push	r28
     520:	df 93       	push	r29
	int i = 0;
	while((result[i] = EEPROM_read(index * 50 + i)) != '\0' && i < 50) {
     522:	22 e3       	ldi	r18, 0x32	; 50
     524:	ac 01       	movw	r20, r24
     526:	24 9f       	mul	r18, r20
     528:	c0 01       	movw	r24, r0
     52a:	25 9f       	mul	r18, r21
     52c:	90 0d       	add	r25, r0
     52e:	11 24       	eor	r1, r1
     530:	6b 01       	movw	r12, r22
     532:	53 e3       	ldi	r21, 0x33	; 51
     534:	c5 0e       	add	r12, r21
     536:	d1 1c       	adc	r13, r1
     538:	eb 01       	movw	r28, r22
     53a:	8c 01       	movw	r16, r24
     53c:	06 1b       	sub	r16, r22
     53e:	17 0b       	sbc	r17, r23
     540:	7e 01       	movw	r14, r28
     542:	c8 01       	movw	r24, r16
     544:	8c 0f       	add	r24, r28
     546:	9d 1f       	adc	r25, r29
     548:	0e 94 11 02 	call	0x422	; 0x422 <EEPROM_read>
     54c:	89 93       	st	Y+, r24
     54e:	88 23       	and	r24, r24
     550:	19 f0       	breq	.+6      	; 0x558 <mem_read+0x46>
     552:	cc 15       	cp	r28, r12
     554:	dd 05       	cpc	r29, r13
     556:	a1 f7       	brne	.-24     	; 0x540 <mem_read+0x2e>
		i++;
	}
	result[i] = '\0';
     558:	f7 01       	movw	r30, r14
     55a:	10 82       	st	Z, r1
}
     55c:	df 91       	pop	r29
     55e:	cf 91       	pop	r28
     560:	1f 91       	pop	r17
     562:	0f 91       	pop	r16
     564:	ff 90       	pop	r15
     566:	ef 90       	pop	r14
     568:	df 90       	pop	r13
     56a:	cf 90       	pop	r12
     56c:	08 95       	ret

0000056e <gps_record>:

void gps_record() {
     56e:	ef 92       	push	r14
     570:	ff 92       	push	r15
     572:	0f 93       	push	r16
     574:	1f 93       	push	r17
     576:	cf 93       	push	r28
     578:	df 93       	push	r29
	static float totalWind, totalInsolation, totalTemp;
	if(recording++ <= 26) {
     57a:	80 91 f7 01 	lds	r24, 0x01F7	; 0x8001f7 <recording>
     57e:	90 91 f8 01 	lds	r25, 0x01F8	; 0x8001f8 <recording+0x1>
     582:	9c 01       	movw	r18, r24
     584:	2f 5f       	subi	r18, 0xFF	; 255
     586:	3f 4f       	sbci	r19, 0xFF	; 255
     588:	30 93 f8 01 	sts	0x01F8, r19	; 0x8001f8 <recording+0x1>
     58c:	20 93 f7 01 	sts	0x01F7, r18	; 0x8001f7 <recording>
     590:	4b 97       	sbiw	r24, 0x1b	; 27
     592:	0c f0       	brlt	.+2      	; 0x596 <gps_record+0x28>
     594:	55 c0       	rjmp	.+170    	; 0x640 <gps_record+0xd2>
		totalTemp += atof(data->temp);
     596:	e0 91 f5 01 	lds	r30, 0x01F5	; 0x8001f5 <data>
     59a:	f0 91 f6 01 	lds	r31, 0x01F6	; 0x8001f6 <data+0x1>
     59e:	84 81       	ldd	r24, Z+4	; 0x04
     5a0:	95 81       	ldd	r25, Z+5	; 0x05
     5a2:	0e 94 64 11 	call	0x22c8	; 0x22c8 <atof>
     5a6:	9b 01       	movw	r18, r22
     5a8:	ac 01       	movw	r20, r24
     5aa:	60 91 e9 01 	lds	r22, 0x01E9	; 0x8001e9 <totalTemp.2325>
     5ae:	70 91 ea 01 	lds	r23, 0x01EA	; 0x8001ea <totalTemp.2325+0x1>
     5b2:	80 91 eb 01 	lds	r24, 0x01EB	; 0x8001eb <totalTemp.2325+0x2>
     5b6:	90 91 ec 01 	lds	r25, 0x01EC	; 0x8001ec <totalTemp.2325+0x3>
     5ba:	0e 94 67 08 	call	0x10ce	; 0x10ce <__addsf3>
     5be:	60 93 e9 01 	sts	0x01E9, r22	; 0x8001e9 <totalTemp.2325>
     5c2:	70 93 ea 01 	sts	0x01EA, r23	; 0x8001ea <totalTemp.2325+0x1>
     5c6:	80 93 eb 01 	sts	0x01EB, r24	; 0x8001eb <totalTemp.2325+0x2>
     5ca:	90 93 ec 01 	sts	0x01EC, r25	; 0x8001ec <totalTemp.2325+0x3>
		totalInsolation += atof(data->insolation);
     5ce:	e0 91 f5 01 	lds	r30, 0x01F5	; 0x8001f5 <data>
     5d2:	f0 91 f6 01 	lds	r31, 0x01F6	; 0x8001f6 <data+0x1>
     5d6:	82 85       	ldd	r24, Z+10	; 0x0a
     5d8:	93 85       	ldd	r25, Z+11	; 0x0b
     5da:	0e 94 64 11 	call	0x22c8	; 0x22c8 <atof>
     5de:	9b 01       	movw	r18, r22
     5e0:	ac 01       	movw	r20, r24
     5e2:	60 91 e5 01 	lds	r22, 0x01E5	; 0x8001e5 <totalInsolation.2324>
     5e6:	70 91 e6 01 	lds	r23, 0x01E6	; 0x8001e6 <totalInsolation.2324+0x1>
     5ea:	80 91 e7 01 	lds	r24, 0x01E7	; 0x8001e7 <totalInsolation.2324+0x2>
     5ee:	90 91 e8 01 	lds	r25, 0x01E8	; 0x8001e8 <totalInsolation.2324+0x3>
     5f2:	0e 94 67 08 	call	0x10ce	; 0x10ce <__addsf3>
     5f6:	60 93 e5 01 	sts	0x01E5, r22	; 0x8001e5 <totalInsolation.2324>
     5fa:	70 93 e6 01 	sts	0x01E6, r23	; 0x8001e6 <totalInsolation.2324+0x1>
     5fe:	80 93 e7 01 	sts	0x01E7, r24	; 0x8001e7 <totalInsolation.2324+0x2>
     602:	90 93 e8 01 	sts	0x01E8, r25	; 0x8001e8 <totalInsolation.2324+0x3>
		totalWind += atof(data->wind);
     606:	e0 91 f5 01 	lds	r30, 0x01F5	; 0x8001f5 <data>
     60a:	f0 91 f6 01 	lds	r31, 0x01F6	; 0x8001f6 <data+0x1>
     60e:	86 81       	ldd	r24, Z+6	; 0x06
     610:	97 81       	ldd	r25, Z+7	; 0x07
     612:	0e 94 64 11 	call	0x22c8	; 0x22c8 <atof>
     616:	9b 01       	movw	r18, r22
     618:	ac 01       	movw	r20, r24
     61a:	60 91 e1 01 	lds	r22, 0x01E1	; 0x8001e1 <totalWind.2323>
     61e:	70 91 e2 01 	lds	r23, 0x01E2	; 0x8001e2 <totalWind.2323+0x1>
     622:	80 91 e3 01 	lds	r24, 0x01E3	; 0x8001e3 <totalWind.2323+0x2>
     626:	90 91 e4 01 	lds	r25, 0x01E4	; 0x8001e4 <totalWind.2323+0x3>
     62a:	0e 94 67 08 	call	0x10ce	; 0x10ce <__addsf3>
     62e:	60 93 e1 01 	sts	0x01E1, r22	; 0x8001e1 <totalWind.2323>
     632:	70 93 e2 01 	sts	0x01E2, r23	; 0x8001e2 <totalWind.2323+0x1>
     636:	80 93 e3 01 	sts	0x01E3, r24	; 0x8001e3 <totalWind.2323+0x2>
     63a:	90 93 e4 01 	sts	0x01E4, r25	; 0x8001e4 <totalWind.2323+0x3>
     63e:	c3 c0       	rjmp	.+390    	; 0x7c6 <gps_record+0x258>
	}
	else {
		recording = 0;
     640:	10 92 f8 01 	sts	0x01F8, r1	; 0x8001f8 <recording+0x1>
     644:	10 92 f7 01 	sts	0x01F7, r1	; 0x8001f7 <recording>
		char *text = malloc(50);
     648:	82 e3       	ldi	r24, 0x32	; 50
     64a:	90 e0       	ldi	r25, 0x00	; 0
     64c:	0e 94 5c 0e 	call	0x1cb8	; 0x1cb8 <malloc>
     650:	d8 2f       	mov	r29, r24
     652:	c9 2f       	mov	r28, r25
		printf("%f %f %f", totalTemp, totalWind, totalInsolation);
     654:	80 91 e8 01 	lds	r24, 0x01E8	; 0x8001e8 <totalInsolation.2324+0x3>
     658:	8f 93       	push	r24
     65a:	80 91 e7 01 	lds	r24, 0x01E7	; 0x8001e7 <totalInsolation.2324+0x2>
     65e:	8f 93       	push	r24
     660:	80 91 e6 01 	lds	r24, 0x01E6	; 0x8001e6 <totalInsolation.2324+0x1>
     664:	8f 93       	push	r24
     666:	80 91 e5 01 	lds	r24, 0x01E5	; 0x8001e5 <totalInsolation.2324>
     66a:	8f 93       	push	r24
     66c:	80 91 e4 01 	lds	r24, 0x01E4	; 0x8001e4 <totalWind.2323+0x3>
     670:	8f 93       	push	r24
     672:	80 91 e3 01 	lds	r24, 0x01E3	; 0x8001e3 <totalWind.2323+0x2>
     676:	8f 93       	push	r24
     678:	80 91 e2 01 	lds	r24, 0x01E2	; 0x8001e2 <totalWind.2323+0x1>
     67c:	8f 93       	push	r24
     67e:	80 91 e1 01 	lds	r24, 0x01E1	; 0x8001e1 <totalWind.2323>
     682:	8f 93       	push	r24
     684:	80 91 ec 01 	lds	r24, 0x01EC	; 0x8001ec <totalTemp.2325+0x3>
     688:	8f 93       	push	r24
     68a:	80 91 eb 01 	lds	r24, 0x01EB	; 0x8001eb <totalTemp.2325+0x2>
     68e:	8f 93       	push	r24
     690:	80 91 ea 01 	lds	r24, 0x01EA	; 0x8001ea <totalTemp.2325+0x1>
     694:	8f 93       	push	r24
     696:	80 91 e9 01 	lds	r24, 0x01E9	; 0x8001e9 <totalTemp.2325>
     69a:	8f 93       	push	r24
     69c:	8a e3       	ldi	r24, 0x3A	; 58
     69e:	91 e0       	ldi	r25, 0x01	; 1
     6a0:	9f 93       	push	r25
     6a2:	8f 93       	push	r24
     6a4:	0e 94 be 12 	call	0x257c	; 0x257c <printf>
		sprintf(text, "%.6s.%.6s,%04.1f,%03.0f,%03.0f,%.1s%.10s,%.1s%.9s\r\n",
				data->date, data->time, totalWind/25.0, totalTemp/25.0,
				totalInsolation/25.0, data->coords[1].bearing,
				data->coords[1].coord, data->coords[0].bearing,
				data->coords[0].coord);
     6a8:	e0 91 f5 01 	lds	r30, 0x01F5	; 0x8001f5 <data>
     6ac:	f0 91 f6 01 	lds	r31, 0x01F6	; 0x8001f6 <data+0x1>
	}
	else {
		recording = 0;
		char *text = malloc(50);
		printf("%f %f %f", totalTemp, totalWind, totalInsolation);
		sprintf(text, "%.6s.%.6s,%04.1f,%03.0f,%03.0f,%.1s%.10s,%.1s%.9s\r\n",
     6b0:	64 85       	ldd	r22, Z+12	; 0x0c
     6b2:	75 85       	ldd	r23, Z+13	; 0x0d
     6b4:	46 85       	ldd	r20, Z+14	; 0x0e
     6b6:	57 85       	ldd	r21, Z+15	; 0x0f
     6b8:	20 89       	ldd	r18, Z+16	; 0x10
     6ba:	31 89       	ldd	r19, Z+17	; 0x11
     6bc:	82 89       	ldd	r24, Z+18	; 0x12
     6be:	93 89       	ldd	r25, Z+19	; 0x13
     6c0:	e0 80       	ld	r14, Z
     6c2:	f1 80       	ldd	r15, Z+1	; 0x01
     6c4:	02 81       	ldd	r16, Z+2	; 0x02
     6c6:	13 81       	ldd	r17, Z+3	; 0x03
     6c8:	7f 93       	push	r23
     6ca:	6f 93       	push	r22
     6cc:	5f 93       	push	r21
     6ce:	4f 93       	push	r20
     6d0:	3f 93       	push	r19
     6d2:	2f 93       	push	r18
     6d4:	9f 93       	push	r25
     6d6:	8f 93       	push	r24
     6d8:	20 e0       	ldi	r18, 0x00	; 0
     6da:	30 e0       	ldi	r19, 0x00	; 0
     6dc:	48 ec       	ldi	r20, 0xC8	; 200
     6de:	51 e4       	ldi	r21, 0x41	; 65
     6e0:	60 91 e5 01 	lds	r22, 0x01E5	; 0x8001e5 <totalInsolation.2324>
     6e4:	70 91 e6 01 	lds	r23, 0x01E6	; 0x8001e6 <totalInsolation.2324+0x1>
     6e8:	80 91 e7 01 	lds	r24, 0x01E7	; 0x8001e7 <totalInsolation.2324+0x2>
     6ec:	90 91 e8 01 	lds	r25, 0x01E8	; 0x8001e8 <totalInsolation.2324+0x3>
     6f0:	0e 94 d3 08 	call	0x11a6	; 0x11a6 <__divsf3>
     6f4:	9f 93       	push	r25
     6f6:	8f 93       	push	r24
     6f8:	7f 93       	push	r23
     6fa:	6f 93       	push	r22
     6fc:	20 e0       	ldi	r18, 0x00	; 0
     6fe:	30 e0       	ldi	r19, 0x00	; 0
     700:	48 ec       	ldi	r20, 0xC8	; 200
     702:	51 e4       	ldi	r21, 0x41	; 65
     704:	60 91 e9 01 	lds	r22, 0x01E9	; 0x8001e9 <totalTemp.2325>
     708:	70 91 ea 01 	lds	r23, 0x01EA	; 0x8001ea <totalTemp.2325+0x1>
     70c:	80 91 eb 01 	lds	r24, 0x01EB	; 0x8001eb <totalTemp.2325+0x2>
     710:	90 91 ec 01 	lds	r25, 0x01EC	; 0x8001ec <totalTemp.2325+0x3>
     714:	0e 94 d3 08 	call	0x11a6	; 0x11a6 <__divsf3>
     718:	9f 93       	push	r25
     71a:	8f 93       	push	r24
     71c:	7f 93       	push	r23
     71e:	6f 93       	push	r22
     720:	20 e0       	ldi	r18, 0x00	; 0
     722:	30 e0       	ldi	r19, 0x00	; 0
     724:	48 ec       	ldi	r20, 0xC8	; 200
     726:	51 e4       	ldi	r21, 0x41	; 65
     728:	60 91 e1 01 	lds	r22, 0x01E1	; 0x8001e1 <totalWind.2323>
     72c:	70 91 e2 01 	lds	r23, 0x01E2	; 0x8001e2 <totalWind.2323+0x1>
     730:	80 91 e3 01 	lds	r24, 0x01E3	; 0x8001e3 <totalWind.2323+0x2>
     734:	90 91 e4 01 	lds	r25, 0x01E4	; 0x8001e4 <totalWind.2323+0x3>
     738:	0e 94 d3 08 	call	0x11a6	; 0x11a6 <__divsf3>
     73c:	9f 93       	push	r25
     73e:	8f 93       	push	r24
     740:	7f 93       	push	r23
     742:	6f 93       	push	r22
     744:	ff 92       	push	r15
     746:	ef 92       	push	r14
     748:	1f 93       	push	r17
     74a:	0f 93       	push	r16
     74c:	83 e4       	ldi	r24, 0x43	; 67
     74e:	91 e0       	ldi	r25, 0x01	; 1
     750:	9f 93       	push	r25
     752:	8f 93       	push	r24
     754:	cf 93       	push	r28
     756:	df 93       	push	r29
     758:	0e 94 d4 12 	call	0x25a8	; 0x25a8 <sprintf>
				data->date, data->time, totalWind/25.0, totalTemp/25.0,
				totalInsolation/25.0, data->coords[1].bearing,
				data->coords[1].coord, data->coords[0].bearing,
				data->coords[0].coord);
		mem_cpy(text);
     75c:	8d b7       	in	r24, 0x3d	; 61
     75e:	9e b7       	in	r25, 0x3e	; 62
     760:	8a 96       	adiw	r24, 0x2a	; 42
     762:	0f b6       	in	r0, 0x3f	; 63
     764:	f8 94       	cli
     766:	9e bf       	out	0x3e, r25	; 62
     768:	0f be       	out	0x3f, r0	; 63
     76a:	8d bf       	out	0x3d, r24	; 61
     76c:	8d 2f       	mov	r24, r29
     76e:	9c 2f       	mov	r25, r28
     770:	0e 94 18 02 	call	0x430	; 0x430 <mem_cpy>
		mem_read((saved % 10) - 1, text);
     774:	80 91 f9 01 	lds	r24, 0x01F9	; 0x8001f9 <saved>
     778:	90 91 fa 01 	lds	r25, 0x01FA	; 0x8001fa <saved+0x1>
     77c:	0a e0       	ldi	r16, 0x0A	; 10
     77e:	10 e0       	ldi	r17, 0x00	; 0
     780:	b8 01       	movw	r22, r16
     782:	0e 94 bc 0d 	call	0x1b78	; 0x1b78 <__divmodhi4>
     786:	6d 2f       	mov	r22, r29
     788:	7c 2f       	mov	r23, r28
     78a:	01 97       	sbiw	r24, 0x01	; 1
     78c:	0e 94 89 02 	call	0x512	; 0x512 <mem_read>
		printf("\nRECALLED: %s from memory at SAVE POINT %d\n", text, (saved % 10));
     790:	80 91 f9 01 	lds	r24, 0x01F9	; 0x8001f9 <saved>
     794:	90 91 fa 01 	lds	r25, 0x01FA	; 0x8001fa <saved+0x1>
     798:	b8 01       	movw	r22, r16
     79a:	0e 94 bc 0d 	call	0x1b78	; 0x1b78 <__divmodhi4>
     79e:	9f 93       	push	r25
     7a0:	8f 93       	push	r24
     7a2:	cf 93       	push	r28
     7a4:	df 93       	push	r29
     7a6:	87 e7       	ldi	r24, 0x77	; 119
     7a8:	91 e0       	ldi	r25, 0x01	; 1
     7aa:	9f 93       	push	r25
     7ac:	8f 93       	push	r24
     7ae:	0e 94 be 12 	call	0x257c	; 0x257c <printf>
		free(text);
     7b2:	8d 2f       	mov	r24, r29
     7b4:	9c 2f       	mov	r25, r28
     7b6:	0e 94 f1 0e 	call	0x1de2	; 0x1de2 <free>
     7ba:	0f 90       	pop	r0
     7bc:	0f 90       	pop	r0
     7be:	0f 90       	pop	r0
     7c0:	0f 90       	pop	r0
     7c2:	0f 90       	pop	r0
     7c4:	0f 90       	pop	r0
	}
}
     7c6:	df 91       	pop	r29
     7c8:	cf 91       	pop	r28
     7ca:	1f 91       	pop	r17
     7cc:	0f 91       	pop	r16
     7ce:	ff 90       	pop	r15
     7d0:	ef 90       	pop	r14
     7d2:	08 95       	ret

000007d4 <check_standby>:
void check_standby() {
	static int i;
	i++;
     7d4:	80 91 df 01 	lds	r24, 0x01DF	; 0x8001df <i.2329>
     7d8:	90 91 e0 01 	lds	r25, 0x01E0	; 0x8001e0 <i.2329+0x1>
     7dc:	01 96       	adiw	r24, 0x01	; 1
     7de:	90 93 e0 01 	sts	0x01E0, r25	; 0x8001e0 <i.2329+0x1>
     7e2:	80 93 df 01 	sts	0x01DF, r24	; 0x8001df <i.2329>
	if(PINE & (1 << PINE2)) {
     7e6:	62 9b       	sbis	0x0c, 2	; 12
     7e8:	22 c0       	rjmp	.+68     	; 0x82e <check_standby+0x5a>
		if(i < 3) {
     7ea:	03 97       	sbiw	r24, 0x03	; 3
     7ec:	04 f1       	brlt	.+64     	; 0x82e <check_standby+0x5a>
			return;
		}
		i = 0;
     7ee:	10 92 e0 01 	sts	0x01E0, r1	; 0x8001e0 <i.2329+0x1>
     7f2:	10 92 df 01 	sts	0x01DF, r1	; 0x8001df <i.2329>
		if(bit_is_set(SREG, SREG_I)) {
     7f6:	0f b6       	in	r0, 0x3f	; 63
     7f8:	07 fe       	sbrs	r0, 7
     7fa:	0f c0       	rjmp	.+30     	; 0x81a <check_standby+0x46>
			cli();
     7fc:	f8 94       	cli
			PORTE &= ~1;
     7fe:	70 98       	cbi	0x0e, 0	; 14
			PORTD &= ~((1 << 4) | (1 << 3));
     800:	8b b1       	in	r24, 0x0b	; 11
     802:	87 7e       	andi	r24, 0xE7	; 231
     804:	8b b9       	out	0x0b, r24	; 11
			PORTC &= ~(1 << 3);
     806:	43 98       	cbi	0x08, 3	; 8
			PORTD &= ~(1 << 2);
     808:	5a 98       	cbi	0x0b, 2	; 11
			UCSR0B ^= (1<<RXEN0)|(1<<TXEN0)|(1<<RXCIE0);
     80a:	e1 ec       	ldi	r30, 0xC1	; 193
     80c:	f0 e0       	ldi	r31, 0x00	; 0
     80e:	90 81       	ld	r25, Z
     810:	88 e9       	ldi	r24, 0x98	; 152
     812:	89 27       	eor	r24, r25
     814:	80 83       	st	Z, r24
			DDRB &= ~1;
     816:	20 98       	cbi	0x04, 0	; 4
     818:	08 95       	ret
		} else {
			sei();
     81a:	78 94       	sei
			PORTC |= (1 << 3);
     81c:	43 9a       	sbi	0x08, 3	; 8
			PORTD |= (1 << 2);
     81e:	5a 9a       	sbi	0x0b, 2	; 11
			UCSR0B ^= (1<<RXEN0)|(1<<TXEN0)|(1<<RXCIE0);
     820:	e1 ec       	ldi	r30, 0xC1	; 193
     822:	f0 e0       	ldi	r31, 0x00	; 0
     824:	90 81       	ld	r25, Z
     826:	88 e9       	ldi	r24, 0x98	; 152
     828:	89 27       	eor	r24, r25
     82a:	80 83       	st	Z, r24
			DDRB |= 1;
     82c:	20 9a       	sbi	0x04, 0	; 4
     82e:	08 95       	ret

00000830 <main>:
		}
	}
}

int main (void)
{
     830:	cf 93       	push	r28
     832:	df 93       	push	r29
     834:	cd b7       	in	r28, 0x3d	; 61
     836:	de b7       	in	r29, 0x3e	; 62
     838:	2e 97       	sbiw	r28, 0x0e	; 14
     83a:	0f b6       	in	r0, 0x3f	; 63
     83c:	f8 94       	cli
     83e:	de bf       	out	0x3e, r29	; 62
     840:	0f be       	out	0x3f, r0	; 63
     842:	cd bf       	out	0x3d, r28	; 61
	//retrieve number of saves from EEPROM
	saved = EEPROM_read(0x1FF);
     844:	8f ef       	ldi	r24, 0xFF	; 255
     846:	91 e0       	ldi	r25, 0x01	; 1
     848:	0e 94 11 02 	call	0x422	; 0x422 <EEPROM_read>
     84c:	28 2f       	mov	r18, r24
     84e:	30 e0       	ldi	r19, 0x00	; 0
     850:	30 93 fa 01 	sts	0x01FA, r19	; 0x8001fa <saved+0x1>
     854:	20 93 f9 01 	sts	0x01F9, r18	; 0x8001f9 <saved>
	if(saved > 19 || saved < 0) {
     858:	84 31       	cpi	r24, 0x14	; 20
     85a:	20 f0       	brcs	.+8      	; 0x864 <main+0x34>
		saved = 0;
     85c:	10 92 fa 01 	sts	0x01FA, r1	; 0x8001fa <saved+0x1>
     860:	10 92 f9 01 	sts	0x01F9, r1	; 0x8001f9 <saved>
	}
	//activating interrupts for wind speed meter.
	DDRB &= ~(1<< PORTB2);
     864:	22 98       	cbi	0x04, 2	; 4
	PCICR |= (1 << PCIE0);
     866:	e8 e6       	ldi	r30, 0x68	; 104
     868:	f0 e0       	ldi	r31, 0x00	; 0
     86a:	80 81       	ld	r24, Z
     86c:	81 60       	ori	r24, 0x01	; 1
     86e:	80 83       	st	Z, r24
	PCMSK0 |= (1 << PCINT2);
     870:	eb e6       	ldi	r30, 0x6B	; 107
     872:	f0 e0       	ldi	r31, 0x00	; 0
     874:	80 81       	ld	r24, Z
     876:	84 60       	ori	r24, 0x04	; 4
     878:	80 83       	st	Z, r24
	
	ADCSRA |= (1 << ADPS2) | (1 << ADPS1) | (1 << ADPS0); // Set ADC prescalar to 128 - 125KHz sample rate @ 16MHz
     87a:	ea e7       	ldi	r30, 0x7A	; 122
     87c:	f0 e0       	ldi	r31, 0x00	; 0
     87e:	80 81       	ld	r24, Z
     880:	87 60       	ori	r24, 0x07	; 7
     882:	80 83       	st	Z, r24
	ADCSRA |= (1 << ADEN);  // Enable ADC
     884:	80 81       	ld	r24, Z
     886:	80 68       	ori	r24, 0x80	; 128
     888:	80 83       	st	Z, r24
	ADCSRA |= (1 << ADSC);  // Start A2D Conversions
     88a:	80 81       	ld	r24, Z
     88c:	80 64       	ori	r24, 0x40	; 64
     88e:	80 83       	st	Z, r24
	
	FILE uart_str = FDEV_SETUP_STREAM(USART0SendByte, NULL, _FDEV_SETUP_WRITE);
     890:	fe 01       	movw	r30, r28
     892:	31 96       	adiw	r30, 0x01	; 1
     894:	8e e0       	ldi	r24, 0x0E	; 14
     896:	df 01       	movw	r26, r30
     898:	1d 92       	st	X+, r1
     89a:	8a 95       	dec	r24
     89c:	e9 f7       	brne	.-6      	; 0x898 <main+0x68>
     89e:	82 e0       	ldi	r24, 0x02	; 2
     8a0:	8c 83       	std	Y+4, r24	; 0x04
     8a2:	88 e1       	ldi	r24, 0x18	; 24
     8a4:	91 e0       	ldi	r25, 0x01	; 1
     8a6:	9a 87       	std	Y+10, r25	; 0x0a
     8a8:	89 87       	std	Y+9, r24	; 0x09
	stdout = &uart_str;
     8aa:	f0 93 03 02 	sts	0x0203, r31	; 0x800203 <__iob+0x3>
     8ae:	e0 93 02 02 	sts	0x0202, r30	; 0x800202 <__iob+0x2>
	
	DDRD |= (1 << 2);
     8b2:	52 9a       	sbi	0x0a, 2	; 10
	DDRC |= (1 << 3);
     8b4:	3b 9a       	sbi	0x07, 3	; 7
	PORTC |= (1 << 3);
     8b6:	43 9a       	sbi	0x08, 3	; 8
	PORTD |= (1 << 2);
     8b8:	5a 9a       	sbi	0x0b, 2	; 11
	data = malloc(sizeof(Data));
     8ba:	84 e1       	ldi	r24, 0x14	; 20
     8bc:	90 e0       	ldi	r25, 0x00	; 0
     8be:	0e 94 5c 0e 	call	0x1cb8	; 0x1cb8 <malloc>
     8c2:	8c 01       	movw	r16, r24
     8c4:	90 93 f6 01 	sts	0x01F6, r25	; 0x8001f6 <data+0x1>
     8c8:	80 93 f5 01 	sts	0x01F5, r24	; 0x8001f5 <data>
	data->date = malloc(7);
     8cc:	87 e0       	ldi	r24, 0x07	; 7
     8ce:	90 e0       	ldi	r25, 0x00	; 0
     8d0:	0e 94 5c 0e 	call	0x1cb8	; 0x1cb8 <malloc>
     8d4:	f8 01       	movw	r30, r16
     8d6:	93 83       	std	Z+3, r25	; 0x03
     8d8:	82 83       	std	Z+2, r24	; 0x02
	data->time = malloc(10);
     8da:	8a e0       	ldi	r24, 0x0A	; 10
     8dc:	90 e0       	ldi	r25, 0x00	; 0
     8de:	0e 94 5c 0e 	call	0x1cb8	; 0x1cb8 <malloc>
     8e2:	d8 01       	movw	r26, r16
     8e4:	11 96       	adiw	r26, 0x01	; 1
     8e6:	9c 93       	st	X, r25
     8e8:	8e 93       	st	-X, r24
	data->temp = malloc(5);
     8ea:	85 e0       	ldi	r24, 0x05	; 5
     8ec:	90 e0       	ldi	r25, 0x00	; 0
     8ee:	0e 94 5c 0e 	call	0x1cb8	; 0x1cb8 <malloc>
     8f2:	f8 01       	movw	r30, r16
     8f4:	95 83       	std	Z+5, r25	; 0x05
     8f6:	84 83       	std	Z+4, r24	; 0x04
	data->wind = malloc(5);
     8f8:	85 e0       	ldi	r24, 0x05	; 5
     8fa:	90 e0       	ldi	r25, 0x00	; 0
     8fc:	0e 94 5c 0e 	call	0x1cb8	; 0x1cb8 <malloc>
     900:	d8 01       	movw	r26, r16
     902:	17 96       	adiw	r26, 0x07	; 7
     904:	9c 93       	st	X, r25
     906:	8e 93       	st	-X, r24
     908:	16 97       	sbiw	r26, 0x06	; 6
	data->insolation = malloc(5);
     90a:	85 e0       	ldi	r24, 0x05	; 5
     90c:	90 e0       	ldi	r25, 0x00	; 0
     90e:	0e 94 5c 0e 	call	0x1cb8	; 0x1cb8 <malloc>
     912:	f8 01       	movw	r30, r16
     914:	93 87       	std	Z+11, r25	; 0x0b
     916:	82 87       	std	Z+10, r24	; 0x0a
	strcpy(data->wind, "00.0");
     918:	a6 81       	ldd	r26, Z+6	; 0x06
     91a:	b7 81       	ldd	r27, Z+7	; 0x07
     91c:	85 e0       	ldi	r24, 0x05	; 5
     91e:	e3 ea       	ldi	r30, 0xA3	; 163
     920:	f1 e0       	ldi	r31, 0x01	; 1
     922:	01 90       	ld	r0, Z+
     924:	0d 92       	st	X+, r0
     926:	8a 95       	dec	r24
     928:	e1 f7       	brne	.-8      	; 0x922 <__stack+0x23>
	
	//Initialize USART0
	USART0Init();
     92a:	0e 94 20 01 	call	0x240	; 0x240 <USART0Init>

	for(int i = 0; i < 2; i++) {
		data->coords[i].coord = malloc(11);
     92e:	00 91 f5 01 	lds	r16, 0x01F5	; 0x8001f5 <data>
     932:	10 91 f6 01 	lds	r17, 0x01F6	; 0x8001f6 <data+0x1>
     936:	8b e0       	ldi	r24, 0x0B	; 11
     938:	90 e0       	ldi	r25, 0x00	; 0
     93a:	0e 94 5c 0e 	call	0x1cb8	; 0x1cb8 <malloc>
     93e:	d8 01       	movw	r26, r16
     940:	1d 96       	adiw	r26, 0x0d	; 13
     942:	9c 93       	st	X, r25
     944:	8e 93       	st	-X, r24
     946:	1c 97       	sbiw	r26, 0x0c	; 12
		data->coords[i].bearing = malloc(2);
     948:	82 e0       	ldi	r24, 0x02	; 2
     94a:	90 e0       	ldi	r25, 0x00	; 0
     94c:	0e 94 5c 0e 	call	0x1cb8	; 0x1cb8 <malloc>
     950:	f8 01       	movw	r30, r16
     952:	97 87       	std	Z+15, r25	; 0x0f
     954:	86 87       	std	Z+14, r24	; 0x0e
	
	//Initialize USART0
	USART0Init();

	for(int i = 0; i < 2; i++) {
		data->coords[i].coord = malloc(11);
     956:	00 91 f5 01 	lds	r16, 0x01F5	; 0x8001f5 <data>
     95a:	10 91 f6 01 	lds	r17, 0x01F6	; 0x8001f6 <data+0x1>
     95e:	8b e0       	ldi	r24, 0x0B	; 11
     960:	90 e0       	ldi	r25, 0x00	; 0
     962:	0e 94 5c 0e 	call	0x1cb8	; 0x1cb8 <malloc>
     966:	d8 01       	movw	r26, r16
     968:	51 96       	adiw	r26, 0x11	; 17
     96a:	9c 93       	st	X, r25
     96c:	8e 93       	st	-X, r24
     96e:	50 97       	sbiw	r26, 0x10	; 16
		data->coords[i].bearing = malloc(2);
     970:	82 e0       	ldi	r24, 0x02	; 2
     972:	90 e0       	ldi	r25, 0x00	; 0
     974:	0e 94 5c 0e 	call	0x1cb8	; 0x1cb8 <malloc>
     978:	f8 01       	movw	r30, r16
     97a:	93 8b       	std	Z+19, r25	; 0x13
     97c:	82 8b       	std	Z+18, r24	; 0x12
	}
	
	init_timer0(data);
     97e:	80 91 f5 01 	lds	r24, 0x01F5	; 0x8001f5 <data>
     982:	90 91 f6 01 	lds	r25, 0x01F6	; 0x8001f6 <data+0x1>
     986:	0e 94 a5 06 	call	0xd4a	; 0xd4a <init_timer0>
	while (1)  // Loop Forever
	{
		_delay_ms(150);
		if((PINB & (1<<PINB6)) && !recording) {
			recording = 1;
     98a:	22 24       	eor	r2, r2
     98c:	23 94       	inc	r2
     98e:	31 2c       	mov	r3, r1
		}
		check_standby();
		sprintf(data->temp, "%03.0f",(66*GetADCValue(0))/1023.0f - 10.0f);
     990:	0f 2e       	mov	r0, r31
     992:	f2 e4       	ldi	r31, 0x42	; 66
     994:	9f 2e       	mov	r9, r31
     996:	f0 2d       	mov	r31, r0
     998:	0f 2e       	mov	r0, r31
     99a:	f8 ea       	ldi	r31, 0xA8	; 168
     99c:	af 2e       	mov	r10, r31
     99e:	f1 e0       	ldi	r31, 0x01	; 1
     9a0:	bf 2e       	mov	r11, r31
     9a2:	f0 2d       	mov	r31, r0
		sprintf(data->insolation, "%03.0f", (float)GetADCValue(1) * 1.1);
		printf("%.6s.%.6s,%s,%s,%s,%.1s%.10s,%.1s%.9s\r\n",
     9a4:	0f 2e       	mov	r0, r31
     9a6:	ff ea       	ldi	r31, 0xAF	; 175
     9a8:	6f 2e       	mov	r6, r31
     9aa:	f1 e0       	ldi	r31, 0x01	; 1
     9ac:	7f 2e       	mov	r7, r31
     9ae:	f0 2d       	mov	r31, r0
			gps_record();
		}
		if(!(data->wind[0] == '0' && data->wind[1] == '0') &&
				(get_clock_ticks() - previousTicks)
				> 8000/strtol(data->wind, NULL, 10)) {
			sprintf(data->wind, "%03.1f",
     9b0:	0f 2e       	mov	r0, r31
     9b2:	f7 ed       	ldi	r31, 0xD7	; 215
     9b4:	4f 2e       	mov	r4, r31
     9b6:	f1 e0       	ldi	r31, 0x01	; 1
     9b8:	5f 2e       	mov	r5, r31
     9ba:	f0 2d       	mov	r31, r0
	#else
		//round up by default
		__ticks_dc = (uint32_t)(ceil(fabs(__tmp)));
	#endif

	__builtin_avr_delay_cycles(__ticks_dc);
     9bc:	ff e7       	ldi	r31, 0x7F	; 127
     9be:	29 ea       	ldi	r18, 0xA9	; 169
     9c0:	33 e0       	ldi	r19, 0x03	; 3
     9c2:	f1 50       	subi	r31, 0x01	; 1
     9c4:	20 40       	sbci	r18, 0x00	; 0
     9c6:	30 40       	sbci	r19, 0x00	; 0
     9c8:	e1 f7       	brne	.-8      	; 0x9c2 <__stack+0xc3>
     9ca:	00 c0       	rjmp	.+0      	; 0x9cc <__stack+0xcd>
     9cc:	00 00       	nop
	
	init_timer0(data);
	while (1)  // Loop Forever
	{
		_delay_ms(150);
		if((PINB & (1<<PINB6)) && !recording) {
     9ce:	1e 9b       	sbis	0x03, 6	; 3
     9d0:	0a c0       	rjmp	.+20     	; 0x9e6 <__stack+0xe7>
     9d2:	80 91 f7 01 	lds	r24, 0x01F7	; 0x8001f7 <recording>
     9d6:	90 91 f8 01 	lds	r25, 0x01F8	; 0x8001f8 <recording+0x1>
     9da:	89 2b       	or	r24, r25
     9dc:	21 f4       	brne	.+8      	; 0x9e6 <__stack+0xe7>
			recording = 1;
     9de:	30 92 f8 01 	sts	0x01F8, r3	; 0x8001f8 <recording+0x1>
     9e2:	20 92 f7 01 	sts	0x01F7, r2	; 0x8001f7 <recording>
		}
		check_standby();
     9e6:	0e 94 ea 03 	call	0x7d4	; 0x7d4 <check_standby>
		sprintf(data->temp, "%03.0f",(66*GetADCValue(0))/1023.0f - 10.0f);
     9ea:	80 e0       	ldi	r24, 0x00	; 0
     9ec:	0e 94 3c 01 	call	0x278	; 0x278 <GetADCValue>
     9f0:	e0 91 f5 01 	lds	r30, 0x01F5	; 0x8001f5 <data>
     9f4:	f0 91 f6 01 	lds	r31, 0x01F6	; 0x8001f6 <data+0x1>
     9f8:	04 81       	ldd	r16, Z+4	; 0x04
     9fa:	15 81       	ldd	r17, Z+5	; 0x05
     9fc:	dc 01       	movw	r26, r24
     9fe:	9a 9e       	mul	r9, r26
     a00:	c0 01       	movw	r24, r0
     a02:	9b 9e       	mul	r9, r27
     a04:	90 0d       	add	r25, r0
     a06:	11 24       	eor	r1, r1
     a08:	bc 01       	movw	r22, r24
     a0a:	80 e0       	ldi	r24, 0x00	; 0
     a0c:	90 e0       	ldi	r25, 0x00	; 0
     a0e:	0e 94 45 09 	call	0x128a	; 0x128a <__floatunsisf>
     a12:	20 e0       	ldi	r18, 0x00	; 0
     a14:	30 ec       	ldi	r19, 0xC0	; 192
     a16:	4f e7       	ldi	r20, 0x7F	; 127
     a18:	54 e4       	ldi	r21, 0x44	; 68
     a1a:	0e 94 d3 08 	call	0x11a6	; 0x11a6 <__divsf3>
     a1e:	20 e0       	ldi	r18, 0x00	; 0
     a20:	30 e0       	ldi	r19, 0x00	; 0
     a22:	40 e2       	ldi	r20, 0x20	; 32
     a24:	51 e4       	ldi	r21, 0x41	; 65
     a26:	0e 94 66 08 	call	0x10cc	; 0x10cc <__subsf3>
     a2a:	9f 93       	push	r25
     a2c:	8f 93       	push	r24
     a2e:	7f 93       	push	r23
     a30:	6f 93       	push	r22
     a32:	bf 92       	push	r11
     a34:	af 92       	push	r10
     a36:	1f 93       	push	r17
     a38:	0f 93       	push	r16
     a3a:	0e 94 d4 12 	call	0x25a8	; 0x25a8 <sprintf>
		sprintf(data->insolation, "%03.0f", (float)GetADCValue(1) * 1.1);
     a3e:	81 e0       	ldi	r24, 0x01	; 1
     a40:	0e 94 3c 01 	call	0x278	; 0x278 <GetADCValue>
     a44:	e0 91 f5 01 	lds	r30, 0x01F5	; 0x8001f5 <data>
     a48:	f0 91 f6 01 	lds	r31, 0x01F6	; 0x8001f6 <data+0x1>
     a4c:	02 85       	ldd	r16, Z+10	; 0x0a
     a4e:	13 85       	ldd	r17, Z+11	; 0x0b
     a50:	bc 01       	movw	r22, r24
     a52:	80 e0       	ldi	r24, 0x00	; 0
     a54:	90 e0       	ldi	r25, 0x00	; 0
     a56:	0e 94 45 09 	call	0x128a	; 0x128a <__floatunsisf>
     a5a:	2d ec       	ldi	r18, 0xCD	; 205
     a5c:	3c ec       	ldi	r19, 0xCC	; 204
     a5e:	4c e8       	ldi	r20, 0x8C	; 140
     a60:	5f e3       	ldi	r21, 0x3F	; 63
     a62:	0e 94 d3 09 	call	0x13a6	; 0x13a6 <__mulsf3>
     a66:	9f 93       	push	r25
     a68:	8f 93       	push	r24
     a6a:	7f 93       	push	r23
     a6c:	6f 93       	push	r22
     a6e:	bf 92       	push	r11
     a70:	af 92       	push	r10
     a72:	1f 93       	push	r17
     a74:	0f 93       	push	r16
     a76:	0e 94 d4 12 	call	0x25a8	; 0x25a8 <sprintf>
		printf("%.6s.%.6s,%s,%s,%s,%.1s%.10s,%.1s%.9s\r\n",
				data->date, data->time, data->wind, data->temp,
				data->insolation, data->coords[1].bearing,
				data->coords[1].coord, data->coords[0].bearing,
				data->coords[0].coord);
     a7a:	e0 91 f5 01 	lds	r30, 0x01F5	; 0x8001f5 <data>
     a7e:	f0 91 f6 01 	lds	r31, 0x01F6	; 0x8001f6 <data+0x1>
			recording = 1;
		}
		check_standby();
		sprintf(data->temp, "%03.0f",(66*GetADCValue(0))/1023.0f - 10.0f);
		sprintf(data->insolation, "%03.0f", (float)GetADCValue(1) * 1.1);
		printf("%.6s.%.6s,%s,%s,%s,%.1s%.10s,%.1s%.9s\r\n",
     a82:	a4 85       	ldd	r26, Z+12	; 0x0c
     a84:	b5 85       	ldd	r27, Z+13	; 0x0d
     a86:	66 85       	ldd	r22, Z+14	; 0x0e
     a88:	77 85       	ldd	r23, Z+15	; 0x0f
     a8a:	40 89       	ldd	r20, Z+16	; 0x10
     a8c:	51 89       	ldd	r21, Z+17	; 0x11
     a8e:	22 89       	ldd	r18, Z+18	; 0x12
     a90:	33 89       	ldd	r19, Z+19	; 0x13
     a92:	82 85       	ldd	r24, Z+10	; 0x0a
     a94:	93 85       	ldd	r25, Z+11	; 0x0b
     a96:	04 81       	ldd	r16, Z+4	; 0x04
     a98:	15 81       	ldd	r17, Z+5	; 0x05
     a9a:	e6 80       	ldd	r14, Z+6	; 0x06
     a9c:	f7 80       	ldd	r15, Z+7	; 0x07
     a9e:	c0 80       	ld	r12, Z
     aa0:	d1 80       	ldd	r13, Z+1	; 0x01
     aa2:	02 80       	ldd	r0, Z+2	; 0x02
     aa4:	f3 81       	ldd	r31, Z+3	; 0x03
     aa6:	e0 2d       	mov	r30, r0
     aa8:	bf 93       	push	r27
     aaa:	af 93       	push	r26
     aac:	7f 93       	push	r23
     aae:	6f 93       	push	r22
     ab0:	5f 93       	push	r21
     ab2:	4f 93       	push	r20
     ab4:	3f 93       	push	r19
     ab6:	2f 93       	push	r18
     ab8:	9f 93       	push	r25
     aba:	8f 93       	push	r24
     abc:	1f 93       	push	r17
     abe:	0f 93       	push	r16
     ac0:	ff 92       	push	r15
     ac2:	ef 92       	push	r14
     ac4:	df 92       	push	r13
     ac6:	cf 92       	push	r12
     ac8:	ff 93       	push	r31
     aca:	ef 93       	push	r30
     acc:	7f 92       	push	r7
     ace:	6f 92       	push	r6
     ad0:	0e 94 be 12 	call	0x257c	; 0x257c <printf>
				data->date, data->time, data->wind, data->temp,
				data->insolation, data->coords[1].bearing,
				data->coords[1].coord, data->coords[0].bearing,
				data->coords[0].coord);
		data->displayPos = 0;
     ad4:	e0 91 f5 01 	lds	r30, 0x01F5	; 0x8001f5 <data>
     ad8:	f0 91 f6 01 	lds	r31, 0x01F6	; 0x8001f6 <data+0x1>
     adc:	11 86       	std	Z+9, r1	; 0x09
     ade:	10 86       	std	Z+8, r1	; 0x08
		if(recording) {
     ae0:	0f b6       	in	r0, 0x3f	; 63
     ae2:	f8 94       	cli
     ae4:	de bf       	out	0x3e, r29	; 62
     ae6:	0f be       	out	0x3f, r0	; 63
     ae8:	cd bf       	out	0x3d, r28	; 61
     aea:	80 91 f7 01 	lds	r24, 0x01F7	; 0x8001f7 <recording>
     aee:	90 91 f8 01 	lds	r25, 0x01F8	; 0x8001f8 <recording+0x1>
     af2:	89 2b       	or	r24, r25
     af4:	11 f0       	breq	.+4      	; 0xafa <__stack+0x1fb>
			gps_record();
     af6:	0e 94 b7 02 	call	0x56e	; 0x56e <gps_record>
		}
		if(!(data->wind[0] == '0' && data->wind[1] == '0') &&
     afa:	e0 91 f5 01 	lds	r30, 0x01F5	; 0x8001f5 <data>
     afe:	f0 91 f6 01 	lds	r31, 0x01F6	; 0x8001f6 <data+0x1>
     b02:	a6 81       	ldd	r26, Z+6	; 0x06
     b04:	b7 81       	ldd	r27, Z+7	; 0x07
     b06:	8c 91       	ld	r24, X
     b08:	80 33       	cpi	r24, 0x30	; 48
     b0a:	39 f4       	brne	.+14     	; 0xb1a <__stack+0x21b>
     b0c:	06 80       	ldd	r0, Z+6	; 0x06
     b0e:	f7 81       	ldd	r31, Z+7	; 0x07
     b10:	e0 2d       	mov	r30, r0
     b12:	81 81       	ldd	r24, Z+1	; 0x01
     b14:	80 33       	cpi	r24, 0x30	; 48
     b16:	09 f4       	brne	.+2      	; 0xb1a <__stack+0x21b>
     b18:	51 cf       	rjmp	.-350    	; 0x9bc <__stack+0xbd>
				(get_clock_ticks() - previousTicks)
     b1a:	0e 94 c8 07 	call	0xf90	; 0xf90 <get_clock_ticks>
     b1e:	00 91 f1 01 	lds	r16, 0x01F1	; 0x8001f1 <previousTicks>
     b22:	10 91 f2 01 	lds	r17, 0x01F2	; 0x8001f2 <previousTicks+0x1>
     b26:	20 91 f3 01 	lds	r18, 0x01F3	; 0x8001f3 <previousTicks+0x2>
     b2a:	30 91 f4 01 	lds	r19, 0x01F4	; 0x8001f4 <previousTicks+0x3>
     b2e:	6b 01       	movw	r12, r22
     b30:	7c 01       	movw	r14, r24
     b32:	c0 1a       	sub	r12, r16
     b34:	d1 0a       	sbc	r13, r17
     b36:	e2 0a       	sbc	r14, r18
     b38:	f3 0a       	sbc	r15, r19
				> 8000/strtol(data->wind, NULL, 10)) {
     b3a:	e0 91 f5 01 	lds	r30, 0x01F5	; 0x8001f5 <data>
     b3e:	f0 91 f6 01 	lds	r31, 0x01F6	; 0x8001f6 <data+0x1>
     b42:	86 81       	ldd	r24, Z+6	; 0x06
     b44:	97 81       	ldd	r25, Z+7	; 0x07
     b46:	4a e0       	ldi	r20, 0x0A	; 10
     b48:	50 e0       	ldi	r21, 0x00	; 0
     b4a:	60 e0       	ldi	r22, 0x00	; 0
     b4c:	70 e0       	ldi	r23, 0x00	; 0
     b4e:	0e 94 53 10 	call	0x20a6	; 0x20a6 <strtol>
     b52:	9b 01       	movw	r18, r22
     b54:	ac 01       	movw	r20, r24
     b56:	60 e4       	ldi	r22, 0x40	; 64
     b58:	7f e1       	ldi	r23, 0x1F	; 31
     b5a:	80 e0       	ldi	r24, 0x00	; 0
     b5c:	90 e0       	ldi	r25, 0x00	; 0
     b5e:	0e 94 f2 0d 	call	0x1be4	; 0x1be4 <__divmodsi4>
				data->coords[0].coord);
		data->displayPos = 0;
		if(recording) {
			gps_record();
		}
		if(!(data->wind[0] == '0' && data->wind[1] == '0') &&
     b62:	2c 15       	cp	r18, r12
     b64:	3d 05       	cpc	r19, r13
     b66:	4e 05       	cpc	r20, r14
     b68:	5f 05       	cpc	r21, r15
     b6a:	08 f0       	brcs	.+2      	; 0xb6e <__stack+0x26f>
     b6c:	27 cf       	rjmp	.-434    	; 0x9bc <__stack+0xbd>
				(get_clock_ticks() - previousTicks)
				> 8000/strtol(data->wind, NULL, 10)) {
			sprintf(data->wind, "%03.1f",
			8000.0/(get_clock_ticks() - previousTicks));
     b6e:	0e 94 c8 07 	call	0xf90	; 0xf90 <get_clock_ticks>
			gps_record();
		}
		if(!(data->wind[0] == '0' && data->wind[1] == '0') &&
				(get_clock_ticks() - previousTicks)
				> 8000/strtol(data->wind, NULL, 10)) {
			sprintf(data->wind, "%03.1f",
     b72:	e0 91 f5 01 	lds	r30, 0x01F5	; 0x8001f5 <data>
     b76:	f0 91 f6 01 	lds	r31, 0x01F6	; 0x8001f6 <data+0x1>
     b7a:	06 81       	ldd	r16, Z+6	; 0x06
     b7c:	17 81       	ldd	r17, Z+7	; 0x07
			8000.0/(get_clock_ticks() - previousTicks));
     b7e:	c0 90 f1 01 	lds	r12, 0x01F1	; 0x8001f1 <previousTicks>
     b82:	d0 90 f2 01 	lds	r13, 0x01F2	; 0x8001f2 <previousTicks+0x1>
     b86:	e0 90 f3 01 	lds	r14, 0x01F3	; 0x8001f3 <previousTicks+0x2>
     b8a:	f0 90 f4 01 	lds	r15, 0x01F4	; 0x8001f4 <previousTicks+0x3>
     b8e:	6c 19       	sub	r22, r12
     b90:	7d 09       	sbc	r23, r13
     b92:	8e 09       	sbc	r24, r14
     b94:	9f 09       	sbc	r25, r15
			gps_record();
		}
		if(!(data->wind[0] == '0' && data->wind[1] == '0') &&
				(get_clock_ticks() - previousTicks)
				> 8000/strtol(data->wind, NULL, 10)) {
			sprintf(data->wind, "%03.1f",
     b96:	0e 94 45 09 	call	0x128a	; 0x128a <__floatunsisf>
     b9a:	9b 01       	movw	r18, r22
     b9c:	ac 01       	movw	r20, r24
     b9e:	60 e0       	ldi	r22, 0x00	; 0
     ba0:	70 e0       	ldi	r23, 0x00	; 0
     ba2:	8a ef       	ldi	r24, 0xFA	; 250
     ba4:	95 e4       	ldi	r25, 0x45	; 69
     ba6:	0e 94 d3 08 	call	0x11a6	; 0x11a6 <__divsf3>
     baa:	9f 93       	push	r25
     bac:	8f 93       	push	r24
     bae:	7f 93       	push	r23
     bb0:	6f 93       	push	r22
     bb2:	5f 92       	push	r5
     bb4:	4f 92       	push	r4
     bb6:	1f 93       	push	r17
     bb8:	0f 93       	push	r16
     bba:	0e 94 d4 12 	call	0x25a8	; 0x25a8 <sprintf>
     bbe:	0f b6       	in	r0, 0x3f	; 63
     bc0:	f8 94       	cli
     bc2:	de bf       	out	0x3e, r29	; 62
     bc4:	0f be       	out	0x3f, r0	; 63
     bc6:	cd bf       	out	0x3d, r28	; 61
     bc8:	f9 ce       	rjmp	.-526    	; 0x9bc <__stack+0xbd>

00000bca <__vector_18>:
			8000.0/(get_clock_ticks() - previousTicks));
		} 
	}
}

ISR(USART0_RX_vect) {
     bca:	1f 92       	push	r1
     bcc:	0f 92       	push	r0
     bce:	0f b6       	in	r0, 0x3f	; 63
     bd0:	0f 92       	push	r0
     bd2:	11 24       	eor	r1, r1
     bd4:	2f 93       	push	r18
     bd6:	3f 93       	push	r19
     bd8:	4f 93       	push	r20
     bda:	5f 93       	push	r21
     bdc:	6f 93       	push	r22
     bde:	7f 93       	push	r23
     be0:	8f 93       	push	r24
     be2:	9f 93       	push	r25
     be4:	af 93       	push	r26
     be6:	bf 93       	push	r27
     be8:	cf 93       	push	r28
     bea:	df 93       	push	r29
     bec:	ef 93       	push	r30
     bee:	ff 93       	push	r31
	if(UDR0 == 'R') {
     bf0:	80 91 c6 00 	lds	r24, 0x00C6	; 0x8000c6 <__TEXT_REGION_LENGTH__+0x7e00c6>
     bf4:	82 35       	cpi	r24, 0x52	; 82
     bf6:	51 f4       	brne	.+20     	; 0xc0c <__vector_18+0x42>
		UCSR0B ^= (1<<RXCIE0);
     bf8:	c1 ec       	ldi	r28, 0xC1	; 193
     bfa:	d0 e0       	ldi	r29, 0x00	; 0
     bfc:	88 81       	ld	r24, Y
     bfe:	80 58       	subi	r24, 0x80	; 128
     c00:	88 83       	st	Y, r24
		receive_gps();
     c02:	0e 94 8b 01 	call	0x316	; 0x316 <receive_gps>
		UCSR0B ^= (1<<RXCIE0);
     c06:	88 81       	ld	r24, Y
     c08:	80 58       	subi	r24, 0x80	; 128
     c0a:	88 83       	st	Y, r24
	}
}
     c0c:	ff 91       	pop	r31
     c0e:	ef 91       	pop	r30
     c10:	df 91       	pop	r29
     c12:	cf 91       	pop	r28
     c14:	bf 91       	pop	r27
     c16:	af 91       	pop	r26
     c18:	9f 91       	pop	r25
     c1a:	8f 91       	pop	r24
     c1c:	7f 91       	pop	r23
     c1e:	6f 91       	pop	r22
     c20:	5f 91       	pop	r21
     c22:	4f 91       	pop	r20
     c24:	3f 91       	pop	r19
     c26:	2f 91       	pop	r18
     c28:	0f 90       	pop	r0
     c2a:	0f be       	out	0x3f, r0	; 63
     c2c:	0f 90       	pop	r0
     c2e:	1f 90       	pop	r1
     c30:	18 95       	reti

00000c32 <__vector_3>:

ISR(PCINT0_vect) {
     c32:	1f 92       	push	r1
     c34:	0f 92       	push	r0
     c36:	0f b6       	in	r0, 0x3f	; 63
     c38:	0f 92       	push	r0
     c3a:	11 24       	eor	r1, r1
     c3c:	cf 92       	push	r12
     c3e:	df 92       	push	r13
     c40:	ef 92       	push	r14
     c42:	ff 92       	push	r15
     c44:	0f 93       	push	r16
     c46:	1f 93       	push	r17
     c48:	2f 93       	push	r18
     c4a:	3f 93       	push	r19
     c4c:	4f 93       	push	r20
     c4e:	5f 93       	push	r21
     c50:	6f 93       	push	r22
     c52:	7f 93       	push	r23
     c54:	8f 93       	push	r24
     c56:	9f 93       	push	r25
     c58:	af 93       	push	r26
     c5a:	bf 93       	push	r27
     c5c:	ef 93       	push	r30
     c5e:	ff 93       	push	r31
	static unsigned char popped;
	if((PINB & (1<<PINB2)) && popped) {
     c60:	1a 9b       	sbis	0x03, 2	; 3
     c62:	59 c0       	rjmp	.+178    	; 0xd16 <__vector_3+0xe4>
     c64:	80 91 de 01 	lds	r24, 0x01DE	; 0x8001de <__data_end>
     c68:	88 23       	and	r24, r24
     c6a:	09 f4       	brne	.+2      	; 0xc6e <__vector_3+0x3c>
     c6c:	54 c0       	rjmp	.+168    	; 0xd16 <__vector_3+0xe4>
		if((get_clock_ticks() - previousTicks) < 10) {
     c6e:	0e 94 c8 07 	call	0xf90	; 0xf90 <get_clock_ticks>
     c72:	00 91 f1 01 	lds	r16, 0x01F1	; 0x8001f1 <previousTicks>
     c76:	10 91 f2 01 	lds	r17, 0x01F2	; 0x8001f2 <previousTicks+0x1>
     c7a:	20 91 f3 01 	lds	r18, 0x01F3	; 0x8001f3 <previousTicks+0x2>
     c7e:	30 91 f4 01 	lds	r19, 0x01F4	; 0x8001f4 <previousTicks+0x3>
     c82:	dc 01       	movw	r26, r24
     c84:	cb 01       	movw	r24, r22
     c86:	80 1b       	sub	r24, r16
     c88:	91 0b       	sbc	r25, r17
     c8a:	a2 0b       	sbc	r26, r18
     c8c:	b3 0b       	sbc	r27, r19
     c8e:	0a 97       	sbiw	r24, 0x0a	; 10
     c90:	a1 05       	cpc	r26, r1
     c92:	b1 05       	cpc	r27, r1
     c94:	08 f4       	brcc	.+2      	; 0xc98 <__vector_3+0x66>
     c96:	42 c0       	rjmp	.+132    	; 0xd1c <__vector_3+0xea>
			return;
		}
		sprintf(data->wind, "%03.1f", 
				(8000.0/(get_clock_ticks() - previousTicks)));
     c98:	0e 94 c8 07 	call	0xf90	; 0xf90 <get_clock_ticks>
	static unsigned char popped;
	if((PINB & (1<<PINB2)) && popped) {
		if((get_clock_ticks() - previousTicks) < 10) {
			return;
		}
		sprintf(data->wind, "%03.1f", 
     c9c:	e0 91 f5 01 	lds	r30, 0x01F5	; 0x8001f5 <data>
     ca0:	f0 91 f6 01 	lds	r31, 0x01F6	; 0x8001f6 <data+0x1>
     ca4:	06 81       	ldd	r16, Z+6	; 0x06
     ca6:	17 81       	ldd	r17, Z+7	; 0x07
				(8000.0/(get_clock_ticks() - previousTicks)));
     ca8:	c0 90 f1 01 	lds	r12, 0x01F1	; 0x8001f1 <previousTicks>
     cac:	d0 90 f2 01 	lds	r13, 0x01F2	; 0x8001f2 <previousTicks+0x1>
     cb0:	e0 90 f3 01 	lds	r14, 0x01F3	; 0x8001f3 <previousTicks+0x2>
     cb4:	f0 90 f4 01 	lds	r15, 0x01F4	; 0x8001f4 <previousTicks+0x3>
     cb8:	6c 19       	sub	r22, r12
     cba:	7d 09       	sbc	r23, r13
     cbc:	8e 09       	sbc	r24, r14
     cbe:	9f 09       	sbc	r25, r15
	static unsigned char popped;
	if((PINB & (1<<PINB2)) && popped) {
		if((get_clock_ticks() - previousTicks) < 10) {
			return;
		}
		sprintf(data->wind, "%03.1f", 
     cc0:	0e 94 45 09 	call	0x128a	; 0x128a <__floatunsisf>
     cc4:	9b 01       	movw	r18, r22
     cc6:	ac 01       	movw	r20, r24
     cc8:	60 e0       	ldi	r22, 0x00	; 0
     cca:	70 e0       	ldi	r23, 0x00	; 0
     ccc:	8a ef       	ldi	r24, 0xFA	; 250
     cce:	95 e4       	ldi	r25, 0x45	; 69
     cd0:	0e 94 d3 08 	call	0x11a6	; 0x11a6 <__divsf3>
     cd4:	9f 93       	push	r25
     cd6:	8f 93       	push	r24
     cd8:	7f 93       	push	r23
     cda:	6f 93       	push	r22
     cdc:	87 ed       	ldi	r24, 0xD7	; 215
     cde:	91 e0       	ldi	r25, 0x01	; 1
     ce0:	9f 93       	push	r25
     ce2:	8f 93       	push	r24
     ce4:	1f 93       	push	r17
     ce6:	0f 93       	push	r16
     ce8:	0e 94 d4 12 	call	0x25a8	; 0x25a8 <sprintf>
				(8000.0/(get_clock_ticks() - previousTicks)));
		previousTicks = get_clock_ticks();
     cec:	0e 94 c8 07 	call	0xf90	; 0xf90 <get_clock_ticks>
     cf0:	60 93 f1 01 	sts	0x01F1, r22	; 0x8001f1 <previousTicks>
     cf4:	70 93 f2 01 	sts	0x01F2, r23	; 0x8001f2 <previousTicks+0x1>
     cf8:	80 93 f3 01 	sts	0x01F3, r24	; 0x8001f3 <previousTicks+0x2>
     cfc:	90 93 f4 01 	sts	0x01F4, r25	; 0x8001f4 <previousTicks+0x3>
		popped = 0;
     d00:	10 92 de 01 	sts	0x01DE, r1	; 0x8001de <__data_end>
     d04:	8d b7       	in	r24, 0x3d	; 61
     d06:	9e b7       	in	r25, 0x3e	; 62
     d08:	08 96       	adiw	r24, 0x08	; 8
     d0a:	0f b6       	in	r0, 0x3f	; 63
     d0c:	f8 94       	cli
     d0e:	9e bf       	out	0x3e, r25	; 62
     d10:	0f be       	out	0x3f, r0	; 63
     d12:	8d bf       	out	0x3d, r24	; 61
     d14:	03 c0       	rjmp	.+6      	; 0xd1c <__vector_3+0xea>
	}
	else {
		popped = 1;
     d16:	81 e0       	ldi	r24, 0x01	; 1
     d18:	80 93 de 01 	sts	0x01DE, r24	; 0x8001de <__data_end>
	}
     d1c:	ff 91       	pop	r31
     d1e:	ef 91       	pop	r30
     d20:	bf 91       	pop	r27
     d22:	af 91       	pop	r26
     d24:	9f 91       	pop	r25
     d26:	8f 91       	pop	r24
     d28:	7f 91       	pop	r23
     d2a:	6f 91       	pop	r22
     d2c:	5f 91       	pop	r21
     d2e:	4f 91       	pop	r20
     d30:	3f 91       	pop	r19
     d32:	2f 91       	pop	r18
     d34:	1f 91       	pop	r17
     d36:	0f 91       	pop	r16
     d38:	ff 90       	pop	r15
     d3a:	ef 90       	pop	r14
     d3c:	df 90       	pop	r13
     d3e:	cf 90       	pop	r12
     d40:	0f 90       	pop	r0
     d42:	0f be       	out	0x3f, r0	; 63
     d44:	0f 90       	pop	r0
     d46:	1f 90       	pop	r1
     d48:	18 95       	reti

00000d4a <init_timer0>:
 * clock cycles, i.e. every millisecond with an 8MHz
 * clock. 
 * The counter will be reset to 0 when it reaches it's
 * output compare value.
 */
void init_timer0(volatile Data* dataSet) {
     d4a:	cf 93       	push	r28
     d4c:	df 93       	push	r29
	/* Reset clock tick count. L indicates a long (32 bit) 
	 * constant. 
	 */
	data = dataSet;
     d4e:	90 93 f6 01 	sts	0x01F6, r25	; 0x8001f6 <data+0x1>
     d52:	80 93 f5 01 	sts	0x01F5, r24	; 0x8001f5 <data>
     d56:	ee e0       	ldi	r30, 0x0E	; 14
     d58:	f1 e0       	ldi	r31, 0x01	; 1
     d5a:	c6 e0       	ldi	r28, 0x06	; 6
     d5c:	d1 e0       	ldi	r29, 0x01	; 1
     d5e:	6e e1       	ldi	r22, 0x1E	; 30
     d60:	71 e0       	ldi	r23, 0x01	; 1
	for(unsigned char i = 0; i < 8; i++) {
		*directions[i] |= (1 << portNum[i]);
     d62:	41 e0       	ldi	r20, 0x01	; 1
     d64:	50 e0       	ldi	r21, 0x00	; 0
     d66:	a1 91       	ld	r26, Z+
     d68:	b1 91       	ld	r27, Z+
     d6a:	2c 91       	ld	r18, X
     d6c:	ca 01       	movw	r24, r20
     d6e:	09 90       	ld	r0, Y+
     d70:	02 c0       	rjmp	.+4      	; 0xd76 <init_timer0+0x2c>
     d72:	88 0f       	add	r24, r24
     d74:	99 1f       	adc	r25, r25
     d76:	0a 94       	dec	r0
     d78:	e2 f7       	brpl	.-8      	; 0xd72 <init_timer0+0x28>
     d7a:	82 2b       	or	r24, r18
     d7c:	8c 93       	st	X, r24
void init_timer0(volatile Data* dataSet) {
	/* Reset clock tick count. L indicates a long (32 bit) 
	 * constant. 
	 */
	data = dataSet;
	for(unsigned char i = 0; i < 8; i++) {
     d7e:	e6 17       	cp	r30, r22
     d80:	f7 07       	cpc	r31, r23
     d82:	89 f7       	brne	.-30     	; 0xd66 <init_timer0+0x1c>
		*directions[i] |= (1 << portNum[i]);
	}
	DDRD |= (1 << 3) | (1 << 4);
     d84:	8a b1       	in	r24, 0x0a	; 10
     d86:	88 61       	ori	r24, 0x18	; 24
     d88:	8a b9       	out	0x0a, r24	; 10
	DDRE |= 1;
     d8a:	68 9a       	sbi	0x0d, 0	; 13
	sei();
     d8c:	78 94       	sei
	clock_ticks = 0L;
     d8e:	10 92 ed 01 	sts	0x01ED, r1	; 0x8001ed <clock_ticks>
     d92:	10 92 ee 01 	sts	0x01EE, r1	; 0x8001ee <clock_ticks+0x1>
     d96:	10 92 ef 01 	sts	0x01EF, r1	; 0x8001ef <clock_ticks+0x2>
     d9a:	10 92 f0 01 	sts	0x01F0, r1	; 0x8001f0 <clock_ticks+0x3>
	
	/* Clear the timer */
	TCNT0 = 0;
     d9e:	16 bc       	out	0x26, r1	; 38

	/* Set the output compare value to be 124 */
	OCR0A = 124;
     da0:	8c e7       	ldi	r24, 0x7C	; 124
     da2:	87 bd       	out	0x27, r24	; 39
	
	/* Set the timer to clear on compare match (CTC mode)
	 * and to divide the clock by 64. This starts the timer
	 * running.
	 */
	TCCR0A = (1<<WGM01);
     da4:	82 e0       	ldi	r24, 0x02	; 2
     da6:	84 bd       	out	0x24, r24	; 36
	TCCR0B = (1<<CS01) | (1<<CS00);
     da8:	83 e0       	ldi	r24, 0x03	; 3
     daa:	85 bd       	out	0x25, r24	; 37

	/* Enable an interrupt on output compare match. 
	 * Note that interrupts have to be enabled globally
	 * before the interrupts will fire.
	 */
	TIMSK0 |= (1<<OCIE0A);
     dac:	ee e6       	ldi	r30, 0x6E	; 110
     dae:	f0 e0       	ldi	r31, 0x00	; 0
     db0:	80 81       	ld	r24, Z
     db2:	82 60       	ori	r24, 0x02	; 2
     db4:	80 83       	st	Z, r24
	
	/* Make sure the interrupt flag is cleared by writing a 
	 * 1 to it.
	 */
	TIFR0 &= (1<<OCF0A);
     db6:	85 b3       	in	r24, 0x15	; 21
     db8:	82 70       	andi	r24, 0x02	; 2
     dba:	85 bb       	out	0x15, r24	; 21
}
     dbc:	df 91       	pop	r29
     dbe:	cf 91       	pop	r28
     dc0:	08 95       	ret

00000dc2 <display_digit>:

void display_digit(uint8_t num) {
     dc2:	cf 92       	push	r12
     dc4:	df 92       	push	r13
     dc6:	ef 92       	push	r14
     dc8:	ff 92       	push	r15
     dca:	0f 93       	push	r16
     dcc:	1f 93       	push	r17
     dce:	cf 93       	push	r28
     dd0:	df 93       	push	r29
     dd2:	ae e1       	ldi	r26, 0x1E	; 30
     dd4:	b1 e0       	ldi	r27, 0x01	; 1
     dd6:	e6 e0       	ldi	r30, 0x06	; 6
     dd8:	f1 e0       	ldi	r31, 0x01	; 1
     dda:	20 e0       	ldi	r18, 0x00	; 0
     ddc:	30 e0       	ldi	r19, 0x00	; 0
	for(unsigned char i = 0; i < 8; i++) {
		if(num & (1 << i)) {
     dde:	c8 2e       	mov	r12, r24
     de0:	d1 2c       	mov	r13, r1
			*ports[i] |= (1 << portNum[i]);
		} else {
			*ports[i] &= ~(1 << portNum[i]);
     de2:	01 e0       	ldi	r16, 0x01	; 1
     de4:	10 e0       	ldi	r17, 0x00	; 0
	TIFR0 &= (1<<OCF0A);
}

void display_digit(uint8_t num) {
	for(unsigned char i = 0; i < 8; i++) {
		if(num & (1 << i)) {
     de6:	c6 01       	movw	r24, r12
     de8:	02 2e       	mov	r0, r18
     dea:	02 c0       	rjmp	.+4      	; 0xdf0 <display_digit+0x2e>
     dec:	95 95       	asr	r25
     dee:	87 95       	ror	r24
     df0:	0a 94       	dec	r0
     df2:	e2 f7       	brpl	.-8      	; 0xdec <display_digit+0x2a>
     df4:	80 ff       	sbrs	r24, 0
     df6:	0f c0       	rjmp	.+30     	; 0xe16 <display_digit+0x54>
			*ports[i] |= (1 << portNum[i]);
     df8:	8d 91       	ld	r24, X+
     dfa:	9c 91       	ld	r25, X
     dfc:	11 97       	sbiw	r26, 0x01	; 1
     dfe:	ec 01       	movw	r28, r24
     e00:	68 81       	ld	r22, Y
     e02:	a8 01       	movw	r20, r16
     e04:	00 80       	ld	r0, Z
     e06:	02 c0       	rjmp	.+4      	; 0xe0c <display_digit+0x4a>
     e08:	44 0f       	add	r20, r20
     e0a:	55 1f       	adc	r21, r21
     e0c:	0a 94       	dec	r0
     e0e:	e2 f7       	brpl	.-8      	; 0xe08 <display_digit+0x46>
     e10:	46 2b       	or	r20, r22
     e12:	48 83       	st	Y, r20
     e14:	10 c0       	rjmp	.+32     	; 0xe36 <display_digit+0x74>
		} else {
			*ports[i] &= ~(1 << portNum[i]);
     e16:	ed 90       	ld	r14, X+
     e18:	fc 90       	ld	r15, X
     e1a:	11 97       	sbiw	r26, 0x01	; 1
     e1c:	e7 01       	movw	r28, r14
     e1e:	48 81       	ld	r20, Y
     e20:	b8 01       	movw	r22, r16
     e22:	00 80       	ld	r0, Z
     e24:	02 c0       	rjmp	.+4      	; 0xe2a <display_digit+0x68>
     e26:	66 0f       	add	r22, r22
     e28:	77 1f       	adc	r23, r23
     e2a:	0a 94       	dec	r0
     e2c:	e2 f7       	brpl	.-8      	; 0xe26 <display_digit+0x64>
     e2e:	96 2f       	mov	r25, r22
     e30:	90 95       	com	r25
     e32:	94 23       	and	r25, r20
     e34:	98 83       	st	Y, r25
     e36:	2f 5f       	subi	r18, 0xFF	; 255
     e38:	3f 4f       	sbci	r19, 0xFF	; 255
     e3a:	12 96       	adiw	r26, 0x02	; 2
     e3c:	31 96       	adiw	r30, 0x01	; 1
	 */
	TIFR0 &= (1<<OCF0A);
}

void display_digit(uint8_t num) {
	for(unsigned char i = 0; i < 8; i++) {
     e3e:	28 30       	cpi	r18, 0x08	; 8
     e40:	31 05       	cpc	r19, r1
     e42:	89 f6       	brne	.-94     	; 0xde6 <display_digit+0x24>
			*ports[i] |= (1 << portNum[i]);
		} else {
			*ports[i] &= ~(1 << portNum[i]);
		}
	}
}
     e44:	df 91       	pop	r29
     e46:	cf 91       	pop	r28
     e48:	1f 91       	pop	r17
     e4a:	0f 91       	pop	r16
     e4c:	ff 90       	pop	r15
     e4e:	ef 90       	pop	r14
     e50:	df 90       	pop	r13
     e52:	cf 90       	pop	r12
     e54:	08 95       	ret

00000e56 <display>:

void display(volatile char* reading) {
     e56:	cf 93       	push	r28
     e58:	df 93       	push	r29
	if(!reading[data->displayPos] && (data->displayPos = 0));
     e5a:	a0 91 f5 01 	lds	r26, 0x01F5	; 0x8001f5 <data>
     e5e:	b0 91 f6 01 	lds	r27, 0x01F6	; 0x8001f6 <data+0x1>
     e62:	18 96       	adiw	r26, 0x08	; 8
     e64:	ed 91       	ld	r30, X+
     e66:	fc 91       	ld	r31, X
     e68:	19 97       	sbiw	r26, 0x09	; 9
     e6a:	e8 0f       	add	r30, r24
     e6c:	f9 1f       	adc	r31, r25
     e6e:	20 81       	ld	r18, Z
     e70:	21 11       	cpse	r18, r1
     e72:	04 c0       	rjmp	.+8      	; 0xe7c <display+0x26>
     e74:	19 96       	adiw	r26, 0x09	; 9
     e76:	1c 92       	st	X, r1
     e78:	1e 92       	st	-X, r1
     e7a:	18 97       	sbiw	r26, 0x08	; 8
	if(data->displayPos == 0) {
     e7c:	18 96       	adiw	r26, 0x08	; 8
     e7e:	2d 91       	ld	r18, X+
     e80:	3c 91       	ld	r19, X
     e82:	19 97       	sbiw	r26, 0x09	; 9
     e84:	23 2b       	or	r18, r19
     e86:	11 f5       	brne	.+68     	; 0xecc <display+0x76>
		if(reading[data->displayPos] == '0' 
     e88:	18 96       	adiw	r26, 0x08	; 8
     e8a:	ed 91       	ld	r30, X+
     e8c:	fc 91       	ld	r31, X
     e8e:	19 97       	sbiw	r26, 0x09	; 9
     e90:	e8 0f       	add	r30, r24
     e92:	f9 1f       	adc	r31, r25
     e94:	20 81       	ld	r18, Z
     e96:	20 33       	cpi	r18, 0x30	; 48
     e98:	a1 f4       	brne	.+40     	; 0xec2 <display+0x6c>
				&& reading[data->displayPos + 1] != '.') {
     e9a:	18 96       	adiw	r26, 0x08	; 8
     e9c:	ed 91       	ld	r30, X+
     e9e:	fc 91       	ld	r31, X
     ea0:	19 97       	sbiw	r26, 0x09	; 9
     ea2:	31 96       	adiw	r30, 0x01	; 1
     ea4:	e8 0f       	add	r30, r24
     ea6:	f9 1f       	adc	r31, r25
     ea8:	20 81       	ld	r18, Z
     eaa:	2e 32       	cpi	r18, 0x2E	; 46
     eac:	51 f0       	breq	.+20     	; 0xec2 <display+0x6c>
			data->displayPos++;
     eae:	18 96       	adiw	r26, 0x08	; 8
     eb0:	8d 91       	ld	r24, X+
     eb2:	9c 91       	ld	r25, X
     eb4:	19 97       	sbiw	r26, 0x09	; 9
     eb6:	01 96       	adiw	r24, 0x01	; 1
     eb8:	19 96       	adiw	r26, 0x09	; 9
     eba:	9c 93       	st	X, r25
     ebc:	8e 93       	st	-X, r24
     ebe:	18 97       	sbiw	r26, 0x08	; 8
			return;
     ec0:	64 c0       	rjmp	.+200    	; 0xf8a <display+0x134>
		}
		PORTE |= 1;
     ec2:	70 9a       	sbi	0x0e, 0	; 14
		PORTD &= ~((1 << 3) | (1 << 4));
     ec4:	2b b1       	in	r18, 0x0b	; 11
     ec6:	27 7e       	andi	r18, 0xE7	; 231
     ec8:	2b b9       	out	0x0b, r18	; 11
     eca:	25 c0       	rjmp	.+74     	; 0xf16 <display+0xc0>
	} else {
		PORTD |= (1 << ((5 - data->displayPos) + (reading[data->displayPos - 1] == 46)));
     ecc:	18 96       	adiw	r26, 0x08	; 8
     ece:	6d 91       	ld	r22, X+
     ed0:	7c 91       	ld	r23, X
     ed2:	19 97       	sbiw	r26, 0x09	; 9
     ed4:	18 96       	adiw	r26, 0x08	; 8
     ed6:	ed 91       	ld	r30, X+
     ed8:	fc 91       	ld	r31, X
     eda:	19 97       	sbiw	r26, 0x09	; 9
     edc:	31 97       	sbiw	r30, 0x01	; 1
     ede:	e8 0f       	add	r30, r24
     ee0:	f9 1f       	adc	r31, r25
     ee2:	20 81       	ld	r18, Z
     ee4:	eb b1       	in	r30, 0x0b	; 11
     ee6:	45 e0       	ldi	r20, 0x05	; 5
     ee8:	50 e0       	ldi	r21, 0x00	; 0
     eea:	da 01       	movw	r26, r20
     eec:	a6 1b       	sub	r26, r22
     eee:	b7 0b       	sbc	r27, r23
     ef0:	bd 01       	movw	r22, r26
     ef2:	41 e0       	ldi	r20, 0x01	; 1
     ef4:	50 e0       	ldi	r21, 0x00	; 0
     ef6:	2e 32       	cpi	r18, 0x2E	; 46
     ef8:	11 f0       	breq	.+4      	; 0xefe <display+0xa8>
     efa:	40 e0       	ldi	r20, 0x00	; 0
     efc:	50 e0       	ldi	r21, 0x00	; 0
     efe:	46 0f       	add	r20, r22
     f00:	57 1f       	adc	r21, r23
     f02:	21 e0       	ldi	r18, 0x01	; 1
     f04:	30 e0       	ldi	r19, 0x00	; 0
     f06:	02 c0       	rjmp	.+4      	; 0xf0c <display+0xb6>
     f08:	22 0f       	add	r18, r18
     f0a:	33 1f       	adc	r19, r19
     f0c:	4a 95       	dec	r20
     f0e:	e2 f7       	brpl	.-8      	; 0xf08 <display+0xb2>
     f10:	2e 2b       	or	r18, r30
     f12:	2b b9       	out	0x0b, r18	; 11
		PORTE &= ~1;
     f14:	70 98       	cbi	0x0e, 0	; 14
	}
	display_digit(128 * (reading[data->displayPos + 1] == 46)
     f16:	e0 91 f5 01 	lds	r30, 0x01F5	; 0x8001f5 <data>
     f1a:	f0 91 f6 01 	lds	r31, 0x01F6	; 0x8001f6 <data+0x1>
     f1e:	a0 85       	ldd	r26, Z+8	; 0x08
     f20:	b1 85       	ldd	r27, Z+9	; 0x09
     f22:	11 96       	adiw	r26, 0x01	; 1
     f24:	a8 0f       	add	r26, r24
     f26:	b9 1f       	adc	r27, r25
     f28:	2c 91       	ld	r18, X
     f2a:	2e 32       	cpi	r18, 0x2E	; 46
     f2c:	11 f0       	breq	.+4      	; 0xf32 <display+0xdc>
     f2e:	20 e0       	ldi	r18, 0x00	; 0
     f30:	01 c0       	rjmp	.+2      	; 0xf34 <display+0xde>
     f32:	20 e8       	ldi	r18, 0x80	; 128
     f34:	ec 01       	movw	r28, r24
			+ numbers[reading[data->displayPos] - 48]);
     f36:	00 84       	ldd	r0, Z+8	; 0x08
     f38:	f1 85       	ldd	r31, Z+9	; 0x09
     f3a:	e0 2d       	mov	r30, r0
     f3c:	e8 0f       	add	r30, r24
     f3e:	f9 1f       	adc	r31, r25
     f40:	a0 81       	ld	r26, Z
     f42:	b0 e0       	ldi	r27, 0x00	; 0
     f44:	a2 50       	subi	r26, 0x02	; 2
     f46:	bf 4f       	sbci	r27, 0xFF	; 255
		PORTD &= ~((1 << 3) | (1 << 4));
	} else {
		PORTD |= (1 << ((5 - data->displayPos) + (reading[data->displayPos - 1] == 46)));
		PORTE &= ~1;
	}
	display_digit(128 * (reading[data->displayPos + 1] == 46)
     f48:	8c 91       	ld	r24, X
     f4a:	82 0f       	add	r24, r18
     f4c:	0e 94 e1 06 	call	0xdc2	; 0xdc2 <display_digit>
			+ numbers[reading[data->displayPos] - 48]);
	data->displayPos += 1 + (reading[data->displayPos + 1] == 46);
     f50:	a0 91 f5 01 	lds	r26, 0x01F5	; 0x8001f5 <data>
     f54:	b0 91 f6 01 	lds	r27, 0x01F6	; 0x8001f6 <data+0x1>
     f58:	18 96       	adiw	r26, 0x08	; 8
     f5a:	ed 91       	ld	r30, X+
     f5c:	fc 91       	ld	r31, X
     f5e:	19 97       	sbiw	r26, 0x09	; 9
     f60:	31 96       	adiw	r30, 0x01	; 1
     f62:	ec 0f       	add	r30, r28
     f64:	fd 1f       	adc	r31, r29
     f66:	80 81       	ld	r24, Z
     f68:	8e 32       	cpi	r24, 0x2E	; 46
     f6a:	19 f0       	breq	.+6      	; 0xf72 <display+0x11c>
     f6c:	21 e0       	ldi	r18, 0x01	; 1
     f6e:	30 e0       	ldi	r19, 0x00	; 0
     f70:	02 c0       	rjmp	.+4      	; 0xf76 <display+0x120>
     f72:	22 e0       	ldi	r18, 0x02	; 2
     f74:	30 e0       	ldi	r19, 0x00	; 0
     f76:	18 96       	adiw	r26, 0x08	; 8
     f78:	8d 91       	ld	r24, X+
     f7a:	9c 91       	ld	r25, X
     f7c:	19 97       	sbiw	r26, 0x09	; 9
     f7e:	82 0f       	add	r24, r18
     f80:	93 1f       	adc	r25, r19
     f82:	19 96       	adiw	r26, 0x09	; 9
     f84:	9c 93       	st	X, r25
     f86:	8e 93       	st	-X, r24
     f88:	18 97       	sbiw	r26, 0x08	; 8
}
     f8a:	df 91       	pop	r29
     f8c:	cf 91       	pop	r28
     f8e:	08 95       	ret

00000f90 <get_clock_ticks>:

uint32_t get_clock_ticks(void) {
	uint32_t return_value;
	cli();
     f90:	f8 94       	cli
	return_value = clock_ticks;
     f92:	60 91 ed 01 	lds	r22, 0x01ED	; 0x8001ed <clock_ticks>
     f96:	70 91 ee 01 	lds	r23, 0x01EE	; 0x8001ee <clock_ticks+0x1>
     f9a:	80 91 ef 01 	lds	r24, 0x01EF	; 0x8001ef <clock_ticks+0x2>
     f9e:	90 91 f0 01 	lds	r25, 0x01F0	; 0x8001f0 <clock_ticks+0x3>
	sei();
     fa2:	78 94       	sei
	return return_value;
}
     fa4:	08 95       	ret

00000fa6 <__vector_14>:

/* Interrupt handler which fires when timer/counter 0 reaches 
 * the defined output compare value (every 5 milliseconds)
 */
ISR(TIMER0_COMPA_vect) {
     fa6:	1f 92       	push	r1
     fa8:	0f 92       	push	r0
     faa:	0f b6       	in	r0, 0x3f	; 63
     fac:	0f 92       	push	r0
     fae:	11 24       	eor	r1, r1
     fb0:	2f 93       	push	r18
     fb2:	3f 93       	push	r19
     fb4:	4f 93       	push	r20
     fb6:	5f 93       	push	r21
     fb8:	6f 93       	push	r22
     fba:	7f 93       	push	r23
     fbc:	8f 93       	push	r24
     fbe:	9f 93       	push	r25
     fc0:	af 93       	push	r26
     fc2:	bf 93       	push	r27
     fc4:	ef 93       	push	r30
     fc6:	ff 93       	push	r31
	/* Increment our clock tick count and increment mode */
	if(!(++clock_ticks % 500) && ++mode) {
     fc8:	80 91 ed 01 	lds	r24, 0x01ED	; 0x8001ed <clock_ticks>
     fcc:	90 91 ee 01 	lds	r25, 0x01EE	; 0x8001ee <clock_ticks+0x1>
     fd0:	a0 91 ef 01 	lds	r26, 0x01EF	; 0x8001ef <clock_ticks+0x2>
     fd4:	b0 91 f0 01 	lds	r27, 0x01F0	; 0x8001f0 <clock_ticks+0x3>
     fd8:	bc 01       	movw	r22, r24
     fda:	cd 01       	movw	r24, r26
     fdc:	6f 5f       	subi	r22, 0xFF	; 255
     fde:	7f 4f       	sbci	r23, 0xFF	; 255
     fe0:	8f 4f       	sbci	r24, 0xFF	; 255
     fe2:	9f 4f       	sbci	r25, 0xFF	; 255
     fe4:	60 93 ed 01 	sts	0x01ED, r22	; 0x8001ed <clock_ticks>
     fe8:	70 93 ee 01 	sts	0x01EE, r23	; 0x8001ee <clock_ticks+0x1>
     fec:	80 93 ef 01 	sts	0x01EF, r24	; 0x8001ef <clock_ticks+0x2>
     ff0:	90 93 f0 01 	sts	0x01F0, r25	; 0x8001f0 <clock_ticks+0x3>
     ff4:	24 ef       	ldi	r18, 0xF4	; 244
     ff6:	31 e0       	ldi	r19, 0x01	; 1
     ff8:	40 e0       	ldi	r20, 0x00	; 0
     ffa:	50 e0       	ldi	r21, 0x00	; 0
     ffc:	0e 94 d0 0d 	call	0x1ba0	; 0x1ba0 <__udivmodsi4>
    1000:	67 2b       	or	r22, r23
    1002:	68 2b       	or	r22, r24
    1004:	69 2b       	or	r22, r25
    1006:	b1 f4       	brne	.+44     	; 0x1034 <__vector_14+0x8e>
    1008:	80 91 fb 01 	lds	r24, 0x01FB	; 0x8001fb <mode>
    100c:	8f 5f       	subi	r24, 0xFF	; 255
    100e:	19 f4       	brne	.+6      	; 0x1016 <__vector_14+0x70>
    1010:	10 92 fb 01 	sts	0x01FB, r1	; 0x8001fb <mode>
    1014:	0f c0       	rjmp	.+30     	; 0x1034 <__vector_14+0x8e>
		mode %= 10;
    1016:	9d ec       	ldi	r25, 0xCD	; 205
    1018:	89 9f       	mul	r24, r25
    101a:	91 2d       	mov	r25, r1
    101c:	11 24       	eor	r1, r1
    101e:	96 95       	lsr	r25
    1020:	96 95       	lsr	r25
    1022:	96 95       	lsr	r25
    1024:	99 0f       	add	r25, r25
    1026:	29 2f       	mov	r18, r25
    1028:	22 0f       	add	r18, r18
    102a:	22 0f       	add	r18, r18
    102c:	92 0f       	add	r25, r18
    102e:	89 1b       	sub	r24, r25
    1030:	80 93 fb 01 	sts	0x01FB, r24	; 0x8001fb <mode>
	}
	display_digit(255);
    1034:	8f ef       	ldi	r24, 0xFF	; 255
    1036:	0e 94 e1 06 	call	0xdc2	; 0xdc2 <display_digit>
	PORTE |= 1;
    103a:	70 9a       	sbi	0x0e, 0	; 14
	PORTD |= (1 << 3) | (1 << 4);
    103c:	8b b1       	in	r24, 0x0b	; 11
    103e:	88 61       	ori	r24, 0x18	; 24
    1040:	8b b9       	out	0x0b, r24	; 11
	//
	if(!(clock_ticks % 5)) {
    1042:	60 91 ed 01 	lds	r22, 0x01ED	; 0x8001ed <clock_ticks>
    1046:	70 91 ee 01 	lds	r23, 0x01EE	; 0x8001ee <clock_ticks+0x1>
    104a:	80 91 ef 01 	lds	r24, 0x01EF	; 0x8001ef <clock_ticks+0x2>
    104e:	90 91 f0 01 	lds	r25, 0x01F0	; 0x8001f0 <clock_ticks+0x3>
    1052:	25 e0       	ldi	r18, 0x05	; 5
    1054:	30 e0       	ldi	r19, 0x00	; 0
    1056:	40 e0       	ldi	r20, 0x00	; 0
    1058:	50 e0       	ldi	r21, 0x00	; 0
    105a:	0e 94 d0 0d 	call	0x1ba0	; 0x1ba0 <__udivmodsi4>
    105e:	67 2b       	or	r22, r23
    1060:	68 2b       	or	r22, r24
    1062:	69 2b       	or	r22, r25
    1064:	11 f5       	brne	.+68     	; 0x10aa <__vector_14+0x104>
		switch(mode) {
    1066:	80 91 fb 01 	lds	r24, 0x01FB	; 0x8001fb <mode>
    106a:	89 30       	cpi	r24, 0x09	; 9
    106c:	28 f4       	brcc	.+10     	; 0x1078 <__vector_14+0xd2>
    106e:	87 30       	cpi	r24, 0x07	; 7
    1070:	30 f4       	brcc	.+12     	; 0x107e <__vector_14+0xd8>
    1072:	86 30       	cpi	r24, 0x06	; 6
    1074:	69 f0       	breq	.+26     	; 0x1090 <__vector_14+0xea>
    1076:	11 c0       	rjmp	.+34     	; 0x109a <__vector_14+0xf4>
    1078:	89 30       	cpi	r24, 0x09	; 9
    107a:	51 f0       	breq	.+20     	; 0x1090 <__vector_14+0xea>
    107c:	0e c0       	rjmp	.+28     	; 0x109a <__vector_14+0xf4>
			case 7:
			case 8:
				display(data->temp);
    107e:	e0 91 f5 01 	lds	r30, 0x01F5	; 0x8001f5 <data>
    1082:	f0 91 f6 01 	lds	r31, 0x01F6	; 0x8001f6 <data+0x1>
    1086:	84 81       	ldd	r24, Z+4	; 0x04
    1088:	95 81       	ldd	r25, Z+5	; 0x05
    108a:	0e 94 2b 07 	call	0xe56	; 0xe56 <display>
				break;
    108e:	0d c0       	rjmp	.+26     	; 0x10aa <__vector_14+0x104>
			case 9:
			case 6:
				PORTD &= ~((1 << 3) | (1 << 4));
    1090:	8b b1       	in	r24, 0x0b	; 11
    1092:	87 7e       	andi	r24, 0xE7	; 231
    1094:	8b b9       	out	0x0b, r24	; 11
				PORTE &= ~1;
    1096:	70 98       	cbi	0x0e, 0	; 14
				break;
    1098:	08 c0       	rjmp	.+16     	; 0x10aa <__vector_14+0x104>
			default:
				display(data->wind);
    109a:	e0 91 f5 01 	lds	r30, 0x01F5	; 0x8001f5 <data>
    109e:	f0 91 f6 01 	lds	r31, 0x01F6	; 0x8001f6 <data+0x1>
    10a2:	86 81       	ldd	r24, Z+6	; 0x06
    10a4:	97 81       	ldd	r25, Z+7	; 0x07
    10a6:	0e 94 2b 07 	call	0xe56	; 0xe56 <display>
				break;
		}
	}
}
    10aa:	ff 91       	pop	r31
    10ac:	ef 91       	pop	r30
    10ae:	bf 91       	pop	r27
    10b0:	af 91       	pop	r26
    10b2:	9f 91       	pop	r25
    10b4:	8f 91       	pop	r24
    10b6:	7f 91       	pop	r23
    10b8:	6f 91       	pop	r22
    10ba:	5f 91       	pop	r21
    10bc:	4f 91       	pop	r20
    10be:	3f 91       	pop	r19
    10c0:	2f 91       	pop	r18
    10c2:	0f 90       	pop	r0
    10c4:	0f be       	out	0x3f, r0	; 63
    10c6:	0f 90       	pop	r0
    10c8:	1f 90       	pop	r1
    10ca:	18 95       	reti

000010cc <__subsf3>:
    10cc:	50 58       	subi	r21, 0x80	; 128

000010ce <__addsf3>:
    10ce:	bb 27       	eor	r27, r27
    10d0:	aa 27       	eor	r26, r26
    10d2:	0e 94 7e 08 	call	0x10fc	; 0x10fc <__addsf3x>
    10d6:	0c 94 99 09 	jmp	0x1332	; 0x1332 <__fp_round>
    10da:	0e 94 8b 09 	call	0x1316	; 0x1316 <__fp_pscA>
    10de:	38 f0       	brcs	.+14     	; 0x10ee <__addsf3+0x20>
    10e0:	0e 94 92 09 	call	0x1324	; 0x1324 <__fp_pscB>
    10e4:	20 f0       	brcs	.+8      	; 0x10ee <__addsf3+0x20>
    10e6:	39 f4       	brne	.+14     	; 0x10f6 <__addsf3+0x28>
    10e8:	9f 3f       	cpi	r25, 0xFF	; 255
    10ea:	19 f4       	brne	.+6      	; 0x10f2 <__addsf3+0x24>
    10ec:	26 f4       	brtc	.+8      	; 0x10f6 <__addsf3+0x28>
    10ee:	0c 94 88 09 	jmp	0x1310	; 0x1310 <__fp_nan>
    10f2:	0e f4       	brtc	.+2      	; 0x10f6 <__addsf3+0x28>
    10f4:	e0 95       	com	r30
    10f6:	e7 fb       	bst	r30, 7
    10f8:	0c 94 82 09 	jmp	0x1304	; 0x1304 <__fp_inf>

000010fc <__addsf3x>:
    10fc:	e9 2f       	mov	r30, r25
    10fe:	0e 94 aa 09 	call	0x1354	; 0x1354 <__fp_split3>
    1102:	58 f3       	brcs	.-42     	; 0x10da <__addsf3+0xc>
    1104:	ba 17       	cp	r27, r26
    1106:	62 07       	cpc	r22, r18
    1108:	73 07       	cpc	r23, r19
    110a:	84 07       	cpc	r24, r20
    110c:	95 07       	cpc	r25, r21
    110e:	20 f0       	brcs	.+8      	; 0x1118 <__addsf3x+0x1c>
    1110:	79 f4       	brne	.+30     	; 0x1130 <__addsf3x+0x34>
    1112:	a6 f5       	brtc	.+104    	; 0x117c <__addsf3x+0x80>
    1114:	0c 94 cc 09 	jmp	0x1398	; 0x1398 <__fp_zero>
    1118:	0e f4       	brtc	.+2      	; 0x111c <__addsf3x+0x20>
    111a:	e0 95       	com	r30
    111c:	0b 2e       	mov	r0, r27
    111e:	ba 2f       	mov	r27, r26
    1120:	a0 2d       	mov	r26, r0
    1122:	0b 01       	movw	r0, r22
    1124:	b9 01       	movw	r22, r18
    1126:	90 01       	movw	r18, r0
    1128:	0c 01       	movw	r0, r24
    112a:	ca 01       	movw	r24, r20
    112c:	a0 01       	movw	r20, r0
    112e:	11 24       	eor	r1, r1
    1130:	ff 27       	eor	r31, r31
    1132:	59 1b       	sub	r21, r25
    1134:	99 f0       	breq	.+38     	; 0x115c <__addsf3x+0x60>
    1136:	59 3f       	cpi	r21, 0xF9	; 249
    1138:	50 f4       	brcc	.+20     	; 0x114e <__addsf3x+0x52>
    113a:	50 3e       	cpi	r21, 0xE0	; 224
    113c:	68 f1       	brcs	.+90     	; 0x1198 <__addsf3x+0x9c>
    113e:	1a 16       	cp	r1, r26
    1140:	f0 40       	sbci	r31, 0x00	; 0
    1142:	a2 2f       	mov	r26, r18
    1144:	23 2f       	mov	r18, r19
    1146:	34 2f       	mov	r19, r20
    1148:	44 27       	eor	r20, r20
    114a:	58 5f       	subi	r21, 0xF8	; 248
    114c:	f3 cf       	rjmp	.-26     	; 0x1134 <__addsf3x+0x38>
    114e:	46 95       	lsr	r20
    1150:	37 95       	ror	r19
    1152:	27 95       	ror	r18
    1154:	a7 95       	ror	r26
    1156:	f0 40       	sbci	r31, 0x00	; 0
    1158:	53 95       	inc	r21
    115a:	c9 f7       	brne	.-14     	; 0x114e <__addsf3x+0x52>
    115c:	7e f4       	brtc	.+30     	; 0x117c <__addsf3x+0x80>
    115e:	1f 16       	cp	r1, r31
    1160:	ba 0b       	sbc	r27, r26
    1162:	62 0b       	sbc	r22, r18
    1164:	73 0b       	sbc	r23, r19
    1166:	84 0b       	sbc	r24, r20
    1168:	ba f0       	brmi	.+46     	; 0x1198 <__addsf3x+0x9c>
    116a:	91 50       	subi	r25, 0x01	; 1
    116c:	a1 f0       	breq	.+40     	; 0x1196 <__addsf3x+0x9a>
    116e:	ff 0f       	add	r31, r31
    1170:	bb 1f       	adc	r27, r27
    1172:	66 1f       	adc	r22, r22
    1174:	77 1f       	adc	r23, r23
    1176:	88 1f       	adc	r24, r24
    1178:	c2 f7       	brpl	.-16     	; 0x116a <__addsf3x+0x6e>
    117a:	0e c0       	rjmp	.+28     	; 0x1198 <__addsf3x+0x9c>
    117c:	ba 0f       	add	r27, r26
    117e:	62 1f       	adc	r22, r18
    1180:	73 1f       	adc	r23, r19
    1182:	84 1f       	adc	r24, r20
    1184:	48 f4       	brcc	.+18     	; 0x1198 <__addsf3x+0x9c>
    1186:	87 95       	ror	r24
    1188:	77 95       	ror	r23
    118a:	67 95       	ror	r22
    118c:	b7 95       	ror	r27
    118e:	f7 95       	ror	r31
    1190:	9e 3f       	cpi	r25, 0xFE	; 254
    1192:	08 f0       	brcs	.+2      	; 0x1196 <__addsf3x+0x9a>
    1194:	b0 cf       	rjmp	.-160    	; 0x10f6 <__addsf3+0x28>
    1196:	93 95       	inc	r25
    1198:	88 0f       	add	r24, r24
    119a:	08 f0       	brcs	.+2      	; 0x119e <__addsf3x+0xa2>
    119c:	99 27       	eor	r25, r25
    119e:	ee 0f       	add	r30, r30
    11a0:	97 95       	ror	r25
    11a2:	87 95       	ror	r24
    11a4:	08 95       	ret

000011a6 <__divsf3>:
    11a6:	0e 94 e7 08 	call	0x11ce	; 0x11ce <__divsf3x>
    11aa:	0c 94 99 09 	jmp	0x1332	; 0x1332 <__fp_round>
    11ae:	0e 94 92 09 	call	0x1324	; 0x1324 <__fp_pscB>
    11b2:	58 f0       	brcs	.+22     	; 0x11ca <__divsf3+0x24>
    11b4:	0e 94 8b 09 	call	0x1316	; 0x1316 <__fp_pscA>
    11b8:	40 f0       	brcs	.+16     	; 0x11ca <__divsf3+0x24>
    11ba:	29 f4       	brne	.+10     	; 0x11c6 <__divsf3+0x20>
    11bc:	5f 3f       	cpi	r21, 0xFF	; 255
    11be:	29 f0       	breq	.+10     	; 0x11ca <__divsf3+0x24>
    11c0:	0c 94 82 09 	jmp	0x1304	; 0x1304 <__fp_inf>
    11c4:	51 11       	cpse	r21, r1
    11c6:	0c 94 cd 09 	jmp	0x139a	; 0x139a <__fp_szero>
    11ca:	0c 94 88 09 	jmp	0x1310	; 0x1310 <__fp_nan>

000011ce <__divsf3x>:
    11ce:	0e 94 aa 09 	call	0x1354	; 0x1354 <__fp_split3>
    11d2:	68 f3       	brcs	.-38     	; 0x11ae <__divsf3+0x8>

000011d4 <__divsf3_pse>:
    11d4:	99 23       	and	r25, r25
    11d6:	b1 f3       	breq	.-20     	; 0x11c4 <__divsf3+0x1e>
    11d8:	55 23       	and	r21, r21
    11da:	91 f3       	breq	.-28     	; 0x11c0 <__divsf3+0x1a>
    11dc:	95 1b       	sub	r25, r21
    11de:	55 0b       	sbc	r21, r21
    11e0:	bb 27       	eor	r27, r27
    11e2:	aa 27       	eor	r26, r26
    11e4:	62 17       	cp	r22, r18
    11e6:	73 07       	cpc	r23, r19
    11e8:	84 07       	cpc	r24, r20
    11ea:	38 f0       	brcs	.+14     	; 0x11fa <__divsf3_pse+0x26>
    11ec:	9f 5f       	subi	r25, 0xFF	; 255
    11ee:	5f 4f       	sbci	r21, 0xFF	; 255
    11f0:	22 0f       	add	r18, r18
    11f2:	33 1f       	adc	r19, r19
    11f4:	44 1f       	adc	r20, r20
    11f6:	aa 1f       	adc	r26, r26
    11f8:	a9 f3       	breq	.-22     	; 0x11e4 <__divsf3_pse+0x10>
    11fa:	35 d0       	rcall	.+106    	; 0x1266 <__divsf3_pse+0x92>
    11fc:	0e 2e       	mov	r0, r30
    11fe:	3a f0       	brmi	.+14     	; 0x120e <__divsf3_pse+0x3a>
    1200:	e0 e8       	ldi	r30, 0x80	; 128
    1202:	32 d0       	rcall	.+100    	; 0x1268 <__divsf3_pse+0x94>
    1204:	91 50       	subi	r25, 0x01	; 1
    1206:	50 40       	sbci	r21, 0x00	; 0
    1208:	e6 95       	lsr	r30
    120a:	00 1c       	adc	r0, r0
    120c:	ca f7       	brpl	.-14     	; 0x1200 <__divsf3_pse+0x2c>
    120e:	2b d0       	rcall	.+86     	; 0x1266 <__divsf3_pse+0x92>
    1210:	fe 2f       	mov	r31, r30
    1212:	29 d0       	rcall	.+82     	; 0x1266 <__divsf3_pse+0x92>
    1214:	66 0f       	add	r22, r22
    1216:	77 1f       	adc	r23, r23
    1218:	88 1f       	adc	r24, r24
    121a:	bb 1f       	adc	r27, r27
    121c:	26 17       	cp	r18, r22
    121e:	37 07       	cpc	r19, r23
    1220:	48 07       	cpc	r20, r24
    1222:	ab 07       	cpc	r26, r27
    1224:	b0 e8       	ldi	r27, 0x80	; 128
    1226:	09 f0       	breq	.+2      	; 0x122a <__divsf3_pse+0x56>
    1228:	bb 0b       	sbc	r27, r27
    122a:	80 2d       	mov	r24, r0
    122c:	bf 01       	movw	r22, r30
    122e:	ff 27       	eor	r31, r31
    1230:	93 58       	subi	r25, 0x83	; 131
    1232:	5f 4f       	sbci	r21, 0xFF	; 255
    1234:	3a f0       	brmi	.+14     	; 0x1244 <__divsf3_pse+0x70>
    1236:	9e 3f       	cpi	r25, 0xFE	; 254
    1238:	51 05       	cpc	r21, r1
    123a:	78 f0       	brcs	.+30     	; 0x125a <__divsf3_pse+0x86>
    123c:	0c 94 82 09 	jmp	0x1304	; 0x1304 <__fp_inf>
    1240:	0c 94 cd 09 	jmp	0x139a	; 0x139a <__fp_szero>
    1244:	5f 3f       	cpi	r21, 0xFF	; 255
    1246:	e4 f3       	brlt	.-8      	; 0x1240 <__divsf3_pse+0x6c>
    1248:	98 3e       	cpi	r25, 0xE8	; 232
    124a:	d4 f3       	brlt	.-12     	; 0x1240 <__divsf3_pse+0x6c>
    124c:	86 95       	lsr	r24
    124e:	77 95       	ror	r23
    1250:	67 95       	ror	r22
    1252:	b7 95       	ror	r27
    1254:	f7 95       	ror	r31
    1256:	9f 5f       	subi	r25, 0xFF	; 255
    1258:	c9 f7       	brne	.-14     	; 0x124c <__divsf3_pse+0x78>
    125a:	88 0f       	add	r24, r24
    125c:	91 1d       	adc	r25, r1
    125e:	96 95       	lsr	r25
    1260:	87 95       	ror	r24
    1262:	97 f9       	bld	r25, 7
    1264:	08 95       	ret
    1266:	e1 e0       	ldi	r30, 0x01	; 1
    1268:	66 0f       	add	r22, r22
    126a:	77 1f       	adc	r23, r23
    126c:	88 1f       	adc	r24, r24
    126e:	bb 1f       	adc	r27, r27
    1270:	62 17       	cp	r22, r18
    1272:	73 07       	cpc	r23, r19
    1274:	84 07       	cpc	r24, r20
    1276:	ba 07       	cpc	r27, r26
    1278:	20 f0       	brcs	.+8      	; 0x1282 <__divsf3_pse+0xae>
    127a:	62 1b       	sub	r22, r18
    127c:	73 0b       	sbc	r23, r19
    127e:	84 0b       	sbc	r24, r20
    1280:	ba 0b       	sbc	r27, r26
    1282:	ee 1f       	adc	r30, r30
    1284:	88 f7       	brcc	.-30     	; 0x1268 <__divsf3_pse+0x94>
    1286:	e0 95       	com	r30
    1288:	08 95       	ret

0000128a <__floatunsisf>:
    128a:	e8 94       	clt
    128c:	09 c0       	rjmp	.+18     	; 0x12a0 <__floatsisf+0x12>

0000128e <__floatsisf>:
    128e:	97 fb       	bst	r25, 7
    1290:	3e f4       	brtc	.+14     	; 0x12a0 <__floatsisf+0x12>
    1292:	90 95       	com	r25
    1294:	80 95       	com	r24
    1296:	70 95       	com	r23
    1298:	61 95       	neg	r22
    129a:	7f 4f       	sbci	r23, 0xFF	; 255
    129c:	8f 4f       	sbci	r24, 0xFF	; 255
    129e:	9f 4f       	sbci	r25, 0xFF	; 255
    12a0:	99 23       	and	r25, r25
    12a2:	a9 f0       	breq	.+42     	; 0x12ce <__floatsisf+0x40>
    12a4:	f9 2f       	mov	r31, r25
    12a6:	96 e9       	ldi	r25, 0x96	; 150
    12a8:	bb 27       	eor	r27, r27
    12aa:	93 95       	inc	r25
    12ac:	f6 95       	lsr	r31
    12ae:	87 95       	ror	r24
    12b0:	77 95       	ror	r23
    12b2:	67 95       	ror	r22
    12b4:	b7 95       	ror	r27
    12b6:	f1 11       	cpse	r31, r1
    12b8:	f8 cf       	rjmp	.-16     	; 0x12aa <__floatsisf+0x1c>
    12ba:	fa f4       	brpl	.+62     	; 0x12fa <__floatsisf+0x6c>
    12bc:	bb 0f       	add	r27, r27
    12be:	11 f4       	brne	.+4      	; 0x12c4 <__floatsisf+0x36>
    12c0:	60 ff       	sbrs	r22, 0
    12c2:	1b c0       	rjmp	.+54     	; 0x12fa <__floatsisf+0x6c>
    12c4:	6f 5f       	subi	r22, 0xFF	; 255
    12c6:	7f 4f       	sbci	r23, 0xFF	; 255
    12c8:	8f 4f       	sbci	r24, 0xFF	; 255
    12ca:	9f 4f       	sbci	r25, 0xFF	; 255
    12cc:	16 c0       	rjmp	.+44     	; 0x12fa <__floatsisf+0x6c>
    12ce:	88 23       	and	r24, r24
    12d0:	11 f0       	breq	.+4      	; 0x12d6 <__floatsisf+0x48>
    12d2:	96 e9       	ldi	r25, 0x96	; 150
    12d4:	11 c0       	rjmp	.+34     	; 0x12f8 <__floatsisf+0x6a>
    12d6:	77 23       	and	r23, r23
    12d8:	21 f0       	breq	.+8      	; 0x12e2 <__floatsisf+0x54>
    12da:	9e e8       	ldi	r25, 0x8E	; 142
    12dc:	87 2f       	mov	r24, r23
    12de:	76 2f       	mov	r23, r22
    12e0:	05 c0       	rjmp	.+10     	; 0x12ec <__floatsisf+0x5e>
    12e2:	66 23       	and	r22, r22
    12e4:	71 f0       	breq	.+28     	; 0x1302 <__floatsisf+0x74>
    12e6:	96 e8       	ldi	r25, 0x86	; 134
    12e8:	86 2f       	mov	r24, r22
    12ea:	70 e0       	ldi	r23, 0x00	; 0
    12ec:	60 e0       	ldi	r22, 0x00	; 0
    12ee:	2a f0       	brmi	.+10     	; 0x12fa <__floatsisf+0x6c>
    12f0:	9a 95       	dec	r25
    12f2:	66 0f       	add	r22, r22
    12f4:	77 1f       	adc	r23, r23
    12f6:	88 1f       	adc	r24, r24
    12f8:	da f7       	brpl	.-10     	; 0x12f0 <__floatsisf+0x62>
    12fa:	88 0f       	add	r24, r24
    12fc:	96 95       	lsr	r25
    12fe:	87 95       	ror	r24
    1300:	97 f9       	bld	r25, 7
    1302:	08 95       	ret

00001304 <__fp_inf>:
    1304:	97 f9       	bld	r25, 7
    1306:	9f 67       	ori	r25, 0x7F	; 127
    1308:	80 e8       	ldi	r24, 0x80	; 128
    130a:	70 e0       	ldi	r23, 0x00	; 0
    130c:	60 e0       	ldi	r22, 0x00	; 0
    130e:	08 95       	ret

00001310 <__fp_nan>:
    1310:	9f ef       	ldi	r25, 0xFF	; 255
    1312:	80 ec       	ldi	r24, 0xC0	; 192
    1314:	08 95       	ret

00001316 <__fp_pscA>:
    1316:	00 24       	eor	r0, r0
    1318:	0a 94       	dec	r0
    131a:	16 16       	cp	r1, r22
    131c:	17 06       	cpc	r1, r23
    131e:	18 06       	cpc	r1, r24
    1320:	09 06       	cpc	r0, r25
    1322:	08 95       	ret

00001324 <__fp_pscB>:
    1324:	00 24       	eor	r0, r0
    1326:	0a 94       	dec	r0
    1328:	12 16       	cp	r1, r18
    132a:	13 06       	cpc	r1, r19
    132c:	14 06       	cpc	r1, r20
    132e:	05 06       	cpc	r0, r21
    1330:	08 95       	ret

00001332 <__fp_round>:
    1332:	09 2e       	mov	r0, r25
    1334:	03 94       	inc	r0
    1336:	00 0c       	add	r0, r0
    1338:	11 f4       	brne	.+4      	; 0x133e <__fp_round+0xc>
    133a:	88 23       	and	r24, r24
    133c:	52 f0       	brmi	.+20     	; 0x1352 <__fp_round+0x20>
    133e:	bb 0f       	add	r27, r27
    1340:	40 f4       	brcc	.+16     	; 0x1352 <__fp_round+0x20>
    1342:	bf 2b       	or	r27, r31
    1344:	11 f4       	brne	.+4      	; 0x134a <__fp_round+0x18>
    1346:	60 ff       	sbrs	r22, 0
    1348:	04 c0       	rjmp	.+8      	; 0x1352 <__fp_round+0x20>
    134a:	6f 5f       	subi	r22, 0xFF	; 255
    134c:	7f 4f       	sbci	r23, 0xFF	; 255
    134e:	8f 4f       	sbci	r24, 0xFF	; 255
    1350:	9f 4f       	sbci	r25, 0xFF	; 255
    1352:	08 95       	ret

00001354 <__fp_split3>:
    1354:	57 fd       	sbrc	r21, 7
    1356:	90 58       	subi	r25, 0x80	; 128
    1358:	44 0f       	add	r20, r20
    135a:	55 1f       	adc	r21, r21
    135c:	59 f0       	breq	.+22     	; 0x1374 <__fp_splitA+0x10>
    135e:	5f 3f       	cpi	r21, 0xFF	; 255
    1360:	71 f0       	breq	.+28     	; 0x137e <__fp_splitA+0x1a>
    1362:	47 95       	ror	r20

00001364 <__fp_splitA>:
    1364:	88 0f       	add	r24, r24
    1366:	97 fb       	bst	r25, 7
    1368:	99 1f       	adc	r25, r25
    136a:	61 f0       	breq	.+24     	; 0x1384 <__fp_splitA+0x20>
    136c:	9f 3f       	cpi	r25, 0xFF	; 255
    136e:	79 f0       	breq	.+30     	; 0x138e <__fp_splitA+0x2a>
    1370:	87 95       	ror	r24
    1372:	08 95       	ret
    1374:	12 16       	cp	r1, r18
    1376:	13 06       	cpc	r1, r19
    1378:	14 06       	cpc	r1, r20
    137a:	55 1f       	adc	r21, r21
    137c:	f2 cf       	rjmp	.-28     	; 0x1362 <__fp_split3+0xe>
    137e:	46 95       	lsr	r20
    1380:	f1 df       	rcall	.-30     	; 0x1364 <__fp_splitA>
    1382:	08 c0       	rjmp	.+16     	; 0x1394 <__fp_splitA+0x30>
    1384:	16 16       	cp	r1, r22
    1386:	17 06       	cpc	r1, r23
    1388:	18 06       	cpc	r1, r24
    138a:	99 1f       	adc	r25, r25
    138c:	f1 cf       	rjmp	.-30     	; 0x1370 <__fp_splitA+0xc>
    138e:	86 95       	lsr	r24
    1390:	71 05       	cpc	r23, r1
    1392:	61 05       	cpc	r22, r1
    1394:	08 94       	sec
    1396:	08 95       	ret

00001398 <__fp_zero>:
    1398:	e8 94       	clt

0000139a <__fp_szero>:
    139a:	bb 27       	eor	r27, r27
    139c:	66 27       	eor	r22, r22
    139e:	77 27       	eor	r23, r23
    13a0:	cb 01       	movw	r24, r22
    13a2:	97 f9       	bld	r25, 7
    13a4:	08 95       	ret

000013a6 <__mulsf3>:
    13a6:	0e 94 e6 09 	call	0x13cc	; 0x13cc <__mulsf3x>
    13aa:	0c 94 99 09 	jmp	0x1332	; 0x1332 <__fp_round>
    13ae:	0e 94 8b 09 	call	0x1316	; 0x1316 <__fp_pscA>
    13b2:	38 f0       	brcs	.+14     	; 0x13c2 <__mulsf3+0x1c>
    13b4:	0e 94 92 09 	call	0x1324	; 0x1324 <__fp_pscB>
    13b8:	20 f0       	brcs	.+8      	; 0x13c2 <__mulsf3+0x1c>
    13ba:	95 23       	and	r25, r21
    13bc:	11 f0       	breq	.+4      	; 0x13c2 <__mulsf3+0x1c>
    13be:	0c 94 82 09 	jmp	0x1304	; 0x1304 <__fp_inf>
    13c2:	0c 94 88 09 	jmp	0x1310	; 0x1310 <__fp_nan>
    13c6:	11 24       	eor	r1, r1
    13c8:	0c 94 cd 09 	jmp	0x139a	; 0x139a <__fp_szero>

000013cc <__mulsf3x>:
    13cc:	0e 94 aa 09 	call	0x1354	; 0x1354 <__fp_split3>
    13d0:	70 f3       	brcs	.-36     	; 0x13ae <__mulsf3+0x8>

000013d2 <__mulsf3_pse>:
    13d2:	95 9f       	mul	r25, r21
    13d4:	c1 f3       	breq	.-16     	; 0x13c6 <__mulsf3+0x20>
    13d6:	95 0f       	add	r25, r21
    13d8:	50 e0       	ldi	r21, 0x00	; 0
    13da:	55 1f       	adc	r21, r21
    13dc:	62 9f       	mul	r22, r18
    13de:	f0 01       	movw	r30, r0
    13e0:	72 9f       	mul	r23, r18
    13e2:	bb 27       	eor	r27, r27
    13e4:	f0 0d       	add	r31, r0
    13e6:	b1 1d       	adc	r27, r1
    13e8:	63 9f       	mul	r22, r19
    13ea:	aa 27       	eor	r26, r26
    13ec:	f0 0d       	add	r31, r0
    13ee:	b1 1d       	adc	r27, r1
    13f0:	aa 1f       	adc	r26, r26
    13f2:	64 9f       	mul	r22, r20
    13f4:	66 27       	eor	r22, r22
    13f6:	b0 0d       	add	r27, r0
    13f8:	a1 1d       	adc	r26, r1
    13fa:	66 1f       	adc	r22, r22
    13fc:	82 9f       	mul	r24, r18
    13fe:	22 27       	eor	r18, r18
    1400:	b0 0d       	add	r27, r0
    1402:	a1 1d       	adc	r26, r1
    1404:	62 1f       	adc	r22, r18
    1406:	73 9f       	mul	r23, r19
    1408:	b0 0d       	add	r27, r0
    140a:	a1 1d       	adc	r26, r1
    140c:	62 1f       	adc	r22, r18
    140e:	83 9f       	mul	r24, r19
    1410:	a0 0d       	add	r26, r0
    1412:	61 1d       	adc	r22, r1
    1414:	22 1f       	adc	r18, r18
    1416:	74 9f       	mul	r23, r20
    1418:	33 27       	eor	r19, r19
    141a:	a0 0d       	add	r26, r0
    141c:	61 1d       	adc	r22, r1
    141e:	23 1f       	adc	r18, r19
    1420:	84 9f       	mul	r24, r20
    1422:	60 0d       	add	r22, r0
    1424:	21 1d       	adc	r18, r1
    1426:	82 2f       	mov	r24, r18
    1428:	76 2f       	mov	r23, r22
    142a:	6a 2f       	mov	r22, r26
    142c:	11 24       	eor	r1, r1
    142e:	9f 57       	subi	r25, 0x7F	; 127
    1430:	50 40       	sbci	r21, 0x00	; 0
    1432:	9a f0       	brmi	.+38     	; 0x145a <__mulsf3_pse+0x88>
    1434:	f1 f0       	breq	.+60     	; 0x1472 <__mulsf3_pse+0xa0>
    1436:	88 23       	and	r24, r24
    1438:	4a f0       	brmi	.+18     	; 0x144c <__mulsf3_pse+0x7a>
    143a:	ee 0f       	add	r30, r30
    143c:	ff 1f       	adc	r31, r31
    143e:	bb 1f       	adc	r27, r27
    1440:	66 1f       	adc	r22, r22
    1442:	77 1f       	adc	r23, r23
    1444:	88 1f       	adc	r24, r24
    1446:	91 50       	subi	r25, 0x01	; 1
    1448:	50 40       	sbci	r21, 0x00	; 0
    144a:	a9 f7       	brne	.-22     	; 0x1436 <__mulsf3_pse+0x64>
    144c:	9e 3f       	cpi	r25, 0xFE	; 254
    144e:	51 05       	cpc	r21, r1
    1450:	80 f0       	brcs	.+32     	; 0x1472 <__mulsf3_pse+0xa0>
    1452:	0c 94 82 09 	jmp	0x1304	; 0x1304 <__fp_inf>
    1456:	0c 94 cd 09 	jmp	0x139a	; 0x139a <__fp_szero>
    145a:	5f 3f       	cpi	r21, 0xFF	; 255
    145c:	e4 f3       	brlt	.-8      	; 0x1456 <__mulsf3_pse+0x84>
    145e:	98 3e       	cpi	r25, 0xE8	; 232
    1460:	d4 f3       	brlt	.-12     	; 0x1456 <__mulsf3_pse+0x84>
    1462:	86 95       	lsr	r24
    1464:	77 95       	ror	r23
    1466:	67 95       	ror	r22
    1468:	b7 95       	ror	r27
    146a:	f7 95       	ror	r31
    146c:	e7 95       	ror	r30
    146e:	9f 5f       	subi	r25, 0xFF	; 255
    1470:	c1 f7       	brne	.-16     	; 0x1462 <__mulsf3_pse+0x90>
    1472:	fe 2b       	or	r31, r30
    1474:	88 0f       	add	r24, r24
    1476:	91 1d       	adc	r25, r1
    1478:	96 95       	lsr	r25
    147a:	87 95       	ror	r24
    147c:	97 f9       	bld	r25, 7
    147e:	08 95       	ret

00001480 <vfprintf>:
    1480:	a3 e1       	ldi	r26, 0x13	; 19
    1482:	b0 e0       	ldi	r27, 0x00	; 0
    1484:	e6 e4       	ldi	r30, 0x46	; 70
    1486:	fa e0       	ldi	r31, 0x0A	; 10
    1488:	0c 94 11 0e 	jmp	0x1c22	; 0x1c22 <__prologue_saves__>
    148c:	6c 01       	movw	r12, r24
    148e:	4b 01       	movw	r8, r22
    1490:	2a 01       	movw	r4, r20
    1492:	fc 01       	movw	r30, r24
    1494:	17 82       	std	Z+7, r1	; 0x07
    1496:	16 82       	std	Z+6, r1	; 0x06
    1498:	83 81       	ldd	r24, Z+3	; 0x03
    149a:	81 ff       	sbrs	r24, 1
    149c:	43 c3       	rjmp	.+1670   	; 0x1b24 <vfprintf+0x6a4>
    149e:	ae 01       	movw	r20, r28
    14a0:	4f 5f       	subi	r20, 0xFF	; 255
    14a2:	5f 4f       	sbci	r21, 0xFF	; 255
    14a4:	3a 01       	movw	r6, r20
    14a6:	f6 01       	movw	r30, r12
    14a8:	93 81       	ldd	r25, Z+3	; 0x03
    14aa:	f4 01       	movw	r30, r8
    14ac:	93 fd       	sbrc	r25, 3
    14ae:	85 91       	lpm	r24, Z+
    14b0:	93 ff       	sbrs	r25, 3
    14b2:	81 91       	ld	r24, Z+
    14b4:	4f 01       	movw	r8, r30
    14b6:	88 23       	and	r24, r24
    14b8:	09 f4       	brne	.+2      	; 0x14bc <vfprintf+0x3c>
    14ba:	30 c3       	rjmp	.+1632   	; 0x1b1c <vfprintf+0x69c>
    14bc:	85 32       	cpi	r24, 0x25	; 37
    14be:	39 f4       	brne	.+14     	; 0x14ce <vfprintf+0x4e>
    14c0:	93 fd       	sbrc	r25, 3
    14c2:	85 91       	lpm	r24, Z+
    14c4:	93 ff       	sbrs	r25, 3
    14c6:	81 91       	ld	r24, Z+
    14c8:	4f 01       	movw	r8, r30
    14ca:	85 32       	cpi	r24, 0x25	; 37
    14cc:	39 f4       	brne	.+14     	; 0x14dc <vfprintf+0x5c>
    14ce:	b6 01       	movw	r22, r12
    14d0:	90 e0       	ldi	r25, 0x00	; 0
    14d2:	0e 94 86 12 	call	0x250c	; 0x250c <fputc>
    14d6:	52 01       	movw	r10, r4
    14d8:	25 01       	movw	r4, r10
    14da:	e5 cf       	rjmp	.-54     	; 0x14a6 <vfprintf+0x26>
    14dc:	10 e0       	ldi	r17, 0x00	; 0
    14de:	f1 2c       	mov	r15, r1
    14e0:	20 e0       	ldi	r18, 0x00	; 0
    14e2:	20 32       	cpi	r18, 0x20	; 32
    14e4:	a0 f4       	brcc	.+40     	; 0x150e <vfprintf+0x8e>
    14e6:	8b 32       	cpi	r24, 0x2B	; 43
    14e8:	69 f0       	breq	.+26     	; 0x1504 <vfprintf+0x84>
    14ea:	30 f4       	brcc	.+12     	; 0x14f8 <vfprintf+0x78>
    14ec:	80 32       	cpi	r24, 0x20	; 32
    14ee:	59 f0       	breq	.+22     	; 0x1506 <vfprintf+0x86>
    14f0:	83 32       	cpi	r24, 0x23	; 35
    14f2:	69 f4       	brne	.+26     	; 0x150e <vfprintf+0x8e>
    14f4:	20 61       	ori	r18, 0x10	; 16
    14f6:	2c c0       	rjmp	.+88     	; 0x1550 <vfprintf+0xd0>
    14f8:	8d 32       	cpi	r24, 0x2D	; 45
    14fa:	39 f0       	breq	.+14     	; 0x150a <vfprintf+0x8a>
    14fc:	80 33       	cpi	r24, 0x30	; 48
    14fe:	39 f4       	brne	.+14     	; 0x150e <vfprintf+0x8e>
    1500:	21 60       	ori	r18, 0x01	; 1
    1502:	26 c0       	rjmp	.+76     	; 0x1550 <vfprintf+0xd0>
    1504:	22 60       	ori	r18, 0x02	; 2
    1506:	24 60       	ori	r18, 0x04	; 4
    1508:	23 c0       	rjmp	.+70     	; 0x1550 <vfprintf+0xd0>
    150a:	28 60       	ori	r18, 0x08	; 8
    150c:	21 c0       	rjmp	.+66     	; 0x1550 <vfprintf+0xd0>
    150e:	27 fd       	sbrc	r18, 7
    1510:	27 c0       	rjmp	.+78     	; 0x1560 <vfprintf+0xe0>
    1512:	30 ed       	ldi	r19, 0xD0	; 208
    1514:	38 0f       	add	r19, r24
    1516:	3a 30       	cpi	r19, 0x0A	; 10
    1518:	78 f4       	brcc	.+30     	; 0x1538 <vfprintf+0xb8>
    151a:	26 ff       	sbrs	r18, 6
    151c:	06 c0       	rjmp	.+12     	; 0x152a <vfprintf+0xaa>
    151e:	fa e0       	ldi	r31, 0x0A	; 10
    1520:	1f 9f       	mul	r17, r31
    1522:	30 0d       	add	r19, r0
    1524:	11 24       	eor	r1, r1
    1526:	13 2f       	mov	r17, r19
    1528:	13 c0       	rjmp	.+38     	; 0x1550 <vfprintf+0xd0>
    152a:	4a e0       	ldi	r20, 0x0A	; 10
    152c:	f4 9e       	mul	r15, r20
    152e:	30 0d       	add	r19, r0
    1530:	11 24       	eor	r1, r1
    1532:	f3 2e       	mov	r15, r19
    1534:	20 62       	ori	r18, 0x20	; 32
    1536:	0c c0       	rjmp	.+24     	; 0x1550 <vfprintf+0xd0>
    1538:	8e 32       	cpi	r24, 0x2E	; 46
    153a:	21 f4       	brne	.+8      	; 0x1544 <vfprintf+0xc4>
    153c:	26 fd       	sbrc	r18, 6
    153e:	ee c2       	rjmp	.+1500   	; 0x1b1c <vfprintf+0x69c>
    1540:	20 64       	ori	r18, 0x40	; 64
    1542:	06 c0       	rjmp	.+12     	; 0x1550 <vfprintf+0xd0>
    1544:	8c 36       	cpi	r24, 0x6C	; 108
    1546:	11 f4       	brne	.+4      	; 0x154c <vfprintf+0xcc>
    1548:	20 68       	ori	r18, 0x80	; 128
    154a:	02 c0       	rjmp	.+4      	; 0x1550 <vfprintf+0xd0>
    154c:	88 36       	cpi	r24, 0x68	; 104
    154e:	41 f4       	brne	.+16     	; 0x1560 <vfprintf+0xe0>
    1550:	f4 01       	movw	r30, r8
    1552:	93 fd       	sbrc	r25, 3
    1554:	85 91       	lpm	r24, Z+
    1556:	93 ff       	sbrs	r25, 3
    1558:	81 91       	ld	r24, Z+
    155a:	4f 01       	movw	r8, r30
    155c:	81 11       	cpse	r24, r1
    155e:	c1 cf       	rjmp	.-126    	; 0x14e2 <vfprintf+0x62>
    1560:	9b eb       	ldi	r25, 0xBB	; 187
    1562:	98 0f       	add	r25, r24
    1564:	93 30       	cpi	r25, 0x03	; 3
    1566:	18 f4       	brcc	.+6      	; 0x156e <vfprintf+0xee>
    1568:	20 61       	ori	r18, 0x10	; 16
    156a:	80 5e       	subi	r24, 0xE0	; 224
    156c:	06 c0       	rjmp	.+12     	; 0x157a <vfprintf+0xfa>
    156e:	9b e9       	ldi	r25, 0x9B	; 155
    1570:	98 0f       	add	r25, r24
    1572:	93 30       	cpi	r25, 0x03	; 3
    1574:	08 f0       	brcs	.+2      	; 0x1578 <vfprintf+0xf8>
    1576:	71 c1       	rjmp	.+738    	; 0x185a <vfprintf+0x3da>
    1578:	2f 7e       	andi	r18, 0xEF	; 239
    157a:	26 ff       	sbrs	r18, 6
    157c:	16 e0       	ldi	r17, 0x06	; 6
    157e:	2f 73       	andi	r18, 0x3F	; 63
    1580:	32 2e       	mov	r3, r18
    1582:	85 36       	cpi	r24, 0x65	; 101
    1584:	19 f4       	brne	.+6      	; 0x158c <vfprintf+0x10c>
    1586:	20 64       	ori	r18, 0x40	; 64
    1588:	32 2e       	mov	r3, r18
    158a:	08 c0       	rjmp	.+16     	; 0x159c <vfprintf+0x11c>
    158c:	86 36       	cpi	r24, 0x66	; 102
    158e:	21 f4       	brne	.+8      	; 0x1598 <vfprintf+0x118>
    1590:	f2 2f       	mov	r31, r18
    1592:	f0 68       	ori	r31, 0x80	; 128
    1594:	3f 2e       	mov	r3, r31
    1596:	02 c0       	rjmp	.+4      	; 0x159c <vfprintf+0x11c>
    1598:	11 11       	cpse	r17, r1
    159a:	11 50       	subi	r17, 0x01	; 1
    159c:	37 fe       	sbrs	r3, 7
    159e:	07 c0       	rjmp	.+14     	; 0x15ae <vfprintf+0x12e>
    15a0:	1c 33       	cpi	r17, 0x3C	; 60
    15a2:	50 f4       	brcc	.+20     	; 0x15b8 <vfprintf+0x138>
    15a4:	ee 24       	eor	r14, r14
    15a6:	e3 94       	inc	r14
    15a8:	e1 0e       	add	r14, r17
    15aa:	27 e0       	ldi	r18, 0x07	; 7
    15ac:	0b c0       	rjmp	.+22     	; 0x15c4 <vfprintf+0x144>
    15ae:	18 30       	cpi	r17, 0x08	; 8
    15b0:	38 f0       	brcs	.+14     	; 0x15c0 <vfprintf+0x140>
    15b2:	27 e0       	ldi	r18, 0x07	; 7
    15b4:	17 e0       	ldi	r17, 0x07	; 7
    15b6:	05 c0       	rjmp	.+10     	; 0x15c2 <vfprintf+0x142>
    15b8:	27 e0       	ldi	r18, 0x07	; 7
    15ba:	4c e3       	ldi	r20, 0x3C	; 60
    15bc:	e4 2e       	mov	r14, r20
    15be:	02 c0       	rjmp	.+4      	; 0x15c4 <vfprintf+0x144>
    15c0:	21 2f       	mov	r18, r17
    15c2:	e1 2c       	mov	r14, r1
    15c4:	52 01       	movw	r10, r4
    15c6:	44 e0       	ldi	r20, 0x04	; 4
    15c8:	a4 0e       	add	r10, r20
    15ca:	b1 1c       	adc	r11, r1
    15cc:	f2 01       	movw	r30, r4
    15ce:	60 81       	ld	r22, Z
    15d0:	71 81       	ldd	r23, Z+1	; 0x01
    15d2:	82 81       	ldd	r24, Z+2	; 0x02
    15d4:	93 81       	ldd	r25, Z+3	; 0x03
    15d6:	0e 2d       	mov	r16, r14
    15d8:	a3 01       	movw	r20, r6
    15da:	0e 94 68 11 	call	0x22d0	; 0x22d0 <__ftoa_engine>
    15de:	2c 01       	movw	r4, r24
    15e0:	09 81       	ldd	r16, Y+1	; 0x01
    15e2:	00 ff       	sbrs	r16, 0
    15e4:	02 c0       	rjmp	.+4      	; 0x15ea <vfprintf+0x16a>
    15e6:	03 ff       	sbrs	r16, 3
    15e8:	07 c0       	rjmp	.+14     	; 0x15f8 <vfprintf+0x178>
    15ea:	31 fc       	sbrc	r3, 1
    15ec:	08 c0       	rjmp	.+16     	; 0x15fe <vfprintf+0x17e>
    15ee:	32 fe       	sbrs	r3, 2
    15f0:	09 c0       	rjmp	.+18     	; 0x1604 <vfprintf+0x184>
    15f2:	30 e2       	ldi	r19, 0x20	; 32
    15f4:	23 2e       	mov	r2, r19
    15f6:	07 c0       	rjmp	.+14     	; 0x1606 <vfprintf+0x186>
    15f8:	2d e2       	ldi	r18, 0x2D	; 45
    15fa:	22 2e       	mov	r2, r18
    15fc:	04 c0       	rjmp	.+8      	; 0x1606 <vfprintf+0x186>
    15fe:	9b e2       	ldi	r25, 0x2B	; 43
    1600:	29 2e       	mov	r2, r25
    1602:	01 c0       	rjmp	.+2      	; 0x1606 <vfprintf+0x186>
    1604:	21 2c       	mov	r2, r1
    1606:	80 2f       	mov	r24, r16
    1608:	8c 70       	andi	r24, 0x0C	; 12
    160a:	19 f0       	breq	.+6      	; 0x1612 <vfprintf+0x192>
    160c:	21 10       	cpse	r2, r1
    160e:	68 c2       	rjmp	.+1232   	; 0x1ae0 <vfprintf+0x660>
    1610:	a8 c2       	rjmp	.+1360   	; 0x1b62 <vfprintf+0x6e2>
    1612:	37 fe       	sbrs	r3, 7
    1614:	0f c0       	rjmp	.+30     	; 0x1634 <vfprintf+0x1b4>
    1616:	e4 0c       	add	r14, r4
    1618:	04 ff       	sbrs	r16, 4
    161a:	04 c0       	rjmp	.+8      	; 0x1624 <vfprintf+0x1a4>
    161c:	8a 81       	ldd	r24, Y+2	; 0x02
    161e:	81 33       	cpi	r24, 0x31	; 49
    1620:	09 f4       	brne	.+2      	; 0x1624 <vfprintf+0x1a4>
    1622:	ea 94       	dec	r14
    1624:	1e 14       	cp	r1, r14
    1626:	74 f5       	brge	.+92     	; 0x1684 <vfprintf+0x204>
    1628:	f8 e0       	ldi	r31, 0x08	; 8
    162a:	fe 15       	cp	r31, r14
    162c:	78 f5       	brcc	.+94     	; 0x168c <vfprintf+0x20c>
    162e:	88 e0       	ldi	r24, 0x08	; 8
    1630:	e8 2e       	mov	r14, r24
    1632:	2c c0       	rjmp	.+88     	; 0x168c <vfprintf+0x20c>
    1634:	36 fc       	sbrc	r3, 6
    1636:	2a c0       	rjmp	.+84     	; 0x168c <vfprintf+0x20c>
    1638:	81 2f       	mov	r24, r17
    163a:	90 e0       	ldi	r25, 0x00	; 0
    163c:	84 15       	cp	r24, r4
    163e:	95 05       	cpc	r25, r5
    1640:	9c f0       	brlt	.+38     	; 0x1668 <vfprintf+0x1e8>
    1642:	2c ef       	ldi	r18, 0xFC	; 252
    1644:	42 16       	cp	r4, r18
    1646:	2f ef       	ldi	r18, 0xFF	; 255
    1648:	52 06       	cpc	r5, r18
    164a:	74 f0       	brlt	.+28     	; 0x1668 <vfprintf+0x1e8>
    164c:	43 2d       	mov	r20, r3
    164e:	40 68       	ori	r20, 0x80	; 128
    1650:	34 2e       	mov	r3, r20
    1652:	0a c0       	rjmp	.+20     	; 0x1668 <vfprintf+0x1e8>
    1654:	e2 e0       	ldi	r30, 0x02	; 2
    1656:	f0 e0       	ldi	r31, 0x00	; 0
    1658:	ec 0f       	add	r30, r28
    165a:	fd 1f       	adc	r31, r29
    165c:	e1 0f       	add	r30, r17
    165e:	f1 1d       	adc	r31, r1
    1660:	80 81       	ld	r24, Z
    1662:	80 33       	cpi	r24, 0x30	; 48
    1664:	19 f4       	brne	.+6      	; 0x166c <vfprintf+0x1ec>
    1666:	11 50       	subi	r17, 0x01	; 1
    1668:	11 11       	cpse	r17, r1
    166a:	f4 cf       	rjmp	.-24     	; 0x1654 <vfprintf+0x1d4>
    166c:	37 fe       	sbrs	r3, 7
    166e:	0e c0       	rjmp	.+28     	; 0x168c <vfprintf+0x20c>
    1670:	ee 24       	eor	r14, r14
    1672:	e3 94       	inc	r14
    1674:	e1 0e       	add	r14, r17
    1676:	81 2f       	mov	r24, r17
    1678:	90 e0       	ldi	r25, 0x00	; 0
    167a:	48 16       	cp	r4, r24
    167c:	59 06       	cpc	r5, r25
    167e:	2c f4       	brge	.+10     	; 0x168a <vfprintf+0x20a>
    1680:	14 19       	sub	r17, r4
    1682:	04 c0       	rjmp	.+8      	; 0x168c <vfprintf+0x20c>
    1684:	ee 24       	eor	r14, r14
    1686:	e3 94       	inc	r14
    1688:	01 c0       	rjmp	.+2      	; 0x168c <vfprintf+0x20c>
    168a:	10 e0       	ldi	r17, 0x00	; 0
    168c:	37 fe       	sbrs	r3, 7
    168e:	06 c0       	rjmp	.+12     	; 0x169c <vfprintf+0x21c>
    1690:	14 14       	cp	r1, r4
    1692:	15 04       	cpc	r1, r5
    1694:	34 f4       	brge	.+12     	; 0x16a2 <vfprintf+0x222>
    1696:	c2 01       	movw	r24, r4
    1698:	01 96       	adiw	r24, 0x01	; 1
    169a:	05 c0       	rjmp	.+10     	; 0x16a6 <vfprintf+0x226>
    169c:	85 e0       	ldi	r24, 0x05	; 5
    169e:	90 e0       	ldi	r25, 0x00	; 0
    16a0:	02 c0       	rjmp	.+4      	; 0x16a6 <vfprintf+0x226>
    16a2:	81 e0       	ldi	r24, 0x01	; 1
    16a4:	90 e0       	ldi	r25, 0x00	; 0
    16a6:	21 10       	cpse	r2, r1
    16a8:	01 96       	adiw	r24, 0x01	; 1
    16aa:	11 23       	and	r17, r17
    16ac:	31 f0       	breq	.+12     	; 0x16ba <vfprintf+0x23a>
    16ae:	21 2f       	mov	r18, r17
    16b0:	30 e0       	ldi	r19, 0x00	; 0
    16b2:	2f 5f       	subi	r18, 0xFF	; 255
    16b4:	3f 4f       	sbci	r19, 0xFF	; 255
    16b6:	82 0f       	add	r24, r18
    16b8:	93 1f       	adc	r25, r19
    16ba:	2f 2d       	mov	r18, r15
    16bc:	30 e0       	ldi	r19, 0x00	; 0
    16be:	82 17       	cp	r24, r18
    16c0:	93 07       	cpc	r25, r19
    16c2:	14 f4       	brge	.+4      	; 0x16c8 <vfprintf+0x248>
    16c4:	f8 1a       	sub	r15, r24
    16c6:	01 c0       	rjmp	.+2      	; 0x16ca <vfprintf+0x24a>
    16c8:	f1 2c       	mov	r15, r1
    16ca:	83 2d       	mov	r24, r3
    16cc:	89 70       	andi	r24, 0x09	; 9
    16ce:	49 f4       	brne	.+18     	; 0x16e2 <vfprintf+0x262>
    16d0:	ff 20       	and	r15, r15
    16d2:	39 f0       	breq	.+14     	; 0x16e2 <vfprintf+0x262>
    16d4:	b6 01       	movw	r22, r12
    16d6:	80 e2       	ldi	r24, 0x20	; 32
    16d8:	90 e0       	ldi	r25, 0x00	; 0
    16da:	0e 94 86 12 	call	0x250c	; 0x250c <fputc>
    16de:	fa 94       	dec	r15
    16e0:	f7 cf       	rjmp	.-18     	; 0x16d0 <vfprintf+0x250>
    16e2:	22 20       	and	r2, r2
    16e4:	29 f0       	breq	.+10     	; 0x16f0 <vfprintf+0x270>
    16e6:	b6 01       	movw	r22, r12
    16e8:	82 2d       	mov	r24, r2
    16ea:	90 e0       	ldi	r25, 0x00	; 0
    16ec:	0e 94 86 12 	call	0x250c	; 0x250c <fputc>
    16f0:	33 fc       	sbrc	r3, 3
    16f2:	09 c0       	rjmp	.+18     	; 0x1706 <vfprintf+0x286>
    16f4:	ff 20       	and	r15, r15
    16f6:	39 f0       	breq	.+14     	; 0x1706 <vfprintf+0x286>
    16f8:	b6 01       	movw	r22, r12
    16fa:	80 e3       	ldi	r24, 0x30	; 48
    16fc:	90 e0       	ldi	r25, 0x00	; 0
    16fe:	0e 94 86 12 	call	0x250c	; 0x250c <fputc>
    1702:	fa 94       	dec	r15
    1704:	f7 cf       	rjmp	.-18     	; 0x16f4 <vfprintf+0x274>
    1706:	37 fe       	sbrs	r3, 7
    1708:	5a c0       	rjmp	.+180    	; 0x17be <vfprintf+0x33e>
    170a:	94 2d       	mov	r25, r4
    170c:	85 2d       	mov	r24, r5
    170e:	57 fe       	sbrs	r5, 7
    1710:	02 c0       	rjmp	.+4      	; 0x1716 <vfprintf+0x296>
    1712:	90 e0       	ldi	r25, 0x00	; 0
    1714:	80 e0       	ldi	r24, 0x00	; 0
    1716:	29 2e       	mov	r2, r25
    1718:	38 2e       	mov	r3, r24
    171a:	20 e0       	ldi	r18, 0x00	; 0
    171c:	30 e0       	ldi	r19, 0x00	; 0
    171e:	a2 01       	movw	r20, r4
    1720:	4e 19       	sub	r20, r14
    1722:	51 09       	sbc	r21, r1
    1724:	5d 87       	std	Y+13, r21	; 0x0d
    1726:	4c 87       	std	Y+12, r20	; 0x0c
    1728:	a2 01       	movw	r20, r4
    172a:	42 19       	sub	r20, r2
    172c:	53 09       	sbc	r21, r3
    172e:	5f 87       	std	Y+15, r21	; 0x0f
    1730:	4e 87       	std	Y+14, r20	; 0x0e
    1732:	61 2f       	mov	r22, r17
    1734:	70 e0       	ldi	r23, 0x00	; 0
    1736:	44 27       	eor	r20, r20
    1738:	55 27       	eor	r21, r21
    173a:	46 1b       	sub	r20, r22
    173c:	57 0b       	sbc	r21, r23
    173e:	59 8b       	std	Y+17, r21	; 0x11
    1740:	48 8b       	std	Y+16, r20	; 0x10
    1742:	5f ef       	ldi	r21, 0xFF	; 255
    1744:	25 16       	cp	r2, r21
    1746:	35 06       	cpc	r3, r21
    1748:	49 f4       	brne	.+18     	; 0x175c <vfprintf+0x2dc>
    174a:	b6 01       	movw	r22, r12
    174c:	8e e2       	ldi	r24, 0x2E	; 46
    174e:	90 e0       	ldi	r25, 0x00	; 0
    1750:	2a 8b       	std	Y+18, r18	; 0x12
    1752:	3b 8b       	std	Y+19, r19	; 0x13
    1754:	0e 94 86 12 	call	0x250c	; 0x250c <fputc>
    1758:	3b 89       	ldd	r19, Y+19	; 0x13
    175a:	2a 89       	ldd	r18, Y+18	; 0x12
    175c:	42 14       	cp	r4, r2
    175e:	53 04       	cpc	r5, r3
    1760:	6c f0       	brlt	.+26     	; 0x177c <vfprintf+0x2fc>
    1762:	4c 85       	ldd	r20, Y+12	; 0x0c
    1764:	5d 85       	ldd	r21, Y+13	; 0x0d
    1766:	42 15       	cp	r20, r2
    1768:	53 05       	cpc	r21, r3
    176a:	44 f4       	brge	.+16     	; 0x177c <vfprintf+0x2fc>
    176c:	ee 85       	ldd	r30, Y+14	; 0x0e
    176e:	ff 85       	ldd	r31, Y+15	; 0x0f
    1770:	e2 0f       	add	r30, r18
    1772:	f3 1f       	adc	r31, r19
    1774:	e6 0d       	add	r30, r6
    1776:	f7 1d       	adc	r31, r7
    1778:	81 81       	ldd	r24, Z+1	; 0x01
    177a:	01 c0       	rjmp	.+2      	; 0x177e <vfprintf+0x2fe>
    177c:	80 e3       	ldi	r24, 0x30	; 48
    177e:	51 e0       	ldi	r21, 0x01	; 1
    1780:	25 1a       	sub	r2, r21
    1782:	31 08       	sbc	r3, r1
    1784:	2f 5f       	subi	r18, 0xFF	; 255
    1786:	3f 4f       	sbci	r19, 0xFF	; 255
    1788:	48 89       	ldd	r20, Y+16	; 0x10
    178a:	59 89       	ldd	r21, Y+17	; 0x11
    178c:	24 16       	cp	r2, r20
    178e:	35 06       	cpc	r3, r21
    1790:	4c f0       	brlt	.+18     	; 0x17a4 <vfprintf+0x324>
    1792:	b6 01       	movw	r22, r12
    1794:	90 e0       	ldi	r25, 0x00	; 0
    1796:	2a 8b       	std	Y+18, r18	; 0x12
    1798:	3b 8b       	std	Y+19, r19	; 0x13
    179a:	0e 94 86 12 	call	0x250c	; 0x250c <fputc>
    179e:	2a 89       	ldd	r18, Y+18	; 0x12
    17a0:	3b 89       	ldd	r19, Y+19	; 0x13
    17a2:	cf cf       	rjmp	.-98     	; 0x1742 <vfprintf+0x2c2>
    17a4:	24 14       	cp	r2, r4
    17a6:	35 04       	cpc	r3, r5
    17a8:	39 f4       	brne	.+14     	; 0x17b8 <vfprintf+0x338>
    17aa:	9a 81       	ldd	r25, Y+2	; 0x02
    17ac:	96 33       	cpi	r25, 0x36	; 54
    17ae:	18 f4       	brcc	.+6      	; 0x17b6 <vfprintf+0x336>
    17b0:	95 33       	cpi	r25, 0x35	; 53
    17b2:	11 f4       	brne	.+4      	; 0x17b8 <vfprintf+0x338>
    17b4:	04 ff       	sbrs	r16, 4
    17b6:	81 e3       	ldi	r24, 0x31	; 49
    17b8:	b6 01       	movw	r22, r12
    17ba:	90 e0       	ldi	r25, 0x00	; 0
    17bc:	4b c0       	rjmp	.+150    	; 0x1854 <vfprintf+0x3d4>
    17be:	8a 81       	ldd	r24, Y+2	; 0x02
    17c0:	81 33       	cpi	r24, 0x31	; 49
    17c2:	09 f0       	breq	.+2      	; 0x17c6 <vfprintf+0x346>
    17c4:	0f 7e       	andi	r16, 0xEF	; 239
    17c6:	b6 01       	movw	r22, r12
    17c8:	90 e0       	ldi	r25, 0x00	; 0
    17ca:	0e 94 86 12 	call	0x250c	; 0x250c <fputc>
    17ce:	11 11       	cpse	r17, r1
    17d0:	05 c0       	rjmp	.+10     	; 0x17dc <vfprintf+0x35c>
    17d2:	34 fc       	sbrc	r3, 4
    17d4:	18 c0       	rjmp	.+48     	; 0x1806 <vfprintf+0x386>
    17d6:	85 e6       	ldi	r24, 0x65	; 101
    17d8:	90 e0       	ldi	r25, 0x00	; 0
    17da:	17 c0       	rjmp	.+46     	; 0x180a <vfprintf+0x38a>
    17dc:	b6 01       	movw	r22, r12
    17de:	8e e2       	ldi	r24, 0x2E	; 46
    17e0:	90 e0       	ldi	r25, 0x00	; 0
    17e2:	0e 94 86 12 	call	0x250c	; 0x250c <fputc>
    17e6:	82 e0       	ldi	r24, 0x02	; 2
    17e8:	ee 24       	eor	r14, r14
    17ea:	e3 94       	inc	r14
    17ec:	e8 0e       	add	r14, r24
    17ee:	f3 01       	movw	r30, r6
    17f0:	e8 0f       	add	r30, r24
    17f2:	f1 1d       	adc	r31, r1
    17f4:	80 81       	ld	r24, Z
    17f6:	b6 01       	movw	r22, r12
    17f8:	90 e0       	ldi	r25, 0x00	; 0
    17fa:	0e 94 86 12 	call	0x250c	; 0x250c <fputc>
    17fe:	11 50       	subi	r17, 0x01	; 1
    1800:	8e 2d       	mov	r24, r14
    1802:	91 f7       	brne	.-28     	; 0x17e8 <vfprintf+0x368>
    1804:	e6 cf       	rjmp	.-52     	; 0x17d2 <vfprintf+0x352>
    1806:	85 e4       	ldi	r24, 0x45	; 69
    1808:	90 e0       	ldi	r25, 0x00	; 0
    180a:	b6 01       	movw	r22, r12
    180c:	0e 94 86 12 	call	0x250c	; 0x250c <fputc>
    1810:	57 fc       	sbrc	r5, 7
    1812:	05 c0       	rjmp	.+10     	; 0x181e <vfprintf+0x39e>
    1814:	41 14       	cp	r4, r1
    1816:	51 04       	cpc	r5, r1
    1818:	39 f4       	brne	.+14     	; 0x1828 <vfprintf+0x3a8>
    181a:	04 ff       	sbrs	r16, 4
    181c:	05 c0       	rjmp	.+10     	; 0x1828 <vfprintf+0x3a8>
    181e:	51 94       	neg	r5
    1820:	41 94       	neg	r4
    1822:	51 08       	sbc	r5, r1
    1824:	8d e2       	ldi	r24, 0x2D	; 45
    1826:	01 c0       	rjmp	.+2      	; 0x182a <vfprintf+0x3aa>
    1828:	8b e2       	ldi	r24, 0x2B	; 43
    182a:	b6 01       	movw	r22, r12
    182c:	90 e0       	ldi	r25, 0x00	; 0
    182e:	0e 94 86 12 	call	0x250c	; 0x250c <fputc>
    1832:	80 e3       	ldi	r24, 0x30	; 48
    1834:	9a e0       	ldi	r25, 0x0A	; 10
    1836:	49 16       	cp	r4, r25
    1838:	51 04       	cpc	r5, r1
    183a:	2c f0       	brlt	.+10     	; 0x1846 <vfprintf+0x3c6>
    183c:	8f 5f       	subi	r24, 0xFF	; 255
    183e:	5a e0       	ldi	r21, 0x0A	; 10
    1840:	45 1a       	sub	r4, r21
    1842:	51 08       	sbc	r5, r1
    1844:	f7 cf       	rjmp	.-18     	; 0x1834 <vfprintf+0x3b4>
    1846:	b6 01       	movw	r22, r12
    1848:	90 e0       	ldi	r25, 0x00	; 0
    184a:	0e 94 86 12 	call	0x250c	; 0x250c <fputc>
    184e:	b6 01       	movw	r22, r12
    1850:	c2 01       	movw	r24, r4
    1852:	c0 96       	adiw	r24, 0x30	; 48
    1854:	0e 94 86 12 	call	0x250c	; 0x250c <fputc>
    1858:	57 c1       	rjmp	.+686    	; 0x1b08 <vfprintf+0x688>
    185a:	83 36       	cpi	r24, 0x63	; 99
    185c:	31 f0       	breq	.+12     	; 0x186a <vfprintf+0x3ea>
    185e:	83 37       	cpi	r24, 0x73	; 115
    1860:	79 f0       	breq	.+30     	; 0x1880 <vfprintf+0x400>
    1862:	83 35       	cpi	r24, 0x53	; 83
    1864:	09 f0       	breq	.+2      	; 0x1868 <vfprintf+0x3e8>
    1866:	58 c0       	rjmp	.+176    	; 0x1918 <vfprintf+0x498>
    1868:	21 c0       	rjmp	.+66     	; 0x18ac <vfprintf+0x42c>
    186a:	52 01       	movw	r10, r4
    186c:	e2 e0       	ldi	r30, 0x02	; 2
    186e:	ae 0e       	add	r10, r30
    1870:	b1 1c       	adc	r11, r1
    1872:	f2 01       	movw	r30, r4
    1874:	80 81       	ld	r24, Z
    1876:	89 83       	std	Y+1, r24	; 0x01
    1878:	01 e0       	ldi	r16, 0x01	; 1
    187a:	10 e0       	ldi	r17, 0x00	; 0
    187c:	23 01       	movw	r4, r6
    187e:	14 c0       	rjmp	.+40     	; 0x18a8 <vfprintf+0x428>
    1880:	52 01       	movw	r10, r4
    1882:	f2 e0       	ldi	r31, 0x02	; 2
    1884:	af 0e       	add	r10, r31
    1886:	b1 1c       	adc	r11, r1
    1888:	f2 01       	movw	r30, r4
    188a:	40 80       	ld	r4, Z
    188c:	51 80       	ldd	r5, Z+1	; 0x01
    188e:	26 ff       	sbrs	r18, 6
    1890:	03 c0       	rjmp	.+6      	; 0x1898 <vfprintf+0x418>
    1892:	61 2f       	mov	r22, r17
    1894:	70 e0       	ldi	r23, 0x00	; 0
    1896:	02 c0       	rjmp	.+4      	; 0x189c <vfprintf+0x41c>
    1898:	6f ef       	ldi	r22, 0xFF	; 255
    189a:	7f ef       	ldi	r23, 0xFF	; 255
    189c:	c2 01       	movw	r24, r4
    189e:	2a 8b       	std	Y+18, r18	; 0x12
    18a0:	0e 94 7b 12 	call	0x24f6	; 0x24f6 <strnlen>
    18a4:	8c 01       	movw	r16, r24
    18a6:	2a 89       	ldd	r18, Y+18	; 0x12
    18a8:	2f 77       	andi	r18, 0x7F	; 127
    18aa:	15 c0       	rjmp	.+42     	; 0x18d6 <vfprintf+0x456>
    18ac:	52 01       	movw	r10, r4
    18ae:	f2 e0       	ldi	r31, 0x02	; 2
    18b0:	af 0e       	add	r10, r31
    18b2:	b1 1c       	adc	r11, r1
    18b4:	f2 01       	movw	r30, r4
    18b6:	40 80       	ld	r4, Z
    18b8:	51 80       	ldd	r5, Z+1	; 0x01
    18ba:	26 ff       	sbrs	r18, 6
    18bc:	03 c0       	rjmp	.+6      	; 0x18c4 <vfprintf+0x444>
    18be:	61 2f       	mov	r22, r17
    18c0:	70 e0       	ldi	r23, 0x00	; 0
    18c2:	02 c0       	rjmp	.+4      	; 0x18c8 <vfprintf+0x448>
    18c4:	6f ef       	ldi	r22, 0xFF	; 255
    18c6:	7f ef       	ldi	r23, 0xFF	; 255
    18c8:	c2 01       	movw	r24, r4
    18ca:	2a 8b       	std	Y+18, r18	; 0x12
    18cc:	0e 94 49 12 	call	0x2492	; 0x2492 <strnlen_P>
    18d0:	8c 01       	movw	r16, r24
    18d2:	2a 89       	ldd	r18, Y+18	; 0x12
    18d4:	20 68       	ori	r18, 0x80	; 128
    18d6:	32 2e       	mov	r3, r18
    18d8:	23 fd       	sbrc	r18, 3
    18da:	1a c0       	rjmp	.+52     	; 0x1910 <vfprintf+0x490>
    18dc:	8f 2d       	mov	r24, r15
    18de:	90 e0       	ldi	r25, 0x00	; 0
    18e0:	08 17       	cp	r16, r24
    18e2:	19 07       	cpc	r17, r25
    18e4:	a8 f4       	brcc	.+42     	; 0x1910 <vfprintf+0x490>
    18e6:	b6 01       	movw	r22, r12
    18e8:	80 e2       	ldi	r24, 0x20	; 32
    18ea:	90 e0       	ldi	r25, 0x00	; 0
    18ec:	0e 94 86 12 	call	0x250c	; 0x250c <fputc>
    18f0:	fa 94       	dec	r15
    18f2:	f4 cf       	rjmp	.-24     	; 0x18dc <vfprintf+0x45c>
    18f4:	f2 01       	movw	r30, r4
    18f6:	37 fc       	sbrc	r3, 7
    18f8:	85 91       	lpm	r24, Z+
    18fa:	37 fe       	sbrs	r3, 7
    18fc:	81 91       	ld	r24, Z+
    18fe:	2f 01       	movw	r4, r30
    1900:	b6 01       	movw	r22, r12
    1902:	90 e0       	ldi	r25, 0x00	; 0
    1904:	0e 94 86 12 	call	0x250c	; 0x250c <fputc>
    1908:	f1 10       	cpse	r15, r1
    190a:	fa 94       	dec	r15
    190c:	01 50       	subi	r16, 0x01	; 1
    190e:	11 09       	sbc	r17, r1
    1910:	01 15       	cp	r16, r1
    1912:	11 05       	cpc	r17, r1
    1914:	79 f7       	brne	.-34     	; 0x18f4 <vfprintf+0x474>
    1916:	f8 c0       	rjmp	.+496    	; 0x1b08 <vfprintf+0x688>
    1918:	84 36       	cpi	r24, 0x64	; 100
    191a:	11 f0       	breq	.+4      	; 0x1920 <vfprintf+0x4a0>
    191c:	89 36       	cpi	r24, 0x69	; 105
    191e:	59 f5       	brne	.+86     	; 0x1976 <vfprintf+0x4f6>
    1920:	52 01       	movw	r10, r4
    1922:	27 ff       	sbrs	r18, 7
    1924:	09 c0       	rjmp	.+18     	; 0x1938 <vfprintf+0x4b8>
    1926:	f4 e0       	ldi	r31, 0x04	; 4
    1928:	af 0e       	add	r10, r31
    192a:	b1 1c       	adc	r11, r1
    192c:	f2 01       	movw	r30, r4
    192e:	60 81       	ld	r22, Z
    1930:	71 81       	ldd	r23, Z+1	; 0x01
    1932:	82 81       	ldd	r24, Z+2	; 0x02
    1934:	93 81       	ldd	r25, Z+3	; 0x03
    1936:	0a c0       	rjmp	.+20     	; 0x194c <vfprintf+0x4cc>
    1938:	f2 e0       	ldi	r31, 0x02	; 2
    193a:	af 0e       	add	r10, r31
    193c:	b1 1c       	adc	r11, r1
    193e:	f2 01       	movw	r30, r4
    1940:	60 81       	ld	r22, Z
    1942:	71 81       	ldd	r23, Z+1	; 0x01
    1944:	07 2e       	mov	r0, r23
    1946:	00 0c       	add	r0, r0
    1948:	88 0b       	sbc	r24, r24
    194a:	99 0b       	sbc	r25, r25
    194c:	2f 76       	andi	r18, 0x6F	; 111
    194e:	32 2e       	mov	r3, r18
    1950:	97 ff       	sbrs	r25, 7
    1952:	09 c0       	rjmp	.+18     	; 0x1966 <vfprintf+0x4e6>
    1954:	90 95       	com	r25
    1956:	80 95       	com	r24
    1958:	70 95       	com	r23
    195a:	61 95       	neg	r22
    195c:	7f 4f       	sbci	r23, 0xFF	; 255
    195e:	8f 4f       	sbci	r24, 0xFF	; 255
    1960:	9f 4f       	sbci	r25, 0xFF	; 255
    1962:	20 68       	ori	r18, 0x80	; 128
    1964:	32 2e       	mov	r3, r18
    1966:	2a e0       	ldi	r18, 0x0A	; 10
    1968:	30 e0       	ldi	r19, 0x00	; 0
    196a:	a3 01       	movw	r20, r6
    196c:	0e 94 f7 12 	call	0x25ee	; 0x25ee <__ultoa_invert>
    1970:	e8 2e       	mov	r14, r24
    1972:	e6 18       	sub	r14, r6
    1974:	3f c0       	rjmp	.+126    	; 0x19f4 <vfprintf+0x574>
    1976:	02 2f       	mov	r16, r18
    1978:	85 37       	cpi	r24, 0x75	; 117
    197a:	21 f4       	brne	.+8      	; 0x1984 <vfprintf+0x504>
    197c:	0f 7e       	andi	r16, 0xEF	; 239
    197e:	2a e0       	ldi	r18, 0x0A	; 10
    1980:	30 e0       	ldi	r19, 0x00	; 0
    1982:	1d c0       	rjmp	.+58     	; 0x19be <vfprintf+0x53e>
    1984:	09 7f       	andi	r16, 0xF9	; 249
    1986:	8f 36       	cpi	r24, 0x6F	; 111
    1988:	91 f0       	breq	.+36     	; 0x19ae <vfprintf+0x52e>
    198a:	18 f4       	brcc	.+6      	; 0x1992 <vfprintf+0x512>
    198c:	88 35       	cpi	r24, 0x58	; 88
    198e:	59 f0       	breq	.+22     	; 0x19a6 <vfprintf+0x526>
    1990:	c5 c0       	rjmp	.+394    	; 0x1b1c <vfprintf+0x69c>
    1992:	80 37       	cpi	r24, 0x70	; 112
    1994:	19 f0       	breq	.+6      	; 0x199c <vfprintf+0x51c>
    1996:	88 37       	cpi	r24, 0x78	; 120
    1998:	11 f0       	breq	.+4      	; 0x199e <vfprintf+0x51e>
    199a:	c0 c0       	rjmp	.+384    	; 0x1b1c <vfprintf+0x69c>
    199c:	00 61       	ori	r16, 0x10	; 16
    199e:	04 ff       	sbrs	r16, 4
    19a0:	09 c0       	rjmp	.+18     	; 0x19b4 <vfprintf+0x534>
    19a2:	04 60       	ori	r16, 0x04	; 4
    19a4:	07 c0       	rjmp	.+14     	; 0x19b4 <vfprintf+0x534>
    19a6:	24 ff       	sbrs	r18, 4
    19a8:	08 c0       	rjmp	.+16     	; 0x19ba <vfprintf+0x53a>
    19aa:	06 60       	ori	r16, 0x06	; 6
    19ac:	06 c0       	rjmp	.+12     	; 0x19ba <vfprintf+0x53a>
    19ae:	28 e0       	ldi	r18, 0x08	; 8
    19b0:	30 e0       	ldi	r19, 0x00	; 0
    19b2:	05 c0       	rjmp	.+10     	; 0x19be <vfprintf+0x53e>
    19b4:	20 e1       	ldi	r18, 0x10	; 16
    19b6:	30 e0       	ldi	r19, 0x00	; 0
    19b8:	02 c0       	rjmp	.+4      	; 0x19be <vfprintf+0x53e>
    19ba:	20 e1       	ldi	r18, 0x10	; 16
    19bc:	32 e0       	ldi	r19, 0x02	; 2
    19be:	52 01       	movw	r10, r4
    19c0:	07 ff       	sbrs	r16, 7
    19c2:	09 c0       	rjmp	.+18     	; 0x19d6 <vfprintf+0x556>
    19c4:	f4 e0       	ldi	r31, 0x04	; 4
    19c6:	af 0e       	add	r10, r31
    19c8:	b1 1c       	adc	r11, r1
    19ca:	f2 01       	movw	r30, r4
    19cc:	60 81       	ld	r22, Z
    19ce:	71 81       	ldd	r23, Z+1	; 0x01
    19d0:	82 81       	ldd	r24, Z+2	; 0x02
    19d2:	93 81       	ldd	r25, Z+3	; 0x03
    19d4:	08 c0       	rjmp	.+16     	; 0x19e6 <vfprintf+0x566>
    19d6:	f2 e0       	ldi	r31, 0x02	; 2
    19d8:	af 0e       	add	r10, r31
    19da:	b1 1c       	adc	r11, r1
    19dc:	f2 01       	movw	r30, r4
    19de:	60 81       	ld	r22, Z
    19e0:	71 81       	ldd	r23, Z+1	; 0x01
    19e2:	80 e0       	ldi	r24, 0x00	; 0
    19e4:	90 e0       	ldi	r25, 0x00	; 0
    19e6:	a3 01       	movw	r20, r6
    19e8:	0e 94 f7 12 	call	0x25ee	; 0x25ee <__ultoa_invert>
    19ec:	e8 2e       	mov	r14, r24
    19ee:	e6 18       	sub	r14, r6
    19f0:	0f 77       	andi	r16, 0x7F	; 127
    19f2:	30 2e       	mov	r3, r16
    19f4:	36 fe       	sbrs	r3, 6
    19f6:	0b c0       	rjmp	.+22     	; 0x1a0e <vfprintf+0x58e>
    19f8:	33 2d       	mov	r19, r3
    19fa:	3e 7f       	andi	r19, 0xFE	; 254
    19fc:	e1 16       	cp	r14, r17
    19fe:	50 f4       	brcc	.+20     	; 0x1a14 <vfprintf+0x594>
    1a00:	34 fe       	sbrs	r3, 4
    1a02:	0a c0       	rjmp	.+20     	; 0x1a18 <vfprintf+0x598>
    1a04:	32 fc       	sbrc	r3, 2
    1a06:	08 c0       	rjmp	.+16     	; 0x1a18 <vfprintf+0x598>
    1a08:	33 2d       	mov	r19, r3
    1a0a:	3e 7e       	andi	r19, 0xEE	; 238
    1a0c:	05 c0       	rjmp	.+10     	; 0x1a18 <vfprintf+0x598>
    1a0e:	0e 2d       	mov	r16, r14
    1a10:	33 2d       	mov	r19, r3
    1a12:	03 c0       	rjmp	.+6      	; 0x1a1a <vfprintf+0x59a>
    1a14:	0e 2d       	mov	r16, r14
    1a16:	01 c0       	rjmp	.+2      	; 0x1a1a <vfprintf+0x59a>
    1a18:	01 2f       	mov	r16, r17
    1a1a:	34 ff       	sbrs	r19, 4
    1a1c:	0c c0       	rjmp	.+24     	; 0x1a36 <vfprintf+0x5b6>
    1a1e:	fe 01       	movw	r30, r28
    1a20:	ee 0d       	add	r30, r14
    1a22:	f1 1d       	adc	r31, r1
    1a24:	80 81       	ld	r24, Z
    1a26:	80 33       	cpi	r24, 0x30	; 48
    1a28:	11 f4       	brne	.+4      	; 0x1a2e <vfprintf+0x5ae>
    1a2a:	39 7e       	andi	r19, 0xE9	; 233
    1a2c:	08 c0       	rjmp	.+16     	; 0x1a3e <vfprintf+0x5be>
    1a2e:	32 ff       	sbrs	r19, 2
    1a30:	05 c0       	rjmp	.+10     	; 0x1a3c <vfprintf+0x5bc>
    1a32:	0e 5f       	subi	r16, 0xFE	; 254
    1a34:	04 c0       	rjmp	.+8      	; 0x1a3e <vfprintf+0x5be>
    1a36:	83 2f       	mov	r24, r19
    1a38:	86 78       	andi	r24, 0x86	; 134
    1a3a:	09 f0       	breq	.+2      	; 0x1a3e <vfprintf+0x5be>
    1a3c:	0f 5f       	subi	r16, 0xFF	; 255
    1a3e:	33 fd       	sbrc	r19, 3
    1a40:	13 c0       	rjmp	.+38     	; 0x1a68 <vfprintf+0x5e8>
    1a42:	30 ff       	sbrs	r19, 0
    1a44:	06 c0       	rjmp	.+12     	; 0x1a52 <vfprintf+0x5d2>
    1a46:	1e 2d       	mov	r17, r14
    1a48:	0f 15       	cp	r16, r15
    1a4a:	18 f4       	brcc	.+6      	; 0x1a52 <vfprintf+0x5d2>
    1a4c:	1f 0d       	add	r17, r15
    1a4e:	10 1b       	sub	r17, r16
    1a50:	0f 2d       	mov	r16, r15
    1a52:	0f 15       	cp	r16, r15
    1a54:	68 f4       	brcc	.+26     	; 0x1a70 <vfprintf+0x5f0>
    1a56:	b6 01       	movw	r22, r12
    1a58:	80 e2       	ldi	r24, 0x20	; 32
    1a5a:	90 e0       	ldi	r25, 0x00	; 0
    1a5c:	3b 8b       	std	Y+19, r19	; 0x13
    1a5e:	0e 94 86 12 	call	0x250c	; 0x250c <fputc>
    1a62:	0f 5f       	subi	r16, 0xFF	; 255
    1a64:	3b 89       	ldd	r19, Y+19	; 0x13
    1a66:	f5 cf       	rjmp	.-22     	; 0x1a52 <vfprintf+0x5d2>
    1a68:	0f 15       	cp	r16, r15
    1a6a:	10 f4       	brcc	.+4      	; 0x1a70 <vfprintf+0x5f0>
    1a6c:	f0 1a       	sub	r15, r16
    1a6e:	01 c0       	rjmp	.+2      	; 0x1a72 <vfprintf+0x5f2>
    1a70:	f1 2c       	mov	r15, r1
    1a72:	34 ff       	sbrs	r19, 4
    1a74:	12 c0       	rjmp	.+36     	; 0x1a9a <vfprintf+0x61a>
    1a76:	b6 01       	movw	r22, r12
    1a78:	80 e3       	ldi	r24, 0x30	; 48
    1a7a:	90 e0       	ldi	r25, 0x00	; 0
    1a7c:	3b 8b       	std	Y+19, r19	; 0x13
    1a7e:	0e 94 86 12 	call	0x250c	; 0x250c <fputc>
    1a82:	3b 89       	ldd	r19, Y+19	; 0x13
    1a84:	32 ff       	sbrs	r19, 2
    1a86:	17 c0       	rjmp	.+46     	; 0x1ab6 <vfprintf+0x636>
    1a88:	31 fd       	sbrc	r19, 1
    1a8a:	03 c0       	rjmp	.+6      	; 0x1a92 <vfprintf+0x612>
    1a8c:	88 e7       	ldi	r24, 0x78	; 120
    1a8e:	90 e0       	ldi	r25, 0x00	; 0
    1a90:	02 c0       	rjmp	.+4      	; 0x1a96 <vfprintf+0x616>
    1a92:	88 e5       	ldi	r24, 0x58	; 88
    1a94:	90 e0       	ldi	r25, 0x00	; 0
    1a96:	b6 01       	movw	r22, r12
    1a98:	0c c0       	rjmp	.+24     	; 0x1ab2 <vfprintf+0x632>
    1a9a:	83 2f       	mov	r24, r19
    1a9c:	86 78       	andi	r24, 0x86	; 134
    1a9e:	59 f0       	breq	.+22     	; 0x1ab6 <vfprintf+0x636>
    1aa0:	31 ff       	sbrs	r19, 1
    1aa2:	02 c0       	rjmp	.+4      	; 0x1aa8 <vfprintf+0x628>
    1aa4:	8b e2       	ldi	r24, 0x2B	; 43
    1aa6:	01 c0       	rjmp	.+2      	; 0x1aaa <vfprintf+0x62a>
    1aa8:	80 e2       	ldi	r24, 0x20	; 32
    1aaa:	37 fd       	sbrc	r19, 7
    1aac:	8d e2       	ldi	r24, 0x2D	; 45
    1aae:	b6 01       	movw	r22, r12
    1ab0:	90 e0       	ldi	r25, 0x00	; 0
    1ab2:	0e 94 86 12 	call	0x250c	; 0x250c <fputc>
    1ab6:	e1 16       	cp	r14, r17
    1ab8:	38 f4       	brcc	.+14     	; 0x1ac8 <vfprintf+0x648>
    1aba:	b6 01       	movw	r22, r12
    1abc:	80 e3       	ldi	r24, 0x30	; 48
    1abe:	90 e0       	ldi	r25, 0x00	; 0
    1ac0:	0e 94 86 12 	call	0x250c	; 0x250c <fputc>
    1ac4:	11 50       	subi	r17, 0x01	; 1
    1ac6:	f7 cf       	rjmp	.-18     	; 0x1ab6 <vfprintf+0x636>
    1ac8:	ea 94       	dec	r14
    1aca:	f3 01       	movw	r30, r6
    1acc:	ee 0d       	add	r30, r14
    1ace:	f1 1d       	adc	r31, r1
    1ad0:	80 81       	ld	r24, Z
    1ad2:	b6 01       	movw	r22, r12
    1ad4:	90 e0       	ldi	r25, 0x00	; 0
    1ad6:	0e 94 86 12 	call	0x250c	; 0x250c <fputc>
    1ada:	e1 10       	cpse	r14, r1
    1adc:	f5 cf       	rjmp	.-22     	; 0x1ac8 <vfprintf+0x648>
    1ade:	14 c0       	rjmp	.+40     	; 0x1b08 <vfprintf+0x688>
    1ae0:	f4 e0       	ldi	r31, 0x04	; 4
    1ae2:	ff 15       	cp	r31, r15
    1ae4:	58 f5       	brcc	.+86     	; 0x1b3c <vfprintf+0x6bc>
    1ae6:	84 e0       	ldi	r24, 0x04	; 4
    1ae8:	f8 1a       	sub	r15, r24
    1aea:	33 fe       	sbrs	r3, 3
    1aec:	1e c0       	rjmp	.+60     	; 0x1b2a <vfprintf+0x6aa>
    1aee:	21 10       	cpse	r2, r1
    1af0:	26 c0       	rjmp	.+76     	; 0x1b3e <vfprintf+0x6be>
    1af2:	03 ff       	sbrs	r16, 3
    1af4:	2a c0       	rjmp	.+84     	; 0x1b4a <vfprintf+0x6ca>
    1af6:	04 eb       	ldi	r16, 0xB4	; 180
    1af8:	10 e0       	ldi	r17, 0x00	; 0
    1afa:	f3 2d       	mov	r31, r3
    1afc:	f0 71       	andi	r31, 0x10	; 16
    1afe:	3f 2e       	mov	r3, r31
    1b00:	f8 01       	movw	r30, r16
    1b02:	84 91       	lpm	r24, Z
    1b04:	81 11       	cpse	r24, r1
    1b06:	24 c0       	rjmp	.+72     	; 0x1b50 <vfprintf+0x6d0>
    1b08:	ff 20       	and	r15, r15
    1b0a:	09 f4       	brne	.+2      	; 0x1b0e <vfprintf+0x68e>
    1b0c:	e5 cc       	rjmp	.-1590   	; 0x14d8 <vfprintf+0x58>
    1b0e:	b6 01       	movw	r22, r12
    1b10:	80 e2       	ldi	r24, 0x20	; 32
    1b12:	90 e0       	ldi	r25, 0x00	; 0
    1b14:	0e 94 86 12 	call	0x250c	; 0x250c <fputc>
    1b18:	fa 94       	dec	r15
    1b1a:	f6 cf       	rjmp	.-20     	; 0x1b08 <vfprintf+0x688>
    1b1c:	f6 01       	movw	r30, r12
    1b1e:	86 81       	ldd	r24, Z+6	; 0x06
    1b20:	97 81       	ldd	r25, Z+7	; 0x07
    1b22:	26 c0       	rjmp	.+76     	; 0x1b70 <vfprintf+0x6f0>
    1b24:	8f ef       	ldi	r24, 0xFF	; 255
    1b26:	9f ef       	ldi	r25, 0xFF	; 255
    1b28:	23 c0       	rjmp	.+70     	; 0x1b70 <vfprintf+0x6f0>
    1b2a:	b6 01       	movw	r22, r12
    1b2c:	80 e2       	ldi	r24, 0x20	; 32
    1b2e:	90 e0       	ldi	r25, 0x00	; 0
    1b30:	0e 94 86 12 	call	0x250c	; 0x250c <fputc>
    1b34:	fa 94       	dec	r15
    1b36:	f1 10       	cpse	r15, r1
    1b38:	f8 cf       	rjmp	.-16     	; 0x1b2a <vfprintf+0x6aa>
    1b3a:	d9 cf       	rjmp	.-78     	; 0x1aee <vfprintf+0x66e>
    1b3c:	f1 2c       	mov	r15, r1
    1b3e:	b6 01       	movw	r22, r12
    1b40:	82 2d       	mov	r24, r2
    1b42:	90 e0       	ldi	r25, 0x00	; 0
    1b44:	0e 94 86 12 	call	0x250c	; 0x250c <fputc>
    1b48:	d4 cf       	rjmp	.-88     	; 0x1af2 <vfprintf+0x672>
    1b4a:	08 eb       	ldi	r16, 0xB8	; 184
    1b4c:	10 e0       	ldi	r17, 0x00	; 0
    1b4e:	d5 cf       	rjmp	.-86     	; 0x1afa <vfprintf+0x67a>
    1b50:	31 10       	cpse	r3, r1
    1b52:	80 52       	subi	r24, 0x20	; 32
    1b54:	b6 01       	movw	r22, r12
    1b56:	90 e0       	ldi	r25, 0x00	; 0
    1b58:	0e 94 86 12 	call	0x250c	; 0x250c <fputc>
    1b5c:	0f 5f       	subi	r16, 0xFF	; 255
    1b5e:	1f 4f       	sbci	r17, 0xFF	; 255
    1b60:	cf cf       	rjmp	.-98     	; 0x1b00 <vfprintf+0x680>
    1b62:	23 e0       	ldi	r18, 0x03	; 3
    1b64:	2f 15       	cp	r18, r15
    1b66:	10 f4       	brcc	.+4      	; 0x1b6c <vfprintf+0x6ec>
    1b68:	83 e0       	ldi	r24, 0x03	; 3
    1b6a:	be cf       	rjmp	.-132    	; 0x1ae8 <vfprintf+0x668>
    1b6c:	f1 2c       	mov	r15, r1
    1b6e:	c1 cf       	rjmp	.-126    	; 0x1af2 <vfprintf+0x672>
    1b70:	63 96       	adiw	r28, 0x13	; 19
    1b72:	e2 e1       	ldi	r30, 0x12	; 18
    1b74:	0c 94 2d 0e 	jmp	0x1c5a	; 0x1c5a <__epilogue_restores__>

00001b78 <__divmodhi4>:
    1b78:	97 fb       	bst	r25, 7
    1b7a:	07 2e       	mov	r0, r23
    1b7c:	16 f4       	brtc	.+4      	; 0x1b82 <__divmodhi4+0xa>
    1b7e:	00 94       	com	r0
    1b80:	07 d0       	rcall	.+14     	; 0x1b90 <__divmodhi4_neg1>
    1b82:	77 fd       	sbrc	r23, 7
    1b84:	09 d0       	rcall	.+18     	; 0x1b98 <__divmodhi4_neg2>
    1b86:	0e 94 48 0e 	call	0x1c90	; 0x1c90 <__udivmodhi4>
    1b8a:	07 fc       	sbrc	r0, 7
    1b8c:	05 d0       	rcall	.+10     	; 0x1b98 <__divmodhi4_neg2>
    1b8e:	3e f4       	brtc	.+14     	; 0x1b9e <__divmodhi4_exit>

00001b90 <__divmodhi4_neg1>:
    1b90:	90 95       	com	r25
    1b92:	81 95       	neg	r24
    1b94:	9f 4f       	sbci	r25, 0xFF	; 255
    1b96:	08 95       	ret

00001b98 <__divmodhi4_neg2>:
    1b98:	70 95       	com	r23
    1b9a:	61 95       	neg	r22
    1b9c:	7f 4f       	sbci	r23, 0xFF	; 255

00001b9e <__divmodhi4_exit>:
    1b9e:	08 95       	ret

00001ba0 <__udivmodsi4>:
    1ba0:	a1 e2       	ldi	r26, 0x21	; 33
    1ba2:	1a 2e       	mov	r1, r26
    1ba4:	aa 1b       	sub	r26, r26
    1ba6:	bb 1b       	sub	r27, r27
    1ba8:	fd 01       	movw	r30, r26
    1baa:	0d c0       	rjmp	.+26     	; 0x1bc6 <__udivmodsi4_ep>

00001bac <__udivmodsi4_loop>:
    1bac:	aa 1f       	adc	r26, r26
    1bae:	bb 1f       	adc	r27, r27
    1bb0:	ee 1f       	adc	r30, r30
    1bb2:	ff 1f       	adc	r31, r31
    1bb4:	a2 17       	cp	r26, r18
    1bb6:	b3 07       	cpc	r27, r19
    1bb8:	e4 07       	cpc	r30, r20
    1bba:	f5 07       	cpc	r31, r21
    1bbc:	20 f0       	brcs	.+8      	; 0x1bc6 <__udivmodsi4_ep>
    1bbe:	a2 1b       	sub	r26, r18
    1bc0:	b3 0b       	sbc	r27, r19
    1bc2:	e4 0b       	sbc	r30, r20
    1bc4:	f5 0b       	sbc	r31, r21

00001bc6 <__udivmodsi4_ep>:
    1bc6:	66 1f       	adc	r22, r22
    1bc8:	77 1f       	adc	r23, r23
    1bca:	88 1f       	adc	r24, r24
    1bcc:	99 1f       	adc	r25, r25
    1bce:	1a 94       	dec	r1
    1bd0:	69 f7       	brne	.-38     	; 0x1bac <__udivmodsi4_loop>
    1bd2:	60 95       	com	r22
    1bd4:	70 95       	com	r23
    1bd6:	80 95       	com	r24
    1bd8:	90 95       	com	r25
    1bda:	9b 01       	movw	r18, r22
    1bdc:	ac 01       	movw	r20, r24
    1bde:	bd 01       	movw	r22, r26
    1be0:	cf 01       	movw	r24, r30
    1be2:	08 95       	ret

00001be4 <__divmodsi4>:
    1be4:	05 2e       	mov	r0, r21
    1be6:	97 fb       	bst	r25, 7
    1be8:	1e f4       	brtc	.+6      	; 0x1bf0 <__divmodsi4+0xc>
    1bea:	00 94       	com	r0
    1bec:	0e 94 09 0e 	call	0x1c12	; 0x1c12 <__negsi2>
    1bf0:	57 fd       	sbrc	r21, 7
    1bf2:	07 d0       	rcall	.+14     	; 0x1c02 <__divmodsi4_neg2>
    1bf4:	0e 94 d0 0d 	call	0x1ba0	; 0x1ba0 <__udivmodsi4>
    1bf8:	07 fc       	sbrc	r0, 7
    1bfa:	03 d0       	rcall	.+6      	; 0x1c02 <__divmodsi4_neg2>
    1bfc:	4e f4       	brtc	.+18     	; 0x1c10 <__divmodsi4_exit>
    1bfe:	0c 94 09 0e 	jmp	0x1c12	; 0x1c12 <__negsi2>

00001c02 <__divmodsi4_neg2>:
    1c02:	50 95       	com	r21
    1c04:	40 95       	com	r20
    1c06:	30 95       	com	r19
    1c08:	21 95       	neg	r18
    1c0a:	3f 4f       	sbci	r19, 0xFF	; 255
    1c0c:	4f 4f       	sbci	r20, 0xFF	; 255
    1c0e:	5f 4f       	sbci	r21, 0xFF	; 255

00001c10 <__divmodsi4_exit>:
    1c10:	08 95       	ret

00001c12 <__negsi2>:
    1c12:	90 95       	com	r25
    1c14:	80 95       	com	r24
    1c16:	70 95       	com	r23
    1c18:	61 95       	neg	r22
    1c1a:	7f 4f       	sbci	r23, 0xFF	; 255
    1c1c:	8f 4f       	sbci	r24, 0xFF	; 255
    1c1e:	9f 4f       	sbci	r25, 0xFF	; 255
    1c20:	08 95       	ret

00001c22 <__prologue_saves__>:
    1c22:	2f 92       	push	r2
    1c24:	3f 92       	push	r3
    1c26:	4f 92       	push	r4
    1c28:	5f 92       	push	r5
    1c2a:	6f 92       	push	r6
    1c2c:	7f 92       	push	r7
    1c2e:	8f 92       	push	r8
    1c30:	9f 92       	push	r9
    1c32:	af 92       	push	r10
    1c34:	bf 92       	push	r11
    1c36:	cf 92       	push	r12
    1c38:	df 92       	push	r13
    1c3a:	ef 92       	push	r14
    1c3c:	ff 92       	push	r15
    1c3e:	0f 93       	push	r16
    1c40:	1f 93       	push	r17
    1c42:	cf 93       	push	r28
    1c44:	df 93       	push	r29
    1c46:	cd b7       	in	r28, 0x3d	; 61
    1c48:	de b7       	in	r29, 0x3e	; 62
    1c4a:	ca 1b       	sub	r28, r26
    1c4c:	db 0b       	sbc	r29, r27
    1c4e:	0f b6       	in	r0, 0x3f	; 63
    1c50:	f8 94       	cli
    1c52:	de bf       	out	0x3e, r29	; 62
    1c54:	0f be       	out	0x3f, r0	; 63
    1c56:	cd bf       	out	0x3d, r28	; 61
    1c58:	09 94       	ijmp

00001c5a <__epilogue_restores__>:
    1c5a:	2a 88       	ldd	r2, Y+18	; 0x12
    1c5c:	39 88       	ldd	r3, Y+17	; 0x11
    1c5e:	48 88       	ldd	r4, Y+16	; 0x10
    1c60:	5f 84       	ldd	r5, Y+15	; 0x0f
    1c62:	6e 84       	ldd	r6, Y+14	; 0x0e
    1c64:	7d 84       	ldd	r7, Y+13	; 0x0d
    1c66:	8c 84       	ldd	r8, Y+12	; 0x0c
    1c68:	9b 84       	ldd	r9, Y+11	; 0x0b
    1c6a:	aa 84       	ldd	r10, Y+10	; 0x0a
    1c6c:	b9 84       	ldd	r11, Y+9	; 0x09
    1c6e:	c8 84       	ldd	r12, Y+8	; 0x08
    1c70:	df 80       	ldd	r13, Y+7	; 0x07
    1c72:	ee 80       	ldd	r14, Y+6	; 0x06
    1c74:	fd 80       	ldd	r15, Y+5	; 0x05
    1c76:	0c 81       	ldd	r16, Y+4	; 0x04
    1c78:	1b 81       	ldd	r17, Y+3	; 0x03
    1c7a:	aa 81       	ldd	r26, Y+2	; 0x02
    1c7c:	b9 81       	ldd	r27, Y+1	; 0x01
    1c7e:	ce 0f       	add	r28, r30
    1c80:	d1 1d       	adc	r29, r1
    1c82:	0f b6       	in	r0, 0x3f	; 63
    1c84:	f8 94       	cli
    1c86:	de bf       	out	0x3e, r29	; 62
    1c88:	0f be       	out	0x3f, r0	; 63
    1c8a:	cd bf       	out	0x3d, r28	; 61
    1c8c:	ed 01       	movw	r28, r26
    1c8e:	08 95       	ret

00001c90 <__udivmodhi4>:
    1c90:	aa 1b       	sub	r26, r26
    1c92:	bb 1b       	sub	r27, r27
    1c94:	51 e1       	ldi	r21, 0x11	; 17
    1c96:	07 c0       	rjmp	.+14     	; 0x1ca6 <__udivmodhi4_ep>

00001c98 <__udivmodhi4_loop>:
    1c98:	aa 1f       	adc	r26, r26
    1c9a:	bb 1f       	adc	r27, r27
    1c9c:	a6 17       	cp	r26, r22
    1c9e:	b7 07       	cpc	r27, r23
    1ca0:	10 f0       	brcs	.+4      	; 0x1ca6 <__udivmodhi4_ep>
    1ca2:	a6 1b       	sub	r26, r22
    1ca4:	b7 0b       	sbc	r27, r23

00001ca6 <__udivmodhi4_ep>:
    1ca6:	88 1f       	adc	r24, r24
    1ca8:	99 1f       	adc	r25, r25
    1caa:	5a 95       	dec	r21
    1cac:	a9 f7       	brne	.-22     	; 0x1c98 <__udivmodhi4_loop>
    1cae:	80 95       	com	r24
    1cb0:	90 95       	com	r25
    1cb2:	bc 01       	movw	r22, r24
    1cb4:	cd 01       	movw	r24, r26
    1cb6:	08 95       	ret

00001cb8 <malloc>:
    1cb8:	cf 93       	push	r28
    1cba:	df 93       	push	r29
    1cbc:	82 30       	cpi	r24, 0x02	; 2
    1cbe:	91 05       	cpc	r25, r1
    1cc0:	10 f4       	brcc	.+4      	; 0x1cc6 <malloc+0xe>
    1cc2:	82 e0       	ldi	r24, 0x02	; 2
    1cc4:	90 e0       	ldi	r25, 0x00	; 0
    1cc6:	e0 91 fe 01 	lds	r30, 0x01FE	; 0x8001fe <__flp>
    1cca:	f0 91 ff 01 	lds	r31, 0x01FF	; 0x8001ff <__flp+0x1>
    1cce:	20 e0       	ldi	r18, 0x00	; 0
    1cd0:	30 e0       	ldi	r19, 0x00	; 0
    1cd2:	c0 e0       	ldi	r28, 0x00	; 0
    1cd4:	d0 e0       	ldi	r29, 0x00	; 0
    1cd6:	30 97       	sbiw	r30, 0x00	; 0
    1cd8:	11 f1       	breq	.+68     	; 0x1d1e <malloc+0x66>
    1cda:	40 81       	ld	r20, Z
    1cdc:	51 81       	ldd	r21, Z+1	; 0x01
    1cde:	48 17       	cp	r20, r24
    1ce0:	59 07       	cpc	r21, r25
    1ce2:	c0 f0       	brcs	.+48     	; 0x1d14 <malloc+0x5c>
    1ce4:	48 17       	cp	r20, r24
    1ce6:	59 07       	cpc	r21, r25
    1ce8:	61 f4       	brne	.+24     	; 0x1d02 <malloc+0x4a>
    1cea:	82 81       	ldd	r24, Z+2	; 0x02
    1cec:	93 81       	ldd	r25, Z+3	; 0x03
    1cee:	20 97       	sbiw	r28, 0x00	; 0
    1cf0:	19 f0       	breq	.+6      	; 0x1cf8 <malloc+0x40>
    1cf2:	9b 83       	std	Y+3, r25	; 0x03
    1cf4:	8a 83       	std	Y+2, r24	; 0x02
    1cf6:	2b c0       	rjmp	.+86     	; 0x1d4e <malloc+0x96>
    1cf8:	90 93 ff 01 	sts	0x01FF, r25	; 0x8001ff <__flp+0x1>
    1cfc:	80 93 fe 01 	sts	0x01FE, r24	; 0x8001fe <__flp>
    1d00:	26 c0       	rjmp	.+76     	; 0x1d4e <malloc+0x96>
    1d02:	21 15       	cp	r18, r1
    1d04:	31 05       	cpc	r19, r1
    1d06:	19 f0       	breq	.+6      	; 0x1d0e <malloc+0x56>
    1d08:	42 17       	cp	r20, r18
    1d0a:	53 07       	cpc	r21, r19
    1d0c:	18 f4       	brcc	.+6      	; 0x1d14 <malloc+0x5c>
    1d0e:	9a 01       	movw	r18, r20
    1d10:	be 01       	movw	r22, r28
    1d12:	df 01       	movw	r26, r30
    1d14:	ef 01       	movw	r28, r30
    1d16:	02 80       	ldd	r0, Z+2	; 0x02
    1d18:	f3 81       	ldd	r31, Z+3	; 0x03
    1d1a:	e0 2d       	mov	r30, r0
    1d1c:	dc cf       	rjmp	.-72     	; 0x1cd6 <malloc+0x1e>
    1d1e:	21 15       	cp	r18, r1
    1d20:	31 05       	cpc	r19, r1
    1d22:	09 f1       	breq	.+66     	; 0x1d66 <malloc+0xae>
    1d24:	28 1b       	sub	r18, r24
    1d26:	39 0b       	sbc	r19, r25
    1d28:	24 30       	cpi	r18, 0x04	; 4
    1d2a:	31 05       	cpc	r19, r1
    1d2c:	90 f4       	brcc	.+36     	; 0x1d52 <malloc+0x9a>
    1d2e:	12 96       	adiw	r26, 0x02	; 2
    1d30:	8d 91       	ld	r24, X+
    1d32:	9c 91       	ld	r25, X
    1d34:	13 97       	sbiw	r26, 0x03	; 3
    1d36:	61 15       	cp	r22, r1
    1d38:	71 05       	cpc	r23, r1
    1d3a:	21 f0       	breq	.+8      	; 0x1d44 <malloc+0x8c>
    1d3c:	fb 01       	movw	r30, r22
    1d3e:	93 83       	std	Z+3, r25	; 0x03
    1d40:	82 83       	std	Z+2, r24	; 0x02
    1d42:	04 c0       	rjmp	.+8      	; 0x1d4c <malloc+0x94>
    1d44:	90 93 ff 01 	sts	0x01FF, r25	; 0x8001ff <__flp+0x1>
    1d48:	80 93 fe 01 	sts	0x01FE, r24	; 0x8001fe <__flp>
    1d4c:	fd 01       	movw	r30, r26
    1d4e:	32 96       	adiw	r30, 0x02	; 2
    1d50:	44 c0       	rjmp	.+136    	; 0x1dda <malloc+0x122>
    1d52:	fd 01       	movw	r30, r26
    1d54:	e2 0f       	add	r30, r18
    1d56:	f3 1f       	adc	r31, r19
    1d58:	81 93       	st	Z+, r24
    1d5a:	91 93       	st	Z+, r25
    1d5c:	22 50       	subi	r18, 0x02	; 2
    1d5e:	31 09       	sbc	r19, r1
    1d60:	2d 93       	st	X+, r18
    1d62:	3c 93       	st	X, r19
    1d64:	3a c0       	rjmp	.+116    	; 0x1dda <malloc+0x122>
    1d66:	20 91 fc 01 	lds	r18, 0x01FC	; 0x8001fc <__brkval>
    1d6a:	30 91 fd 01 	lds	r19, 0x01FD	; 0x8001fd <__brkval+0x1>
    1d6e:	23 2b       	or	r18, r19
    1d70:	41 f4       	brne	.+16     	; 0x1d82 <malloc+0xca>
    1d72:	20 91 02 01 	lds	r18, 0x0102	; 0x800102 <__malloc_heap_start>
    1d76:	30 91 03 01 	lds	r19, 0x0103	; 0x800103 <__malloc_heap_start+0x1>
    1d7a:	30 93 fd 01 	sts	0x01FD, r19	; 0x8001fd <__brkval+0x1>
    1d7e:	20 93 fc 01 	sts	0x01FC, r18	; 0x8001fc <__brkval>
    1d82:	20 91 00 01 	lds	r18, 0x0100	; 0x800100 <__data_start>
    1d86:	30 91 01 01 	lds	r19, 0x0101	; 0x800101 <__data_start+0x1>
    1d8a:	21 15       	cp	r18, r1
    1d8c:	31 05       	cpc	r19, r1
    1d8e:	41 f4       	brne	.+16     	; 0x1da0 <malloc+0xe8>
    1d90:	2d b7       	in	r18, 0x3d	; 61
    1d92:	3e b7       	in	r19, 0x3e	; 62
    1d94:	40 91 04 01 	lds	r20, 0x0104	; 0x800104 <__malloc_margin>
    1d98:	50 91 05 01 	lds	r21, 0x0105	; 0x800105 <__malloc_margin+0x1>
    1d9c:	24 1b       	sub	r18, r20
    1d9e:	35 0b       	sbc	r19, r21
    1da0:	e0 91 fc 01 	lds	r30, 0x01FC	; 0x8001fc <__brkval>
    1da4:	f0 91 fd 01 	lds	r31, 0x01FD	; 0x8001fd <__brkval+0x1>
    1da8:	e2 17       	cp	r30, r18
    1daa:	f3 07       	cpc	r31, r19
    1dac:	a0 f4       	brcc	.+40     	; 0x1dd6 <malloc+0x11e>
    1dae:	2e 1b       	sub	r18, r30
    1db0:	3f 0b       	sbc	r19, r31
    1db2:	28 17       	cp	r18, r24
    1db4:	39 07       	cpc	r19, r25
    1db6:	78 f0       	brcs	.+30     	; 0x1dd6 <malloc+0x11e>
    1db8:	ac 01       	movw	r20, r24
    1dba:	4e 5f       	subi	r20, 0xFE	; 254
    1dbc:	5f 4f       	sbci	r21, 0xFF	; 255
    1dbe:	24 17       	cp	r18, r20
    1dc0:	35 07       	cpc	r19, r21
    1dc2:	48 f0       	brcs	.+18     	; 0x1dd6 <malloc+0x11e>
    1dc4:	4e 0f       	add	r20, r30
    1dc6:	5f 1f       	adc	r21, r31
    1dc8:	50 93 fd 01 	sts	0x01FD, r21	; 0x8001fd <__brkval+0x1>
    1dcc:	40 93 fc 01 	sts	0x01FC, r20	; 0x8001fc <__brkval>
    1dd0:	81 93       	st	Z+, r24
    1dd2:	91 93       	st	Z+, r25
    1dd4:	02 c0       	rjmp	.+4      	; 0x1dda <malloc+0x122>
    1dd6:	e0 e0       	ldi	r30, 0x00	; 0
    1dd8:	f0 e0       	ldi	r31, 0x00	; 0
    1dda:	cf 01       	movw	r24, r30
    1ddc:	df 91       	pop	r29
    1dde:	cf 91       	pop	r28
    1de0:	08 95       	ret

00001de2 <free>:
    1de2:	0f 93       	push	r16
    1de4:	1f 93       	push	r17
    1de6:	cf 93       	push	r28
    1de8:	df 93       	push	r29
    1dea:	00 97       	sbiw	r24, 0x00	; 0
    1dec:	09 f4       	brne	.+2      	; 0x1df0 <free+0xe>
    1dee:	8c c0       	rjmp	.+280    	; 0x1f08 <free+0x126>
    1df0:	fc 01       	movw	r30, r24
    1df2:	32 97       	sbiw	r30, 0x02	; 2
    1df4:	13 82       	std	Z+3, r1	; 0x03
    1df6:	12 82       	std	Z+2, r1	; 0x02
    1df8:	00 91 fe 01 	lds	r16, 0x01FE	; 0x8001fe <__flp>
    1dfc:	10 91 ff 01 	lds	r17, 0x01FF	; 0x8001ff <__flp+0x1>
    1e00:	01 15       	cp	r16, r1
    1e02:	11 05       	cpc	r17, r1
    1e04:	81 f4       	brne	.+32     	; 0x1e26 <free+0x44>
    1e06:	20 81       	ld	r18, Z
    1e08:	31 81       	ldd	r19, Z+1	; 0x01
    1e0a:	82 0f       	add	r24, r18
    1e0c:	93 1f       	adc	r25, r19
    1e0e:	20 91 fc 01 	lds	r18, 0x01FC	; 0x8001fc <__brkval>
    1e12:	30 91 fd 01 	lds	r19, 0x01FD	; 0x8001fd <__brkval+0x1>
    1e16:	28 17       	cp	r18, r24
    1e18:	39 07       	cpc	r19, r25
    1e1a:	79 f5       	brne	.+94     	; 0x1e7a <free+0x98>
    1e1c:	f0 93 fd 01 	sts	0x01FD, r31	; 0x8001fd <__brkval+0x1>
    1e20:	e0 93 fc 01 	sts	0x01FC, r30	; 0x8001fc <__brkval>
    1e24:	71 c0       	rjmp	.+226    	; 0x1f08 <free+0x126>
    1e26:	d8 01       	movw	r26, r16
    1e28:	40 e0       	ldi	r20, 0x00	; 0
    1e2a:	50 e0       	ldi	r21, 0x00	; 0
    1e2c:	ae 17       	cp	r26, r30
    1e2e:	bf 07       	cpc	r27, r31
    1e30:	50 f4       	brcc	.+20     	; 0x1e46 <free+0x64>
    1e32:	12 96       	adiw	r26, 0x02	; 2
    1e34:	2d 91       	ld	r18, X+
    1e36:	3c 91       	ld	r19, X
    1e38:	13 97       	sbiw	r26, 0x03	; 3
    1e3a:	ad 01       	movw	r20, r26
    1e3c:	21 15       	cp	r18, r1
    1e3e:	31 05       	cpc	r19, r1
    1e40:	09 f1       	breq	.+66     	; 0x1e84 <free+0xa2>
    1e42:	d9 01       	movw	r26, r18
    1e44:	f3 cf       	rjmp	.-26     	; 0x1e2c <free+0x4a>
    1e46:	9d 01       	movw	r18, r26
    1e48:	da 01       	movw	r26, r20
    1e4a:	33 83       	std	Z+3, r19	; 0x03
    1e4c:	22 83       	std	Z+2, r18	; 0x02
    1e4e:	60 81       	ld	r22, Z
    1e50:	71 81       	ldd	r23, Z+1	; 0x01
    1e52:	86 0f       	add	r24, r22
    1e54:	97 1f       	adc	r25, r23
    1e56:	82 17       	cp	r24, r18
    1e58:	93 07       	cpc	r25, r19
    1e5a:	69 f4       	brne	.+26     	; 0x1e76 <free+0x94>
    1e5c:	ec 01       	movw	r28, r24
    1e5e:	28 81       	ld	r18, Y
    1e60:	39 81       	ldd	r19, Y+1	; 0x01
    1e62:	26 0f       	add	r18, r22
    1e64:	37 1f       	adc	r19, r23
    1e66:	2e 5f       	subi	r18, 0xFE	; 254
    1e68:	3f 4f       	sbci	r19, 0xFF	; 255
    1e6a:	31 83       	std	Z+1, r19	; 0x01
    1e6c:	20 83       	st	Z, r18
    1e6e:	8a 81       	ldd	r24, Y+2	; 0x02
    1e70:	9b 81       	ldd	r25, Y+3	; 0x03
    1e72:	93 83       	std	Z+3, r25	; 0x03
    1e74:	82 83       	std	Z+2, r24	; 0x02
    1e76:	45 2b       	or	r20, r21
    1e78:	29 f4       	brne	.+10     	; 0x1e84 <free+0xa2>
    1e7a:	f0 93 ff 01 	sts	0x01FF, r31	; 0x8001ff <__flp+0x1>
    1e7e:	e0 93 fe 01 	sts	0x01FE, r30	; 0x8001fe <__flp>
    1e82:	42 c0       	rjmp	.+132    	; 0x1f08 <free+0x126>
    1e84:	13 96       	adiw	r26, 0x03	; 3
    1e86:	fc 93       	st	X, r31
    1e88:	ee 93       	st	-X, r30
    1e8a:	12 97       	sbiw	r26, 0x02	; 2
    1e8c:	ed 01       	movw	r28, r26
    1e8e:	49 91       	ld	r20, Y+
    1e90:	59 91       	ld	r21, Y+
    1e92:	9e 01       	movw	r18, r28
    1e94:	24 0f       	add	r18, r20
    1e96:	35 1f       	adc	r19, r21
    1e98:	e2 17       	cp	r30, r18
    1e9a:	f3 07       	cpc	r31, r19
    1e9c:	71 f4       	brne	.+28     	; 0x1eba <free+0xd8>
    1e9e:	80 81       	ld	r24, Z
    1ea0:	91 81       	ldd	r25, Z+1	; 0x01
    1ea2:	84 0f       	add	r24, r20
    1ea4:	95 1f       	adc	r25, r21
    1ea6:	02 96       	adiw	r24, 0x02	; 2
    1ea8:	11 96       	adiw	r26, 0x01	; 1
    1eaa:	9c 93       	st	X, r25
    1eac:	8e 93       	st	-X, r24
    1eae:	82 81       	ldd	r24, Z+2	; 0x02
    1eb0:	93 81       	ldd	r25, Z+3	; 0x03
    1eb2:	13 96       	adiw	r26, 0x03	; 3
    1eb4:	9c 93       	st	X, r25
    1eb6:	8e 93       	st	-X, r24
    1eb8:	12 97       	sbiw	r26, 0x02	; 2
    1eba:	e0 e0       	ldi	r30, 0x00	; 0
    1ebc:	f0 e0       	ldi	r31, 0x00	; 0
    1ebe:	d8 01       	movw	r26, r16
    1ec0:	12 96       	adiw	r26, 0x02	; 2
    1ec2:	8d 91       	ld	r24, X+
    1ec4:	9c 91       	ld	r25, X
    1ec6:	13 97       	sbiw	r26, 0x03	; 3
    1ec8:	00 97       	sbiw	r24, 0x00	; 0
    1eca:	19 f0       	breq	.+6      	; 0x1ed2 <free+0xf0>
    1ecc:	f8 01       	movw	r30, r16
    1ece:	8c 01       	movw	r16, r24
    1ed0:	f6 cf       	rjmp	.-20     	; 0x1ebe <free+0xdc>
    1ed2:	8d 91       	ld	r24, X+
    1ed4:	9c 91       	ld	r25, X
    1ed6:	98 01       	movw	r18, r16
    1ed8:	2e 5f       	subi	r18, 0xFE	; 254
    1eda:	3f 4f       	sbci	r19, 0xFF	; 255
    1edc:	82 0f       	add	r24, r18
    1ede:	93 1f       	adc	r25, r19
    1ee0:	20 91 fc 01 	lds	r18, 0x01FC	; 0x8001fc <__brkval>
    1ee4:	30 91 fd 01 	lds	r19, 0x01FD	; 0x8001fd <__brkval+0x1>
    1ee8:	28 17       	cp	r18, r24
    1eea:	39 07       	cpc	r19, r25
    1eec:	69 f4       	brne	.+26     	; 0x1f08 <free+0x126>
    1eee:	30 97       	sbiw	r30, 0x00	; 0
    1ef0:	29 f4       	brne	.+10     	; 0x1efc <free+0x11a>
    1ef2:	10 92 ff 01 	sts	0x01FF, r1	; 0x8001ff <__flp+0x1>
    1ef6:	10 92 fe 01 	sts	0x01FE, r1	; 0x8001fe <__flp>
    1efa:	02 c0       	rjmp	.+4      	; 0x1f00 <free+0x11e>
    1efc:	13 82       	std	Z+3, r1	; 0x03
    1efe:	12 82       	std	Z+2, r1	; 0x02
    1f00:	10 93 fd 01 	sts	0x01FD, r17	; 0x8001fd <__brkval+0x1>
    1f04:	00 93 fc 01 	sts	0x01FC, r16	; 0x8001fc <__brkval>
    1f08:	df 91       	pop	r29
    1f0a:	cf 91       	pop	r28
    1f0c:	1f 91       	pop	r17
    1f0e:	0f 91       	pop	r16
    1f10:	08 95       	ret

00001f12 <realloc>:
    1f12:	a0 e0       	ldi	r26, 0x00	; 0
    1f14:	b0 e0       	ldi	r27, 0x00	; 0
    1f16:	ef e8       	ldi	r30, 0x8F	; 143
    1f18:	ff e0       	ldi	r31, 0x0F	; 15
    1f1a:	0c 94 15 0e 	jmp	0x1c2a	; 0x1c2a <__prologue_saves__+0x8>
    1f1e:	ec 01       	movw	r28, r24
    1f20:	00 97       	sbiw	r24, 0x00	; 0
    1f22:	21 f4       	brne	.+8      	; 0x1f2c <realloc+0x1a>
    1f24:	cb 01       	movw	r24, r22
    1f26:	0e 94 5c 0e 	call	0x1cb8	; 0x1cb8 <malloc>
    1f2a:	b8 c0       	rjmp	.+368    	; 0x209c <realloc+0x18a>
    1f2c:	fc 01       	movw	r30, r24
    1f2e:	e6 0f       	add	r30, r22
    1f30:	f7 1f       	adc	r31, r23
    1f32:	9c 01       	movw	r18, r24
    1f34:	22 50       	subi	r18, 0x02	; 2
    1f36:	31 09       	sbc	r19, r1
    1f38:	e2 17       	cp	r30, r18
    1f3a:	f3 07       	cpc	r31, r19
    1f3c:	08 f4       	brcc	.+2      	; 0x1f40 <realloc+0x2e>
    1f3e:	ac c0       	rjmp	.+344    	; 0x2098 <realloc+0x186>
    1f40:	d9 01       	movw	r26, r18
    1f42:	0d 91       	ld	r16, X+
    1f44:	1c 91       	ld	r17, X
    1f46:	11 97       	sbiw	r26, 0x01	; 1
    1f48:	06 17       	cp	r16, r22
    1f4a:	17 07       	cpc	r17, r23
    1f4c:	b0 f0       	brcs	.+44     	; 0x1f7a <realloc+0x68>
    1f4e:	05 30       	cpi	r16, 0x05	; 5
    1f50:	11 05       	cpc	r17, r1
    1f52:	08 f4       	brcc	.+2      	; 0x1f56 <realloc+0x44>
    1f54:	9f c0       	rjmp	.+318    	; 0x2094 <realloc+0x182>
    1f56:	c8 01       	movw	r24, r16
    1f58:	04 97       	sbiw	r24, 0x04	; 4
    1f5a:	86 17       	cp	r24, r22
    1f5c:	97 07       	cpc	r25, r23
    1f5e:	08 f4       	brcc	.+2      	; 0x1f62 <realloc+0x50>
    1f60:	99 c0       	rjmp	.+306    	; 0x2094 <realloc+0x182>
    1f62:	02 50       	subi	r16, 0x02	; 2
    1f64:	11 09       	sbc	r17, r1
    1f66:	06 1b       	sub	r16, r22
    1f68:	17 0b       	sbc	r17, r23
    1f6a:	01 93       	st	Z+, r16
    1f6c:	11 93       	st	Z+, r17
    1f6e:	6d 93       	st	X+, r22
    1f70:	7c 93       	st	X, r23
    1f72:	cf 01       	movw	r24, r30
    1f74:	0e 94 f1 0e 	call	0x1de2	; 0x1de2 <free>
    1f78:	8d c0       	rjmp	.+282    	; 0x2094 <realloc+0x182>
    1f7a:	5b 01       	movw	r10, r22
    1f7c:	a0 1a       	sub	r10, r16
    1f7e:	b1 0a       	sbc	r11, r17
    1f80:	4c 01       	movw	r8, r24
    1f82:	80 0e       	add	r8, r16
    1f84:	91 1e       	adc	r9, r17
    1f86:	a0 91 fe 01 	lds	r26, 0x01FE	; 0x8001fe <__flp>
    1f8a:	b0 91 ff 01 	lds	r27, 0x01FF	; 0x8001ff <__flp+0x1>
    1f8e:	40 e0       	ldi	r20, 0x00	; 0
    1f90:	50 e0       	ldi	r21, 0x00	; 0
    1f92:	e1 2c       	mov	r14, r1
    1f94:	f1 2c       	mov	r15, r1
    1f96:	10 97       	sbiw	r26, 0x00	; 0
    1f98:	09 f4       	brne	.+2      	; 0x1f9c <realloc+0x8a>
    1f9a:	4a c0       	rjmp	.+148    	; 0x2030 <realloc+0x11e>
    1f9c:	a8 15       	cp	r26, r8
    1f9e:	b9 05       	cpc	r27, r9
    1fa0:	d1 f5       	brne	.+116    	; 0x2016 <realloc+0x104>
    1fa2:	6d 90       	ld	r6, X+
    1fa4:	7c 90       	ld	r7, X
    1fa6:	11 97       	sbiw	r26, 0x01	; 1
    1fa8:	63 01       	movw	r12, r6
    1faa:	82 e0       	ldi	r24, 0x02	; 2
    1fac:	c8 0e       	add	r12, r24
    1fae:	d1 1c       	adc	r13, r1
    1fb0:	ca 14       	cp	r12, r10
    1fb2:	db 04       	cpc	r13, r11
    1fb4:	80 f1       	brcs	.+96     	; 0x2016 <realloc+0x104>
    1fb6:	a3 01       	movw	r20, r6
    1fb8:	4a 19       	sub	r20, r10
    1fba:	5b 09       	sbc	r21, r11
    1fbc:	6a 01       	movw	r12, r20
    1fbe:	82 e0       	ldi	r24, 0x02	; 2
    1fc0:	c8 0e       	add	r12, r24
    1fc2:	d1 1c       	adc	r13, r1
    1fc4:	12 96       	adiw	r26, 0x02	; 2
    1fc6:	bc 90       	ld	r11, X
    1fc8:	12 97       	sbiw	r26, 0x02	; 2
    1fca:	13 96       	adiw	r26, 0x03	; 3
    1fcc:	ac 91       	ld	r26, X
    1fce:	b5 e0       	ldi	r27, 0x05	; 5
    1fd0:	cb 16       	cp	r12, r27
    1fd2:	d1 04       	cpc	r13, r1
    1fd4:	40 f0       	brcs	.+16     	; 0x1fe6 <realloc+0xd4>
    1fd6:	b2 82       	std	Z+2, r11	; 0x02
    1fd8:	a3 83       	std	Z+3, r26	; 0x03
    1fda:	51 83       	std	Z+1, r21	; 0x01
    1fdc:	40 83       	st	Z, r20
    1fde:	d9 01       	movw	r26, r18
    1fe0:	6d 93       	st	X+, r22
    1fe2:	7c 93       	st	X, r23
    1fe4:	0a c0       	rjmp	.+20     	; 0x1ffa <realloc+0xe8>
    1fe6:	0e 5f       	subi	r16, 0xFE	; 254
    1fe8:	1f 4f       	sbci	r17, 0xFF	; 255
    1fea:	c3 01       	movw	r24, r6
    1fec:	80 0f       	add	r24, r16
    1fee:	91 1f       	adc	r25, r17
    1ff0:	f9 01       	movw	r30, r18
    1ff2:	91 83       	std	Z+1, r25	; 0x01
    1ff4:	80 83       	st	Z, r24
    1ff6:	eb 2d       	mov	r30, r11
    1ff8:	fa 2f       	mov	r31, r26
    1ffa:	e1 14       	cp	r14, r1
    1ffc:	f1 04       	cpc	r15, r1
    1ffe:	31 f0       	breq	.+12     	; 0x200c <realloc+0xfa>
    2000:	d7 01       	movw	r26, r14
    2002:	13 96       	adiw	r26, 0x03	; 3
    2004:	fc 93       	st	X, r31
    2006:	ee 93       	st	-X, r30
    2008:	12 97       	sbiw	r26, 0x02	; 2
    200a:	44 c0       	rjmp	.+136    	; 0x2094 <realloc+0x182>
    200c:	f0 93 ff 01 	sts	0x01FF, r31	; 0x8001ff <__flp+0x1>
    2010:	e0 93 fe 01 	sts	0x01FE, r30	; 0x8001fe <__flp>
    2014:	3f c0       	rjmp	.+126    	; 0x2094 <realloc+0x182>
    2016:	8d 91       	ld	r24, X+
    2018:	9c 91       	ld	r25, X
    201a:	11 97       	sbiw	r26, 0x01	; 1
    201c:	48 17       	cp	r20, r24
    201e:	59 07       	cpc	r21, r25
    2020:	08 f4       	brcc	.+2      	; 0x2024 <realloc+0x112>
    2022:	ac 01       	movw	r20, r24
    2024:	7d 01       	movw	r14, r26
    2026:	12 96       	adiw	r26, 0x02	; 2
    2028:	0d 90       	ld	r0, X+
    202a:	bc 91       	ld	r27, X
    202c:	a0 2d       	mov	r26, r0
    202e:	b3 cf       	rjmp	.-154    	; 0x1f96 <realloc+0x84>
    2030:	80 91 fc 01 	lds	r24, 0x01FC	; 0x8001fc <__brkval>
    2034:	90 91 fd 01 	lds	r25, 0x01FD	; 0x8001fd <__brkval+0x1>
    2038:	88 15       	cp	r24, r8
    203a:	99 05       	cpc	r25, r9
    203c:	e1 f4       	brne	.+56     	; 0x2076 <realloc+0x164>
    203e:	46 17       	cp	r20, r22
    2040:	57 07       	cpc	r21, r23
    2042:	c8 f4       	brcc	.+50     	; 0x2076 <realloc+0x164>
    2044:	80 91 00 01 	lds	r24, 0x0100	; 0x800100 <__data_start>
    2048:	90 91 01 01 	lds	r25, 0x0101	; 0x800101 <__data_start+0x1>
    204c:	00 97       	sbiw	r24, 0x00	; 0
    204e:	41 f4       	brne	.+16     	; 0x2060 <realloc+0x14e>
    2050:	8d b7       	in	r24, 0x3d	; 61
    2052:	9e b7       	in	r25, 0x3e	; 62
    2054:	40 91 04 01 	lds	r20, 0x0104	; 0x800104 <__malloc_margin>
    2058:	50 91 05 01 	lds	r21, 0x0105	; 0x800105 <__malloc_margin+0x1>
    205c:	84 1b       	sub	r24, r20
    205e:	95 0b       	sbc	r25, r21
    2060:	e8 17       	cp	r30, r24
    2062:	f9 07       	cpc	r31, r25
    2064:	c8 f4       	brcc	.+50     	; 0x2098 <realloc+0x186>
    2066:	f0 93 fd 01 	sts	0x01FD, r31	; 0x8001fd <__brkval+0x1>
    206a:	e0 93 fc 01 	sts	0x01FC, r30	; 0x8001fc <__brkval>
    206e:	f9 01       	movw	r30, r18
    2070:	71 83       	std	Z+1, r23	; 0x01
    2072:	60 83       	st	Z, r22
    2074:	0f c0       	rjmp	.+30     	; 0x2094 <realloc+0x182>
    2076:	cb 01       	movw	r24, r22
    2078:	0e 94 5c 0e 	call	0x1cb8	; 0x1cb8 <malloc>
    207c:	7c 01       	movw	r14, r24
    207e:	00 97       	sbiw	r24, 0x00	; 0
    2080:	59 f0       	breq	.+22     	; 0x2098 <realloc+0x186>
    2082:	a8 01       	movw	r20, r16
    2084:	be 01       	movw	r22, r28
    2086:	0e 94 54 12 	call	0x24a8	; 0x24a8 <memcpy>
    208a:	ce 01       	movw	r24, r28
    208c:	0e 94 f1 0e 	call	0x1de2	; 0x1de2 <free>
    2090:	c7 01       	movw	r24, r14
    2092:	04 c0       	rjmp	.+8      	; 0x209c <realloc+0x18a>
    2094:	ce 01       	movw	r24, r28
    2096:	02 c0       	rjmp	.+4      	; 0x209c <realloc+0x18a>
    2098:	80 e0       	ldi	r24, 0x00	; 0
    209a:	90 e0       	ldi	r25, 0x00	; 0
    209c:	cd b7       	in	r28, 0x3d	; 61
    209e:	de b7       	in	r29, 0x3e	; 62
    20a0:	ee e0       	ldi	r30, 0x0E	; 14
    20a2:	0c 94 31 0e 	jmp	0x1c62	; 0x1c62 <__epilogue_restores__+0x8>

000020a6 <strtol>:
    20a6:	a0 e0       	ldi	r26, 0x00	; 0
    20a8:	b0 e0       	ldi	r27, 0x00	; 0
    20aa:	e9 e5       	ldi	r30, 0x59	; 89
    20ac:	f0 e1       	ldi	r31, 0x10	; 16
    20ae:	0c 94 11 0e 	jmp	0x1c22	; 0x1c22 <__prologue_saves__>
    20b2:	5c 01       	movw	r10, r24
    20b4:	6b 01       	movw	r12, r22
    20b6:	7a 01       	movw	r14, r20
    20b8:	61 15       	cp	r22, r1
    20ba:	71 05       	cpc	r23, r1
    20bc:	19 f0       	breq	.+6      	; 0x20c4 <strtol+0x1e>
    20be:	fb 01       	movw	r30, r22
    20c0:	91 83       	std	Z+1, r25	; 0x01
    20c2:	80 83       	st	Z, r24
    20c4:	e1 14       	cp	r14, r1
    20c6:	f1 04       	cpc	r15, r1
    20c8:	29 f0       	breq	.+10     	; 0x20d4 <strtol+0x2e>
    20ca:	c7 01       	movw	r24, r14
    20cc:	02 97       	sbiw	r24, 0x02	; 2
    20ce:	83 97       	sbiw	r24, 0x23	; 35
    20d0:	08 f0       	brcs	.+2      	; 0x20d4 <strtol+0x2e>
    20d2:	f1 c0       	rjmp	.+482    	; 0x22b6 <strtol+0x210>
    20d4:	e5 01       	movw	r28, r10
    20d6:	21 96       	adiw	r28, 0x01	; 1
    20d8:	f5 01       	movw	r30, r10
    20da:	10 81       	ld	r17, Z
    20dc:	81 2f       	mov	r24, r17
    20de:	90 e0       	ldi	r25, 0x00	; 0
    20e0:	0e 94 40 12 	call	0x2480	; 0x2480 <isspace>
    20e4:	89 2b       	or	r24, r25
    20e6:	11 f0       	breq	.+4      	; 0x20ec <strtol+0x46>
    20e8:	5e 01       	movw	r10, r28
    20ea:	f4 cf       	rjmp	.-24     	; 0x20d4 <strtol+0x2e>
    20ec:	1d 32       	cpi	r17, 0x2D	; 45
    20ee:	29 f4       	brne	.+10     	; 0x20fa <strtol+0x54>
    20f0:	21 96       	adiw	r28, 0x01	; 1
    20f2:	f5 01       	movw	r30, r10
    20f4:	11 81       	ldd	r17, Z+1	; 0x01
    20f6:	01 e0       	ldi	r16, 0x01	; 1
    20f8:	07 c0       	rjmp	.+14     	; 0x2108 <strtol+0x62>
    20fa:	1b 32       	cpi	r17, 0x2B	; 43
    20fc:	21 f4       	brne	.+8      	; 0x2106 <strtol+0x60>
    20fe:	e5 01       	movw	r28, r10
    2100:	22 96       	adiw	r28, 0x02	; 2
    2102:	f5 01       	movw	r30, r10
    2104:	11 81       	ldd	r17, Z+1	; 0x01
    2106:	00 e0       	ldi	r16, 0x00	; 0
    2108:	e1 14       	cp	r14, r1
    210a:	f1 04       	cpc	r15, r1
    210c:	59 f1       	breq	.+86     	; 0x2164 <strtol+0xbe>
    210e:	f0 e1       	ldi	r31, 0x10	; 16
    2110:	ef 16       	cp	r14, r31
    2112:	f1 04       	cpc	r15, r1
    2114:	61 f4       	brne	.+24     	; 0x212e <strtol+0x88>
    2116:	10 33       	cpi	r17, 0x30	; 48
    2118:	e1 f4       	brne	.+56     	; 0x2152 <strtol+0xac>
    211a:	88 81       	ld	r24, Y
    211c:	8f 7d       	andi	r24, 0xDF	; 223
    211e:	88 35       	cpi	r24, 0x58	; 88
    2120:	69 f5       	brne	.+90     	; 0x217c <strtol+0xd6>
    2122:	19 81       	ldd	r17, Y+1	; 0x01
    2124:	22 96       	adiw	r28, 0x02	; 2
    2126:	02 60       	ori	r16, 0x02	; 2
    2128:	70 e1       	ldi	r23, 0x10	; 16
    212a:	e7 2e       	mov	r14, r23
    212c:	f1 2c       	mov	r15, r1
    212e:	88 e0       	ldi	r24, 0x08	; 8
    2130:	e8 16       	cp	r14, r24
    2132:	f1 04       	cpc	r15, r1
    2134:	39 f1       	breq	.+78     	; 0x2184 <strtol+0xde>
    2136:	2c f4       	brge	.+10     	; 0x2142 <strtol+0x9c>
    2138:	f2 e0       	ldi	r31, 0x02	; 2
    213a:	ef 16       	cp	r14, r31
    213c:	f1 04       	cpc	r15, r1
    213e:	c9 f1       	breq	.+114    	; 0x21b2 <strtol+0x10c>
    2140:	2a c0       	rjmp	.+84     	; 0x2196 <strtol+0xf0>
    2142:	8a e0       	ldi	r24, 0x0A	; 10
    2144:	e8 16       	cp	r14, r24
    2146:	f1 04       	cpc	r15, r1
    2148:	79 f0       	breq	.+30     	; 0x2168 <strtol+0xc2>
    214a:	e0 e1       	ldi	r30, 0x10	; 16
    214c:	ee 16       	cp	r14, r30
    214e:	f1 04       	cpc	r15, r1
    2150:	11 f5       	brne	.+68     	; 0x2196 <strtol+0xf0>
    2152:	50 e1       	ldi	r21, 0x10	; 16
    2154:	e5 2e       	mov	r14, r21
    2156:	f1 2c       	mov	r15, r1
    2158:	81 2c       	mov	r8, r1
    215a:	91 2c       	mov	r9, r1
    215c:	a1 2c       	mov	r10, r1
    215e:	68 e0       	ldi	r22, 0x08	; 8
    2160:	b6 2e       	mov	r11, r22
    2162:	2c c0       	rjmp	.+88     	; 0x21bc <strtol+0x116>
    2164:	10 33       	cpi	r17, 0x30	; 48
    2166:	c9 f2       	breq	.-78     	; 0x211a <strtol+0x74>
    2168:	3a e0       	ldi	r19, 0x0A	; 10
    216a:	e3 2e       	mov	r14, r19
    216c:	f1 2c       	mov	r15, r1
    216e:	4c ec       	ldi	r20, 0xCC	; 204
    2170:	84 2e       	mov	r8, r20
    2172:	98 2c       	mov	r9, r8
    2174:	a8 2c       	mov	r10, r8
    2176:	4c e0       	ldi	r20, 0x0C	; 12
    2178:	b4 2e       	mov	r11, r20
    217a:	20 c0       	rjmp	.+64     	; 0x21bc <strtol+0x116>
    217c:	10 e3       	ldi	r17, 0x30	; 48
    217e:	e1 14       	cp	r14, r1
    2180:	f1 04       	cpc	r15, r1
    2182:	a9 f6       	brne	.-86     	; 0x212e <strtol+0x88>
    2184:	98 e0       	ldi	r25, 0x08	; 8
    2186:	e9 2e       	mov	r14, r25
    2188:	f1 2c       	mov	r15, r1
    218a:	81 2c       	mov	r8, r1
    218c:	91 2c       	mov	r9, r1
    218e:	a1 2c       	mov	r10, r1
    2190:	20 e1       	ldi	r18, 0x10	; 16
    2192:	b2 2e       	mov	r11, r18
    2194:	13 c0       	rjmp	.+38     	; 0x21bc <strtol+0x116>
    2196:	60 e0       	ldi	r22, 0x00	; 0
    2198:	70 e0       	ldi	r23, 0x00	; 0
    219a:	80 e0       	ldi	r24, 0x00	; 0
    219c:	90 e8       	ldi	r25, 0x80	; 128
    219e:	97 01       	movw	r18, r14
    21a0:	0f 2c       	mov	r0, r15
    21a2:	00 0c       	add	r0, r0
    21a4:	44 0b       	sbc	r20, r20
    21a6:	55 0b       	sbc	r21, r21
    21a8:	0e 94 d0 0d 	call	0x1ba0	; 0x1ba0 <__udivmodsi4>
    21ac:	49 01       	movw	r8, r18
    21ae:	5a 01       	movw	r10, r20
    21b0:	05 c0       	rjmp	.+10     	; 0x21bc <strtol+0x116>
    21b2:	81 2c       	mov	r8, r1
    21b4:	91 2c       	mov	r9, r1
    21b6:	a1 2c       	mov	r10, r1
    21b8:	80 e4       	ldi	r24, 0x40	; 64
    21ba:	b8 2e       	mov	r11, r24
    21bc:	60 e0       	ldi	r22, 0x00	; 0
    21be:	20 e0       	ldi	r18, 0x00	; 0
    21c0:	30 e0       	ldi	r19, 0x00	; 0
    21c2:	a9 01       	movw	r20, r18
    21c4:	27 01       	movw	r4, r14
    21c6:	0f 2c       	mov	r0, r15
    21c8:	00 0c       	add	r0, r0
    21ca:	66 08       	sbc	r6, r6
    21cc:	77 08       	sbc	r7, r7
    21ce:	1e 01       	movw	r2, r28
    21d0:	e0 ed       	ldi	r30, 0xD0	; 208
    21d2:	e1 0f       	add	r30, r17
    21d4:	ea 30       	cpi	r30, 0x0A	; 10
    21d6:	60 f0       	brcs	.+24     	; 0x21f0 <strtol+0x14a>
    21d8:	8f eb       	ldi	r24, 0xBF	; 191
    21da:	81 0f       	add	r24, r17
    21dc:	8a 31       	cpi	r24, 0x1A	; 26
    21de:	10 f4       	brcc	.+4      	; 0x21e4 <strtol+0x13e>
    21e0:	e9 ec       	ldi	r30, 0xC9	; 201
    21e2:	05 c0       	rjmp	.+10     	; 0x21ee <strtol+0x148>
    21e4:	8f e9       	ldi	r24, 0x9F	; 159
    21e6:	81 0f       	add	r24, r17
    21e8:	8a 31       	cpi	r24, 0x1A	; 26
    21ea:	28 f5       	brcc	.+74     	; 0x2236 <strtol+0x190>
    21ec:	e9 ea       	ldi	r30, 0xA9	; 169
    21ee:	e1 0f       	add	r30, r17
    21f0:	8e 2f       	mov	r24, r30
    21f2:	90 e0       	ldi	r25, 0x00	; 0
    21f4:	8e 15       	cp	r24, r14
    21f6:	9f 05       	cpc	r25, r15
    21f8:	f4 f4       	brge	.+60     	; 0x2236 <strtol+0x190>
    21fa:	67 fd       	sbrc	r22, 7
    21fc:	18 c0       	rjmp	.+48     	; 0x222e <strtol+0x188>
    21fe:	82 16       	cp	r8, r18
    2200:	93 06       	cpc	r9, r19
    2202:	a4 06       	cpc	r10, r20
    2204:	b5 06       	cpc	r11, r21
    2206:	90 f0       	brcs	.+36     	; 0x222c <strtol+0x186>
    2208:	c3 01       	movw	r24, r6
    220a:	b2 01       	movw	r22, r4
    220c:	0e 94 f6 14 	call	0x29ec	; 0x29ec <__mulsi3>
    2210:	9b 01       	movw	r18, r22
    2212:	ac 01       	movw	r20, r24
    2214:	2e 0f       	add	r18, r30
    2216:	31 1d       	adc	r19, r1
    2218:	41 1d       	adc	r20, r1
    221a:	51 1d       	adc	r21, r1
    221c:	21 30       	cpi	r18, 0x01	; 1
    221e:	31 05       	cpc	r19, r1
    2220:	41 05       	cpc	r20, r1
    2222:	f0 e8       	ldi	r31, 0x80	; 128
    2224:	5f 07       	cpc	r21, r31
    2226:	10 f4       	brcc	.+4      	; 0x222c <strtol+0x186>
    2228:	61 e0       	ldi	r22, 0x01	; 1
    222a:	01 c0       	rjmp	.+2      	; 0x222e <strtol+0x188>
    222c:	6f ef       	ldi	r22, 0xFF	; 255
    222e:	21 96       	adiw	r28, 0x01	; 1
    2230:	f1 01       	movw	r30, r2
    2232:	10 81       	ld	r17, Z
    2234:	cc cf       	rjmp	.-104    	; 0x21ce <strtol+0x128>
    2236:	80 2f       	mov	r24, r16
    2238:	81 70       	andi	r24, 0x01	; 1
    223a:	c1 14       	cp	r12, r1
    223c:	d1 04       	cpc	r13, r1
    223e:	71 f0       	breq	.+28     	; 0x225c <strtol+0x1b6>
    2240:	66 23       	and	r22, r22
    2242:	29 f0       	breq	.+10     	; 0x224e <strtol+0x1a8>
    2244:	21 97       	sbiw	r28, 0x01	; 1
    2246:	f6 01       	movw	r30, r12
    2248:	d1 83       	std	Z+1, r29	; 0x01
    224a:	c0 83       	st	Z, r28
    224c:	07 c0       	rjmp	.+14     	; 0x225c <strtol+0x1b6>
    224e:	01 ff       	sbrs	r16, 1
    2250:	19 c0       	rjmp	.+50     	; 0x2284 <strtol+0x1de>
    2252:	22 97       	sbiw	r28, 0x02	; 2
    2254:	f6 01       	movw	r30, r12
    2256:	d1 83       	std	Z+1, r29	; 0x01
    2258:	c0 83       	st	Z, r28
    225a:	14 c0       	rjmp	.+40     	; 0x2284 <strtol+0x1de>
    225c:	67 ff       	sbrs	r22, 7
    225e:	12 c0       	rjmp	.+36     	; 0x2284 <strtol+0x1de>
    2260:	81 11       	cpse	r24, r1
    2262:	05 c0       	rjmp	.+10     	; 0x226e <strtol+0x1c8>
    2264:	2f ef       	ldi	r18, 0xFF	; 255
    2266:	3f ef       	ldi	r19, 0xFF	; 255
    2268:	4f ef       	ldi	r20, 0xFF	; 255
    226a:	5f e7       	ldi	r21, 0x7F	; 127
    226c:	04 c0       	rjmp	.+8      	; 0x2276 <strtol+0x1d0>
    226e:	20 e0       	ldi	r18, 0x00	; 0
    2270:	30 e0       	ldi	r19, 0x00	; 0
    2272:	40 e0       	ldi	r20, 0x00	; 0
    2274:	50 e8       	ldi	r21, 0x80	; 128
    2276:	82 e2       	ldi	r24, 0x22	; 34
    2278:	90 e0       	ldi	r25, 0x00	; 0
    227a:	90 93 07 02 	sts	0x0207, r25	; 0x800207 <errno+0x1>
    227e:	80 93 06 02 	sts	0x0206, r24	; 0x800206 <errno>
    2282:	16 c0       	rjmp	.+44     	; 0x22b0 <strtol+0x20a>
    2284:	88 23       	and	r24, r24
    2286:	41 f0       	breq	.+16     	; 0x2298 <strtol+0x1f2>
    2288:	50 95       	com	r21
    228a:	40 95       	com	r20
    228c:	30 95       	com	r19
    228e:	21 95       	neg	r18
    2290:	3f 4f       	sbci	r19, 0xFF	; 255
    2292:	4f 4f       	sbci	r20, 0xFF	; 255
    2294:	5f 4f       	sbci	r21, 0xFF	; 255
    2296:	0c c0       	rjmp	.+24     	; 0x22b0 <strtol+0x20a>
    2298:	57 ff       	sbrs	r21, 7
    229a:	0a c0       	rjmp	.+20     	; 0x22b0 <strtol+0x20a>
    229c:	82 e2       	ldi	r24, 0x22	; 34
    229e:	90 e0       	ldi	r25, 0x00	; 0
    22a0:	90 93 07 02 	sts	0x0207, r25	; 0x800207 <errno+0x1>
    22a4:	80 93 06 02 	sts	0x0206, r24	; 0x800206 <errno>
    22a8:	2f ef       	ldi	r18, 0xFF	; 255
    22aa:	3f ef       	ldi	r19, 0xFF	; 255
    22ac:	4f ef       	ldi	r20, 0xFF	; 255
    22ae:	5f e7       	ldi	r21, 0x7F	; 127
    22b0:	b9 01       	movw	r22, r18
    22b2:	ca 01       	movw	r24, r20
    22b4:	04 c0       	rjmp	.+8      	; 0x22be <strtol+0x218>
    22b6:	60 e0       	ldi	r22, 0x00	; 0
    22b8:	70 e0       	ldi	r23, 0x00	; 0
    22ba:	80 e0       	ldi	r24, 0x00	; 0
    22bc:	90 e0       	ldi	r25, 0x00	; 0
    22be:	cd b7       	in	r28, 0x3d	; 61
    22c0:	de b7       	in	r29, 0x3e	; 62
    22c2:	e2 e1       	ldi	r30, 0x12	; 18
    22c4:	0c 94 2d 0e 	jmp	0x1c5a	; 0x1c5a <__epilogue_restores__>

000022c8 <atof>:
    22c8:	66 27       	eor	r22, r22
    22ca:	77 27       	eor	r23, r23
    22cc:	0c 94 55 13 	jmp	0x26aa	; 0x26aa <strtod>

000022d0 <__ftoa_engine>:
    22d0:	28 30       	cpi	r18, 0x08	; 8
    22d2:	08 f0       	brcs	.+2      	; 0x22d6 <__ftoa_engine+0x6>
    22d4:	27 e0       	ldi	r18, 0x07	; 7
    22d6:	33 27       	eor	r19, r19
    22d8:	da 01       	movw	r26, r20
    22da:	99 0f       	add	r25, r25
    22dc:	31 1d       	adc	r19, r1
    22de:	87 fd       	sbrc	r24, 7
    22e0:	91 60       	ori	r25, 0x01	; 1
    22e2:	00 96       	adiw	r24, 0x00	; 0
    22e4:	61 05       	cpc	r22, r1
    22e6:	71 05       	cpc	r23, r1
    22e8:	39 f4       	brne	.+14     	; 0x22f8 <__ftoa_engine+0x28>
    22ea:	32 60       	ori	r19, 0x02	; 2
    22ec:	2e 5f       	subi	r18, 0xFE	; 254
    22ee:	3d 93       	st	X+, r19
    22f0:	30 e3       	ldi	r19, 0x30	; 48
    22f2:	2a 95       	dec	r18
    22f4:	e1 f7       	brne	.-8      	; 0x22ee <__ftoa_engine+0x1e>
    22f6:	08 95       	ret
    22f8:	9f 3f       	cpi	r25, 0xFF	; 255
    22fa:	30 f0       	brcs	.+12     	; 0x2308 <__ftoa_engine+0x38>
    22fc:	80 38       	cpi	r24, 0x80	; 128
    22fe:	71 05       	cpc	r23, r1
    2300:	61 05       	cpc	r22, r1
    2302:	09 f0       	breq	.+2      	; 0x2306 <__ftoa_engine+0x36>
    2304:	3c 5f       	subi	r19, 0xFC	; 252
    2306:	3c 5f       	subi	r19, 0xFC	; 252
    2308:	3d 93       	st	X+, r19
    230a:	91 30       	cpi	r25, 0x01	; 1
    230c:	08 f0       	brcs	.+2      	; 0x2310 <__ftoa_engine+0x40>
    230e:	80 68       	ori	r24, 0x80	; 128
    2310:	91 1d       	adc	r25, r1
    2312:	df 93       	push	r29
    2314:	cf 93       	push	r28
    2316:	1f 93       	push	r17
    2318:	0f 93       	push	r16
    231a:	ff 92       	push	r15
    231c:	ef 92       	push	r14
    231e:	19 2f       	mov	r17, r25
    2320:	98 7f       	andi	r25, 0xF8	; 248
    2322:	96 95       	lsr	r25
    2324:	e9 2f       	mov	r30, r25
    2326:	96 95       	lsr	r25
    2328:	96 95       	lsr	r25
    232a:	e9 0f       	add	r30, r25
    232c:	ff 27       	eor	r31, r31
    232e:	ea 5e       	subi	r30, 0xEA	; 234
    2330:	fe 4f       	sbci	r31, 0xFE	; 254
    2332:	99 27       	eor	r25, r25
    2334:	33 27       	eor	r19, r19
    2336:	ee 24       	eor	r14, r14
    2338:	ff 24       	eor	r15, r15
    233a:	a7 01       	movw	r20, r14
    233c:	e7 01       	movw	r28, r14
    233e:	05 90       	lpm	r0, Z+
    2340:	08 94       	sec
    2342:	07 94       	ror	r0
    2344:	28 f4       	brcc	.+10     	; 0x2350 <__ftoa_engine+0x80>
    2346:	36 0f       	add	r19, r22
    2348:	e7 1e       	adc	r14, r23
    234a:	f8 1e       	adc	r15, r24
    234c:	49 1f       	adc	r20, r25
    234e:	51 1d       	adc	r21, r1
    2350:	66 0f       	add	r22, r22
    2352:	77 1f       	adc	r23, r23
    2354:	88 1f       	adc	r24, r24
    2356:	99 1f       	adc	r25, r25
    2358:	06 94       	lsr	r0
    235a:	a1 f7       	brne	.-24     	; 0x2344 <__ftoa_engine+0x74>
    235c:	05 90       	lpm	r0, Z+
    235e:	07 94       	ror	r0
    2360:	28 f4       	brcc	.+10     	; 0x236c <__ftoa_engine+0x9c>
    2362:	e7 0e       	add	r14, r23
    2364:	f8 1e       	adc	r15, r24
    2366:	49 1f       	adc	r20, r25
    2368:	56 1f       	adc	r21, r22
    236a:	c1 1d       	adc	r28, r1
    236c:	77 0f       	add	r23, r23
    236e:	88 1f       	adc	r24, r24
    2370:	99 1f       	adc	r25, r25
    2372:	66 1f       	adc	r22, r22
    2374:	06 94       	lsr	r0
    2376:	a1 f7       	brne	.-24     	; 0x2360 <__ftoa_engine+0x90>
    2378:	05 90       	lpm	r0, Z+
    237a:	07 94       	ror	r0
    237c:	28 f4       	brcc	.+10     	; 0x2388 <__ftoa_engine+0xb8>
    237e:	f8 0e       	add	r15, r24
    2380:	49 1f       	adc	r20, r25
    2382:	56 1f       	adc	r21, r22
    2384:	c7 1f       	adc	r28, r23
    2386:	d1 1d       	adc	r29, r1
    2388:	88 0f       	add	r24, r24
    238a:	99 1f       	adc	r25, r25
    238c:	66 1f       	adc	r22, r22
    238e:	77 1f       	adc	r23, r23
    2390:	06 94       	lsr	r0
    2392:	a1 f7       	brne	.-24     	; 0x237c <__ftoa_engine+0xac>
    2394:	05 90       	lpm	r0, Z+
    2396:	07 94       	ror	r0
    2398:	20 f4       	brcc	.+8      	; 0x23a2 <__ftoa_engine+0xd2>
    239a:	49 0f       	add	r20, r25
    239c:	56 1f       	adc	r21, r22
    239e:	c7 1f       	adc	r28, r23
    23a0:	d8 1f       	adc	r29, r24
    23a2:	99 0f       	add	r25, r25
    23a4:	66 1f       	adc	r22, r22
    23a6:	77 1f       	adc	r23, r23
    23a8:	88 1f       	adc	r24, r24
    23aa:	06 94       	lsr	r0
    23ac:	a9 f7       	brne	.-22     	; 0x2398 <__ftoa_engine+0xc8>
    23ae:	84 91       	lpm	r24, Z
    23b0:	10 95       	com	r17
    23b2:	17 70       	andi	r17, 0x07	; 7
    23b4:	41 f0       	breq	.+16     	; 0x23c6 <__ftoa_engine+0xf6>
    23b6:	d6 95       	lsr	r29
    23b8:	c7 95       	ror	r28
    23ba:	57 95       	ror	r21
    23bc:	47 95       	ror	r20
    23be:	f7 94       	ror	r15
    23c0:	e7 94       	ror	r14
    23c2:	1a 95       	dec	r17
    23c4:	c1 f7       	brne	.-16     	; 0x23b6 <__ftoa_engine+0xe6>
    23c6:	ec eb       	ldi	r30, 0xBC	; 188
    23c8:	f0 e0       	ldi	r31, 0x00	; 0
    23ca:	68 94       	set
    23cc:	15 90       	lpm	r1, Z+
    23ce:	15 91       	lpm	r17, Z+
    23d0:	35 91       	lpm	r19, Z+
    23d2:	65 91       	lpm	r22, Z+
    23d4:	95 91       	lpm	r25, Z+
    23d6:	05 90       	lpm	r0, Z+
    23d8:	7f e2       	ldi	r23, 0x2F	; 47
    23da:	73 95       	inc	r23
    23dc:	e1 18       	sub	r14, r1
    23de:	f1 0a       	sbc	r15, r17
    23e0:	43 0b       	sbc	r20, r19
    23e2:	56 0b       	sbc	r21, r22
    23e4:	c9 0b       	sbc	r28, r25
    23e6:	d0 09       	sbc	r29, r0
    23e8:	c0 f7       	brcc	.-16     	; 0x23da <__ftoa_engine+0x10a>
    23ea:	e1 0c       	add	r14, r1
    23ec:	f1 1e       	adc	r15, r17
    23ee:	43 1f       	adc	r20, r19
    23f0:	56 1f       	adc	r21, r22
    23f2:	c9 1f       	adc	r28, r25
    23f4:	d0 1d       	adc	r29, r0
    23f6:	7e f4       	brtc	.+30     	; 0x2416 <__ftoa_engine+0x146>
    23f8:	70 33       	cpi	r23, 0x30	; 48
    23fa:	11 f4       	brne	.+4      	; 0x2400 <__ftoa_engine+0x130>
    23fc:	8a 95       	dec	r24
    23fe:	e6 cf       	rjmp	.-52     	; 0x23cc <__ftoa_engine+0xfc>
    2400:	e8 94       	clt
    2402:	01 50       	subi	r16, 0x01	; 1
    2404:	30 f0       	brcs	.+12     	; 0x2412 <__ftoa_engine+0x142>
    2406:	08 0f       	add	r16, r24
    2408:	0a f4       	brpl	.+2      	; 0x240c <__ftoa_engine+0x13c>
    240a:	00 27       	eor	r16, r16
    240c:	02 17       	cp	r16, r18
    240e:	08 f4       	brcc	.+2      	; 0x2412 <__ftoa_engine+0x142>
    2410:	20 2f       	mov	r18, r16
    2412:	23 95       	inc	r18
    2414:	02 2f       	mov	r16, r18
    2416:	7a 33       	cpi	r23, 0x3A	; 58
    2418:	28 f0       	brcs	.+10     	; 0x2424 <__ftoa_engine+0x154>
    241a:	79 e3       	ldi	r23, 0x39	; 57
    241c:	7d 93       	st	X+, r23
    241e:	2a 95       	dec	r18
    2420:	e9 f7       	brne	.-6      	; 0x241c <__ftoa_engine+0x14c>
    2422:	10 c0       	rjmp	.+32     	; 0x2444 <__ftoa_engine+0x174>
    2424:	7d 93       	st	X+, r23
    2426:	2a 95       	dec	r18
    2428:	89 f6       	brne	.-94     	; 0x23cc <__ftoa_engine+0xfc>
    242a:	06 94       	lsr	r0
    242c:	97 95       	ror	r25
    242e:	67 95       	ror	r22
    2430:	37 95       	ror	r19
    2432:	17 95       	ror	r17
    2434:	17 94       	ror	r1
    2436:	e1 18       	sub	r14, r1
    2438:	f1 0a       	sbc	r15, r17
    243a:	43 0b       	sbc	r20, r19
    243c:	56 0b       	sbc	r21, r22
    243e:	c9 0b       	sbc	r28, r25
    2440:	d0 09       	sbc	r29, r0
    2442:	98 f0       	brcs	.+38     	; 0x246a <__ftoa_engine+0x19a>
    2444:	23 95       	inc	r18
    2446:	7e 91       	ld	r23, -X
    2448:	73 95       	inc	r23
    244a:	7a 33       	cpi	r23, 0x3A	; 58
    244c:	08 f0       	brcs	.+2      	; 0x2450 <__ftoa_engine+0x180>
    244e:	70 e3       	ldi	r23, 0x30	; 48
    2450:	7c 93       	st	X, r23
    2452:	20 13       	cpse	r18, r16
    2454:	b8 f7       	brcc	.-18     	; 0x2444 <__ftoa_engine+0x174>
    2456:	7e 91       	ld	r23, -X
    2458:	70 61       	ori	r23, 0x10	; 16
    245a:	7d 93       	st	X+, r23
    245c:	30 f0       	brcs	.+12     	; 0x246a <__ftoa_engine+0x19a>
    245e:	83 95       	inc	r24
    2460:	71 e3       	ldi	r23, 0x31	; 49
    2462:	7d 93       	st	X+, r23
    2464:	70 e3       	ldi	r23, 0x30	; 48
    2466:	2a 95       	dec	r18
    2468:	e1 f7       	brne	.-8      	; 0x2462 <__ftoa_engine+0x192>
    246a:	11 24       	eor	r1, r1
    246c:	ef 90       	pop	r14
    246e:	ff 90       	pop	r15
    2470:	0f 91       	pop	r16
    2472:	1f 91       	pop	r17
    2474:	cf 91       	pop	r28
    2476:	df 91       	pop	r29
    2478:	99 27       	eor	r25, r25
    247a:	87 fd       	sbrc	r24, 7
    247c:	90 95       	com	r25
    247e:	08 95       	ret

00002480 <isspace>:
    2480:	91 11       	cpse	r25, r1
    2482:	0c 94 b2 14 	jmp	0x2964	; 0x2964 <__ctype_isfalse>
    2486:	80 32       	cpi	r24, 0x20	; 32
    2488:	19 f0       	breq	.+6      	; 0x2490 <isspace+0x10>
    248a:	89 50       	subi	r24, 0x09	; 9
    248c:	85 50       	subi	r24, 0x05	; 5
    248e:	c8 f7       	brcc	.-14     	; 0x2482 <isspace+0x2>
    2490:	08 95       	ret

00002492 <strnlen_P>:
    2492:	fc 01       	movw	r30, r24
    2494:	05 90       	lpm	r0, Z+
    2496:	61 50       	subi	r22, 0x01	; 1
    2498:	70 40       	sbci	r23, 0x00	; 0
    249a:	01 10       	cpse	r0, r1
    249c:	d8 f7       	brcc	.-10     	; 0x2494 <strnlen_P+0x2>
    249e:	80 95       	com	r24
    24a0:	90 95       	com	r25
    24a2:	8e 0f       	add	r24, r30
    24a4:	9f 1f       	adc	r25, r31
    24a6:	08 95       	ret

000024a8 <memcpy>:
    24a8:	fb 01       	movw	r30, r22
    24aa:	dc 01       	movw	r26, r24
    24ac:	02 c0       	rjmp	.+4      	; 0x24b2 <memcpy+0xa>
    24ae:	01 90       	ld	r0, Z+
    24b0:	0d 92       	st	X+, r0
    24b2:	41 50       	subi	r20, 0x01	; 1
    24b4:	50 40       	sbci	r21, 0x00	; 0
    24b6:	d8 f7       	brcc	.-10     	; 0x24ae <memcpy+0x6>
    24b8:	08 95       	ret

000024ba <strcspn>:
    24ba:	dc 01       	movw	r26, r24
    24bc:	5d 91       	ld	r21, X+
    24be:	55 23       	and	r21, r21
    24c0:	31 f0       	breq	.+12     	; 0x24ce <strcspn+0x14>
    24c2:	fb 01       	movw	r30, r22
    24c4:	01 90       	ld	r0, Z+
    24c6:	05 16       	cp	r0, r21
    24c8:	01 10       	cpse	r0, r1
    24ca:	e1 f7       	brne	.-8      	; 0x24c4 <strcspn+0xa>
    24cc:	b9 f7       	brne	.-18     	; 0x24bc <strcspn+0x2>
    24ce:	80 95       	com	r24
    24d0:	90 95       	com	r25
    24d2:	8a 0f       	add	r24, r26
    24d4:	9b 1f       	adc	r25, r27
    24d6:	08 95       	ret

000024d8 <strncpy>:
    24d8:	fb 01       	movw	r30, r22
    24da:	dc 01       	movw	r26, r24
    24dc:	41 50       	subi	r20, 0x01	; 1
    24de:	50 40       	sbci	r21, 0x00	; 0
    24e0:	48 f0       	brcs	.+18     	; 0x24f4 <strncpy+0x1c>
    24e2:	01 90       	ld	r0, Z+
    24e4:	0d 92       	st	X+, r0
    24e6:	00 20       	and	r0, r0
    24e8:	c9 f7       	brne	.-14     	; 0x24dc <strncpy+0x4>
    24ea:	01 c0       	rjmp	.+2      	; 0x24ee <strncpy+0x16>
    24ec:	1d 92       	st	X+, r1
    24ee:	41 50       	subi	r20, 0x01	; 1
    24f0:	50 40       	sbci	r21, 0x00	; 0
    24f2:	e0 f7       	brcc	.-8      	; 0x24ec <strncpy+0x14>
    24f4:	08 95       	ret

000024f6 <strnlen>:
    24f6:	fc 01       	movw	r30, r24
    24f8:	61 50       	subi	r22, 0x01	; 1
    24fa:	70 40       	sbci	r23, 0x00	; 0
    24fc:	01 90       	ld	r0, Z+
    24fe:	01 10       	cpse	r0, r1
    2500:	d8 f7       	brcc	.-10     	; 0x24f8 <strnlen+0x2>
    2502:	80 95       	com	r24
    2504:	90 95       	com	r25
    2506:	8e 0f       	add	r24, r30
    2508:	9f 1f       	adc	r25, r31
    250a:	08 95       	ret

0000250c <fputc>:
    250c:	0f 93       	push	r16
    250e:	1f 93       	push	r17
    2510:	cf 93       	push	r28
    2512:	df 93       	push	r29
    2514:	fb 01       	movw	r30, r22
    2516:	23 81       	ldd	r18, Z+3	; 0x03
    2518:	21 fd       	sbrc	r18, 1
    251a:	03 c0       	rjmp	.+6      	; 0x2522 <fputc+0x16>
    251c:	8f ef       	ldi	r24, 0xFF	; 255
    251e:	9f ef       	ldi	r25, 0xFF	; 255
    2520:	28 c0       	rjmp	.+80     	; 0x2572 <fputc+0x66>
    2522:	22 ff       	sbrs	r18, 2
    2524:	16 c0       	rjmp	.+44     	; 0x2552 <fputc+0x46>
    2526:	46 81       	ldd	r20, Z+6	; 0x06
    2528:	57 81       	ldd	r21, Z+7	; 0x07
    252a:	24 81       	ldd	r18, Z+4	; 0x04
    252c:	35 81       	ldd	r19, Z+5	; 0x05
    252e:	42 17       	cp	r20, r18
    2530:	53 07       	cpc	r21, r19
    2532:	44 f4       	brge	.+16     	; 0x2544 <fputc+0x38>
    2534:	a0 81       	ld	r26, Z
    2536:	b1 81       	ldd	r27, Z+1	; 0x01
    2538:	9d 01       	movw	r18, r26
    253a:	2f 5f       	subi	r18, 0xFF	; 255
    253c:	3f 4f       	sbci	r19, 0xFF	; 255
    253e:	31 83       	std	Z+1, r19	; 0x01
    2540:	20 83       	st	Z, r18
    2542:	8c 93       	st	X, r24
    2544:	26 81       	ldd	r18, Z+6	; 0x06
    2546:	37 81       	ldd	r19, Z+7	; 0x07
    2548:	2f 5f       	subi	r18, 0xFF	; 255
    254a:	3f 4f       	sbci	r19, 0xFF	; 255
    254c:	37 83       	std	Z+7, r19	; 0x07
    254e:	26 83       	std	Z+6, r18	; 0x06
    2550:	10 c0       	rjmp	.+32     	; 0x2572 <fputc+0x66>
    2552:	eb 01       	movw	r28, r22
    2554:	09 2f       	mov	r16, r25
    2556:	18 2f       	mov	r17, r24
    2558:	00 84       	ldd	r0, Z+8	; 0x08
    255a:	f1 85       	ldd	r31, Z+9	; 0x09
    255c:	e0 2d       	mov	r30, r0
    255e:	09 95       	icall
    2560:	89 2b       	or	r24, r25
    2562:	e1 f6       	brne	.-72     	; 0x251c <fputc+0x10>
    2564:	8e 81       	ldd	r24, Y+6	; 0x06
    2566:	9f 81       	ldd	r25, Y+7	; 0x07
    2568:	01 96       	adiw	r24, 0x01	; 1
    256a:	9f 83       	std	Y+7, r25	; 0x07
    256c:	8e 83       	std	Y+6, r24	; 0x06
    256e:	81 2f       	mov	r24, r17
    2570:	90 2f       	mov	r25, r16
    2572:	df 91       	pop	r29
    2574:	cf 91       	pop	r28
    2576:	1f 91       	pop	r17
    2578:	0f 91       	pop	r16
    257a:	08 95       	ret

0000257c <printf>:
    257c:	a0 e0       	ldi	r26, 0x00	; 0
    257e:	b0 e0       	ldi	r27, 0x00	; 0
    2580:	e4 ec       	ldi	r30, 0xC4	; 196
    2582:	f2 e1       	ldi	r31, 0x12	; 18
    2584:	0c 94 21 0e 	jmp	0x1c42	; 0x1c42 <__prologue_saves__+0x20>
    2588:	ae 01       	movw	r20, r28
    258a:	4b 5f       	subi	r20, 0xFB	; 251
    258c:	5f 4f       	sbci	r21, 0xFF	; 255
    258e:	fa 01       	movw	r30, r20
    2590:	61 91       	ld	r22, Z+
    2592:	71 91       	ld	r23, Z+
    2594:	af 01       	movw	r20, r30
    2596:	80 91 02 02 	lds	r24, 0x0202	; 0x800202 <__iob+0x2>
    259a:	90 91 03 02 	lds	r25, 0x0203	; 0x800203 <__iob+0x3>
    259e:	0e 94 40 0a 	call	0x1480	; 0x1480 <vfprintf>
